{
  "contracts/AuditEvidenceRegistry.sol": {
    "AuditEvidenceRegistry": {
      "abi": [
        {
          "anonymous": false,
          "inputs": [
            {
              "indexed": true,
              "internalType": "bytes32",
              "name": "challengeDigest",
              "type": "bytes32"
            },
            {
              "indexed": false,
              "internalType": "bool",
              "name": "result",
              "type": "bool"
            },
            {
              "indexed": false,
              "internalType": "uint256",
              "name": "timestamp",
              "type": "uint256"
            }
          ],
          "name": "AuditFinalized",
          "type": "event"
        },
        {
          "inputs": [
            {
              "internalType": "bytes32",
              "name": "",
              "type": "bytes32"
            }
          ],
          "name": "audits",
          "outputs": [
            {
              "internalType": "bytes32",
              "name": "smtRoot",
              "type": "bytes32"
            },
            {
              "internalType": "uint256",
              "name": "voteCount",
              "type": "uint256"
            },
            {
              "internalType": "uint256",
              "name": "requiredThreshold",
              "type": "uint256"
            },
            {
              "internalType": "bool",
              "name": "finalized",
              "type": "bool"
            },
            {
              "internalType": "bool",
              "name": "isSuccess",
              "type": "bool"
            },
            {
              "internalType": "uint256",
              "name": "timestamp",
              "type": "uint256"
            }
          ],
          "stateMutability": "view",
          "type": "function"
        },
        {
          "inputs": [
            {
              "internalType": "bytes32",
              "name": "",
              "type": "bytes32"
            },
            {
              "internalType": "address",
              "name": "",
              "type": "address"
            }
          ],
          "name": "hasVoted",
          "outputs": [
            {
              "internalType": "bool",
              "name": "",
              "type": "bool"
            }
          ],
          "stateMutability": "view",
          "type": "function"
        },
        {
          "inputs": [
            {
              "internalType": "bytes32",
              "name": "h_chal",
              "type": "bytes32"
            },
            {
              "internalType": "bytes32",
              "name": "_smtRoot",
              "type": "bytes32"
            },
            {
              "internalType": "bool",
              "name": "localVerdict",
              "type": "bool"
            },
            {
              "internalType": "uint256",
              "name": "targetT",
              "type": "uint256"
            }
          ],
          "name": "submitVote",
          "outputs": [],
          "stateMutability": "nonpayable",
          "type": "function"
        }
      ],
      "evm": {
        "bytecode": {
          "linkReferences": {},
          "object": "608060405234801561001057600080fd5b506107c0806100206000396000f3fe608060405234801561001057600080fd5b50600436106100415760003560e01c8063aadc3b7214610046578063dbbd2efb14610076578063eae27f3114610092575b600080fd5b610060600480360381019061005b919061042a565b6100c7565b60405161006d9190610485565b60405180910390f35b610090600480360381019061008b9190610502565b6100f6565b005b6100ac60048036038101906100a79190610569565b61033b565b6040516100be969594939291906105b4565b60405180910390f35b60016020528160005260406000206020528060005260406000206000915091509054906101000a900460ff1681565b600080600086815260200190815260200160002090506000816002015403610122578181600201819055505b8060030160009054906101000a900460ff1615610174576040517f08c379a000000000000000000000000000000000000000000000000000000000815260040161016b90610672565b60405180910390fd5b6001600086815260200190815260200160002060003373ffffffffffffffffffffffffffffffffffffffff1673ffffffffffffffffffffffffffffffffffffffff16815260200190815260200160002060009054906101000a900460ff1615610212576040517f08c379a0000000000000000000000000000000000000000000000000000000008152600401610209906106de565b60405180910390fd5b821561023e57600181600101600082825461022d919061072d565b925050819055508381600001819055505b600180600087815260200190815260200160002060003373ffffffffffffffffffffffffffffffffffffffff1673ffffffffffffffffffffffffffffffffffffffff16815260200190815260200160002060006101000a81548160ff02191690831515021790555080600201548160010154106103345760018160030160006101000a81548160ff02191690831515021790555060018160030160016101000a81548160ff021916908315150217905550428160040181905550847ffe78b8703566674bd368644adf481da68d7770bef0f1df81840d5e4a7d6f79c260014260405161032b929190610761565b60405180910390a25b5050505050565b60006020528060005260406000206000915090508060000154908060010154908060020154908060030160009054906101000a900460ff16908060030160019054906101000a900460ff16908060040154905086565b600080fd5b6000819050919050565b6103a981610396565b81146103b457600080fd5b50565b6000813590506103c6816103a0565b92915050565b600073ffffffffffffffffffffffffffffffffffffffff82169050919050565b60006103f7826103cc565b9050919050565b610407816103ec565b811461041257600080fd5b50565b600081359050610424816103fe565b92915050565b6000806040838503121561044157610440610391565b5b600061044f858286016103b7565b925050602061046085828601610415565b9150509250929050565b60008115159050919050565b61047f8161046a565b82525050565b600060208201905061049a6000830184610476565b92915050565b6104a98161046a565b81146104b457600080fd5b50565b6000813590506104c6816104a0565b92915050565b6000819050919050565b6104df816104cc565b81146104ea57600080fd5b50565b6000813590506104fc816104d6565b92915050565b6000806000806080858703121561051c5761051b610391565b5b600061052a878288016103b7565b945050602061053b878288016103b7565b935050604061054c878288016104b7565b925050606061055d878288016104ed565b91505092959194509250565b60006020828403121561057f5761057e610391565b5b600061058d848285016103b7565b91505092915050565b61059f81610396565b82525050565b6105ae816104cc565b82525050565b600060c0820190506105c96000830189610596565b6105d660208301886105a5565b6105e360408301876105a5565b6105f06060830186610476565b6105fd6080830185610476565b61060a60a08301846105a5565b979650505050505050565b600082825260208201905092915050565b7f417564697420616c72656164792066696e697368656400000000000000000000600082015250565b600061065c601683610615565b915061066782610626565b602082019050919050565b6000602082019050818103600083015261068b8161064f565b9050919050565b7f5065657220616c726561647920766f7465640000000000000000000000000000600082015250565b60006106c8601283610615565b91506106d382610692565b602082019050919050565b600060208201905081810360008301526106f7816106bb565b9050919050565b7f4e487b7100000000000000000000000000000000000000000000000000000000600052601160045260246000fd5b6000610738826104cc565b9150610743836104cc565b925082820190508082111561075b5761075a6106fe565b5b92915050565b60006040820190506107766000830185610476565b61078360208301846105a5565b939250505056fea26469706673582212204bfc276e486cb7bae9410c36277cfbdf8e44a3d713fb4f687f003b1334974ef164736f6c63430008180033",
          "opcodes": "PUSH1 0x80 PUSH1 0x40 MSTORE CALLVALUE DUP1 ISZERO PUSH2 0x10 JUMPI PUSH1 0x0 DUP1 REVERT JUMPDEST POP PUSH2 0x7C0 DUP1 PUSH2 0x20 PUSH1 0x0 CODECOPY PUSH1 0x0 RETURN INVALID PUSH1 0x80 PUSH1 0x40 MSTORE CALLVALUE DUP1 ISZERO PUSH2 0x10 JUMPI PUSH1 0x0 DUP1 REVERT JUMPDEST POP PUSH1 0x4 CALLDATASIZE LT PUSH2 0x41 JUMPI PUSH1 0x0 CALLDATALOAD PUSH1 0xE0 SHR DUP1 PUSH4 0xAADC3B72 EQ PUSH2 0x46 JUMPI DUP1 PUSH4 0xDBBD2EFB EQ PUSH2 0x76 JUMPI DUP1 PUSH4 0xEAE27F31 EQ PUSH2 0x92 JUMPI JUMPDEST PUSH1 0x0 DUP1 REVERT JUMPDEST PUSH2 0x60 PUSH1 0x4 DUP1 CALLDATASIZE SUB DUP2 ADD SWAP1 PUSH2 0x5B SWAP2 SWAP1 PUSH2 0x42A JUMP JUMPDEST PUSH2 0xC7 JUMP JUMPDEST PUSH1 0x40 MLOAD PUSH2 0x6D SWAP2 SWAP1 PUSH2 0x485 JUMP JUMPDEST PUSH1 0x40 MLOAD DUP1 SWAP2 SUB SWAP1 RETURN JUMPDEST PUSH2 0x90 PUSH1 0x4 DUP1 CALLDATASIZE SUB DUP2 ADD SWAP1 PUSH2 0x8B SWAP2 SWAP1 PUSH2 0x502 JUMP JUMPDEST PUSH2 0xF6 JUMP JUMPDEST STOP JUMPDEST PUSH2 0xAC PUSH1 0x4 DUP1 CALLDATASIZE SUB DUP2 ADD SWAP1 PUSH2 0xA7 SWAP2 SWAP1 PUSH2 0x569 JUMP JUMPDEST PUSH2 0x33B JUMP JUMPDEST PUSH1 0x40 MLOAD PUSH2 0xBE SWAP7 SWAP6 SWAP5 SWAP4 SWAP3 SWAP2 SWAP1 PUSH2 0x5B4 JUMP JUMPDEST PUSH1 0x40 MLOAD DUP1 SWAP2 SUB SWAP1 RETURN JUMPDEST PUSH1 0x1 PUSH1 0x20 MSTORE DUP2 PUSH1 0x0 MSTORE PUSH1 0x40 PUSH1 0x0 KECCAK256 PUSH1 0x20 MSTORE DUP1 PUSH1 0x0 MSTORE PUSH1 0x40 PUSH1 0x0 KECCAK256 PUSH1 0x0 SWAP2 POP SWAP2 POP SWAP1 SLOAD SWAP1 PUSH2 0x100 EXP SWAP1 DIV PUSH1 0xFF AND DUP2 JUMP JUMPDEST PUSH1 0x0 DUP1 PUSH1 0x0 DUP7 DUP2 MSTORE PUSH1 0x20 ADD SWAP1 DUP2 MSTORE PUSH1 0x20 ADD PUSH1 0x0 KECCAK256 SWAP1 POP PUSH1 0x0 DUP2 PUSH1 0x2 ADD SLOAD SUB PUSH2 0x122 JUMPI DUP2 DUP2 PUSH1 0x2 ADD DUP2 SWAP1 SSTORE POP JUMPDEST DUP1 PUSH1 0x3 ADD PUSH1 0x0 SWAP1 SLOAD SWAP1 PUSH2 0x100 EXP SWAP1 DIV PUSH1 0xFF AND ISZERO PUSH2 0x174 JUMPI PUSH1 0x40 MLOAD PUSH32 0x8C379A000000000000000000000000000000000000000000000000000000000 DUP2 MSTORE PUSH1 0x4 ADD PUSH2 0x16B SWAP1 PUSH2 0x672 JUMP JUMPDEST PUSH1 0x40 MLOAD DUP1 SWAP2 SUB SWAP1 REVERT JUMPDEST PUSH1 0x1 PUSH1 0x0 DUP7 DUP2 MSTORE PUSH1 0x20 ADD SWAP1 DUP2 MSTORE PUSH1 0x20 ADD PUSH1 0x0 KECCAK256 PUSH1 0x0 CALLER PUSH20 0xFFFFFFFFFFFFFFFFFFFFFFFFFFFFFFFFFFFFFFFF AND PUSH20 0xFFFFFFFFFFFFFFFFFFFFFFFFFFFFFFFFFFFFFFFF AND DUP2 MSTORE PUSH1 0x20 ADD SWAP1 DUP2 MSTORE PUSH1 0x20 ADD PUSH1 0x0 KECCAK256 PUSH1 0x0 SWAP1 SLOAD SWAP1 PUSH2 0x100 EXP SWAP1 DIV PUSH1 0xFF AND ISZERO PUSH2 0x212 JUMPI PUSH1 0x40 MLOAD PUSH32 0x8C379A000000000000000000000000000000000000000000000000000000000 DUP2 MSTORE PUSH1 0x4 ADD PUSH2 0x209 SWAP1 PUSH2 0x6DE JUMP JUMPDEST PUSH1 0x40 MLOAD DUP1 SWAP2 SUB SWAP1 REVERT JUMPDEST DUP3 ISZERO PUSH2 0x23E JUMPI PUSH1 0x1 DUP2 PUSH1 0x1 ADD PUSH1 0x0 DUP3 DUP3 SLOAD PUSH2 0x22D SWAP2 SWAP1 PUSH2 0x72D JUMP JUMPDEST SWAP3 POP POP DUP2 SWAP1 SSTORE POP DUP4 DUP2 PUSH1 0x0 ADD DUP2 SWAP1 SSTORE POP JUMPDEST PUSH1 0x1 DUP1 PUSH1 0x0 DUP8 DUP2 MSTORE PUSH1 0x20 ADD SWAP1 DUP2 MSTORE PUSH1 0x20 ADD PUSH1 0x0 KECCAK256 PUSH1 0x0 CALLER PUSH20 0xFFFFFFFFFFFFFFFFFFFFFFFFFFFFFFFFFFFFFFFF AND PUSH20 0xFFFFFFFFFFFFFFFFFFFFFFFFFFFFFFFFFFFFFFFF AND DUP2 MSTORE PUSH1 0x20 ADD SWAP1 DUP2 MSTORE PUSH1 0x20 ADD PUSH1 0x0 KECCAK256 PUSH1 0x0 PUSH2 0x100 EXP DUP2 SLOAD DUP2 PUSH1 0xFF MUL NOT AND SWAP1 DUP4 ISZERO ISZERO MUL OR SWAP1 SSTORE POP DUP1 PUSH1 0x2 ADD SLOAD DUP2 PUSH1 0x1 ADD SLOAD LT PUSH2 0x334 JUMPI PUSH1 0x1 DUP2 PUSH1 0x3 ADD PUSH1 0x0 PUSH2 0x100 EXP DUP2 SLOAD DUP2 PUSH1 0xFF MUL NOT AND SWAP1 DUP4 ISZERO ISZERO MUL OR SWAP1 SSTORE POP PUSH1 0x1 DUP2 PUSH1 0x3 ADD PUSH1 0x1 PUSH2 0x100 EXP DUP2 SLOAD DUP2 PUSH1 0xFF MUL NOT AND SWAP1 DUP4 ISZERO ISZERO MUL OR SWAP1 SSTORE POP TIMESTAMP DUP2 PUSH1 0x4 ADD DUP2 SWAP1 SSTORE POP DUP5 PUSH32 0xFE78B8703566674BD368644ADF481DA68D7770BEF0F1DF81840D5E4A7D6F79C2 PUSH1 0x1 TIMESTAMP PUSH1 0x40 MLOAD PUSH2 0x32B SWAP3 SWAP2 SWAP1 PUSH2 0x761 JUMP JUMPDEST PUSH1 0x40 MLOAD DUP1 SWAP2 SUB SWAP1 LOG2 JUMPDEST POP POP POP POP POP JUMP JUMPDEST PUSH1 0x0 PUSH1 0x20 MSTORE DUP1 PUSH1 0x0 MSTORE PUSH1 0x40 PUSH1 0x0 KECCAK256 PUSH1 0x0 SWAP2 POP SWAP1 POP DUP1 PUSH1 0x0 ADD SLOAD SWAP1 DUP1 PUSH1 0x1 ADD SLOAD SWAP1 DUP1 PUSH1 0x2 ADD SLOAD SWAP1 DUP1 PUSH1 0x3 ADD PUSH1 0x0 SWAP1 SLOAD SWAP1 PUSH2 0x100 EXP SWAP1 DIV PUSH1 0xFF AND SWAP1 DUP1 PUSH1 0x3 ADD PUSH1 0x1 SWAP1 SLOAD SWAP1 PUSH2 0x100 EXP SWAP1 DIV PUSH1 0xFF AND SWAP1 DUP1 PUSH1 0x4 ADD SLOAD SWAP1 POP DUP7 JUMP JUMPDEST PUSH1 0x0 DUP1 REVERT JUMPDEST PUSH1 0x0 DUP2 SWAP1 POP SWAP2 SWAP1 POP JUMP JUMPDEST PUSH2 0x3A9 DUP2 PUSH2 0x396 JUMP JUMPDEST DUP2 EQ PUSH2 0x3B4 JUMPI PUSH1 0x0 DUP1 REVERT JUMPDEST POP JUMP JUMPDEST PUSH1 0x0 DUP2 CALLDATALOAD SWAP1 POP PUSH2 0x3C6 DUP2 PUSH2 0x3A0 JUMP JUMPDEST SWAP3 SWAP2 POP POP JUMP JUMPDEST PUSH1 0x0 PUSH20 0xFFFFFFFFFFFFFFFFFFFFFFFFFFFFFFFFFFFFFFFF DUP3 AND SWAP1 POP SWAP2 SWAP1 POP JUMP JUMPDEST PUSH1 0x0 PUSH2 0x3F7 DUP3 PUSH2 0x3CC JUMP JUMPDEST SWAP1 POP SWAP2 SWAP1 POP JUMP JUMPDEST PUSH2 0x407 DUP2 PUSH2 0x3EC JUMP JUMPDEST DUP2 EQ PUSH2 0x412 JUMPI PUSH1 0x0 DUP1 REVERT JUMPDEST POP JUMP JUMPDEST PUSH1 0x0 DUP2 CALLDATALOAD SWAP1 POP PUSH2 0x424 DUP2 PUSH2 0x3FE JUMP JUMPDEST SWAP3 SWAP2 POP POP JUMP JUMPDEST PUSH1 0x0 DUP1 PUSH1 0x40 DUP4 DUP6 SUB SLT ISZERO PUSH2 0x441 JUMPI PUSH2 0x440 PUSH2 0x391 JUMP JUMPDEST JUMPDEST PUSH1 0x0 PUSH2 0x44F DUP6 DUP3 DUP7 ADD PUSH2 0x3B7 JUMP JUMPDEST SWAP3 POP POP PUSH1 0x20 PUSH2 0x460 DUP6 DUP3 DUP7 ADD PUSH2 0x415 JUMP JUMPDEST SWAP2 POP POP SWAP3 POP SWAP3 SWAP1 POP JUMP JUMPDEST PUSH1 0x0 DUP2 ISZERO ISZERO SWAP1 POP SWAP2 SWAP1 POP JUMP JUMPDEST PUSH2 0x47F DUP2 PUSH2 0x46A JUMP JUMPDEST DUP3 MSTORE POP POP JUMP JUMPDEST PUSH1 0x0 PUSH1 0x20 DUP3 ADD SWAP1 POP PUSH2 0x49A PUSH1 0x0 DUP4 ADD DUP5 PUSH2 0x476 JUMP JUMPDEST SWAP3 SWAP2 POP POP JUMP JUMPDEST PUSH2 0x4A9 DUP2 PUSH2 0x46A JUMP JUMPDEST DUP2 EQ PUSH2 0x4B4 JUMPI PUSH1 0x0 DUP1 REVERT JUMPDEST POP JUMP JUMPDEST PUSH1 0x0 DUP2 CALLDATALOAD SWAP1 POP PUSH2 0x4C6 DUP2 PUSH2 0x4A0 JUMP JUMPDEST SWAP3 SWAP2 POP POP JUMP JUMPDEST PUSH1 0x0 DUP2 SWAP1 POP SWAP2 SWAP1 POP JUMP JUMPDEST PUSH2 0x4DF DUP2 PUSH2 0x4CC JUMP JUMPDEST DUP2 EQ PUSH2 0x4EA JUMPI PUSH1 0x0 DUP1 REVERT JUMPDEST POP JUMP JUMPDEST PUSH1 0x0 DUP2 CALLDATALOAD SWAP1 POP PUSH2 0x4FC DUP2 PUSH2 0x4D6 JUMP JUMPDEST SWAP3 SWAP2 POP POP JUMP JUMPDEST PUSH1 0x0 DUP1 PUSH1 0x0 DUP1 PUSH1 0x80 DUP6 DUP8 SUB SLT ISZERO PUSH2 0x51C JUMPI PUSH2 0x51B PUSH2 0x391 JUMP JUMPDEST JUMPDEST PUSH1 0x0 PUSH2 0x52A DUP8 DUP3 DUP9 ADD PUSH2 0x3B7 JUMP JUMPDEST SWAP5 POP POP PUSH1 0x20 PUSH2 0x53B DUP8 DUP3 DUP9 ADD PUSH2 0x3B7 JUMP JUMPDEST SWAP4 POP POP PUSH1 0x40 PUSH2 0x54C DUP8 DUP3 DUP9 ADD PUSH2 0x4B7 JUMP JUMPDEST SWAP3 POP POP PUSH1 0x60 PUSH2 0x55D DUP8 DUP3 DUP9 ADD PUSH2 0x4ED JUMP JUMPDEST SWAP2 POP POP SWAP3 SWAP6 SWAP2 SWAP5 POP SWAP3 POP JUMP JUMPDEST PUSH1 0x0 PUSH1 0x20 DUP3 DUP5 SUB SLT ISZERO PUSH2 0x57F JUMPI PUSH2 0x57E PUSH2 0x391 JUMP JUMPDEST JUMPDEST PUSH1 0x0 PUSH2 0x58D DUP5 DUP3 DUP6 ADD PUSH2 0x3B7 JUMP JUMPDEST SWAP2 POP POP SWAP3 SWAP2 POP POP JUMP JUMPDEST PUSH2 0x59F DUP2 PUSH2 0x396 JUMP JUMPDEST DUP3 MSTORE POP POP JUMP JUMPDEST PUSH2 0x5AE DUP2 PUSH2 0x4CC JUMP JUMPDEST DUP3 MSTORE POP POP JUMP JUMPDEST PUSH1 0x0 PUSH1 0xC0 DUP3 ADD SWAP1 POP PUSH2 0x5C9 PUSH1 0x0 DUP4 ADD DUP10 PUSH2 0x596 JUMP JUMPDEST PUSH2 0x5D6 PUSH1 0x20 DUP4 ADD DUP9 PUSH2 0x5A5 JUMP JUMPDEST PUSH2 0x5E3 PUSH1 0x40 DUP4 ADD DUP8 PUSH2 0x5A5 JUMP JUMPDEST PUSH2 0x5F0 PUSH1 0x60 DUP4 ADD DUP7 PUSH2 0x476 JUMP JUMPDEST PUSH2 0x5FD PUSH1 0x80 DUP4 ADD DUP6 PUSH2 0x476 JUMP JUMPDEST PUSH2 0x60A PUSH1 0xA0 DUP4 ADD DUP5 PUSH2 0x5A5 JUMP JUMPDEST SWAP8 SWAP7 POP POP POP POP POP POP POP JUMP JUMPDEST PUSH1 0x0 DUP3 DUP3 MSTORE PUSH1 0x20 DUP3 ADD SWAP1 POP SWAP3 SWAP2 POP POP JUMP JUMPDEST PUSH32 0x417564697420616C72656164792066696E697368656400000000000000000000 PUSH1 0x0 DUP3 ADD MSTORE POP JUMP JUMPDEST PUSH1 0x0 PUSH2 0x65C PUSH1 0x16 DUP4 PUSH2 0x615 JUMP JUMPDEST SWAP2 POP PUSH2 0x667 DUP3 PUSH2 0x626 JUMP JUMPDEST PUSH1 0x20 DUP3 ADD SWAP1 POP SWAP2 SWAP1 POP JUMP JUMPDEST PUSH1 0x0 PUSH1 0x20 DUP3 ADD SWAP1 POP DUP2 DUP2 SUB PUSH1 0x0 DUP4 ADD MSTORE PUSH2 0x68B DUP2 PUSH2 0x64F JUMP JUMPDEST SWAP1 POP SWAP2 SWAP1 POP JUMP JUMPDEST PUSH32 0x5065657220616C726561647920766F7465640000000000000000000000000000 PUSH1 0x0 DUP3 ADD MSTORE POP JUMP JUMPDEST PUSH1 0x0 PUSH2 0x6C8 PUSH1 0x12 DUP4 PUSH2 0x615 JUMP JUMPDEST SWAP2 POP PUSH2 0x6D3 DUP3 PUSH2 0x692 JUMP JUMPDEST PUSH1 0x20 DUP3 ADD SWAP1 POP SWAP2 SWAP1 POP JUMP JUMPDEST PUSH1 0x0 PUSH1 0x20 DUP3 ADD SWAP1 POP DUP2 DUP2 SUB PUSH1 0x0 DUP4 ADD MSTORE PUSH2 0x6F7 DUP2 PUSH2 0x6BB JUMP JUMPDEST SWAP1 POP SWAP2 SWAP1 POP JUMP JUMPDEST PUSH32 0x4E487B7100000000000000000000000000000000000000000000000000000000 PUSH1 0x0 MSTORE PUSH1 0x11 PUSH1 0x4 MSTORE PUSH1 0x24 PUSH1 0x0 REVERT JUMPDEST PUSH1 0x0 PUSH2 0x738 DUP3 PUSH2 0x4CC JUMP JUMPDEST SWAP2 POP PUSH2 0x743 DUP4 PUSH2 0x4CC JUMP JUMPDEST SWAP3 POP DUP3 DUP3 ADD SWAP1 POP DUP1 DUP3 GT ISZERO PUSH2 0x75B JUMPI PUSH2 0x75A PUSH2 0x6FE JUMP JUMPDEST JUMPDEST SWAP3 SWAP2 POP POP JUMP JUMPDEST PUSH1 0x0 PUSH1 0x40 DUP3 ADD SWAP1 POP PUSH2 0x776 PUSH1 0x0 DUP4 ADD DUP6 PUSH2 0x476 JUMP JUMPDEST PUSH2 0x783 PUSH1 0x20 DUP4 ADD DUP5 PUSH2 0x5A5 JUMP JUMPDEST SWAP4 SWAP3 POP POP POP JUMP INVALID LOG2 PUSH5 0x6970667358 0x22 SLT KECCAK256 0x4B 0xFC 0x27 PUSH15 0x486CB7BAE9410C36277CFBDF8E44A3 0xD7 SGT 0xFB 0x4F PUSH9 0x7F003B1334974EF164 PUSH20 0x6F6C634300081800330000000000000000000000 "
        },
        "methodIdentifiers": {
          "audits(bytes32)": "eae27f31",
          "hasVoted(bytes32,address)": "aadc3b72",
          "submitVote(bytes32,bytes32,bool,uint256)": "dbbd2efb"
        }
      }
    }
  }
}