{
  "contracts/AuditAccessManager.sol": {
    "AuditAccessManager": {
      "abi": [
        {
          "inputs": [],
          "stateMutability": "nonpayable",
          "type": "constructor"
        },
        {
          "inputs": [
            {
              "internalType": "string",
              "name": "partyId",
              "type": "string"
            },
            {
              "internalType": "uint256",
              "name": "_threshold",
              "type": "uint256"
            },
            {
              "internalType": "uint256",
              "name": "_totalPeers",
              "type": "uint256"
            },
            {
              "internalType": "bytes32",
              "name": "_vKey",
              "type": "bytes32"
            }
          ],
          "name": "authorizeParty",
          "outputs": [],
          "stateMutability": "nonpayable",
          "type": "function"
        },
        {
          "inputs": [],
          "name": "contractAdmin",
          "outputs": [
            {
              "internalType": "address",
              "name": "",
              "type": "address"
            }
          ],
          "stateMutability": "view",
          "type": "function"
        },
        {
          "inputs": [
            {
              "internalType": "string",
              "name": "partyId",
              "type": "string"
            }
          ],
          "name": "getAuditConfig",
          "outputs": [
            {
              "internalType": "uint256",
              "name": "",
              "type": "uint256"
            },
            {
              "internalType": "uint256",
              "name": "",
              "type": "uint256"
            }
          ],
          "stateMutability": "view",
          "type": "function"
        },
        {
          "inputs": [
            {
              "internalType": "string",
              "name": "",
              "type": "string"
            },
            {
              "internalType": "address",
              "name": "",
              "type": "address"
            }
          ],
          "name": "isAuthorizedPeer",
          "outputs": [
            {
              "internalType": "bool",
              "name": "",
              "type": "bool"
            }
          ],
          "stateMutability": "view",
          "type": "function"
        },
        {
          "inputs": [
            {
              "internalType": "string",
              "name": "",
              "type": "string"
            }
          ],
          "name": "partyConfigs",
          "outputs": [
            {
              "internalType": "uint256",
              "name": "threshold",
              "type": "uint256"
            },
            {
              "internalType": "uint256",
              "name": "totalPeers",
              "type": "uint256"
            },
            {
              "internalType": "bool",
              "name": "isActive",
              "type": "bool"
            },
            {
              "internalType": "bytes32",
              "name": "verifyingKey",
              "type": "bytes32"
            }
          ],
          "stateMutability": "view",
          "type": "function"
        },
        {
          "inputs": [
            {
              "internalType": "string",
              "name": "partyId",
              "type": "string"
            },
            {
              "internalType": "bytes32",
              "name": "zkpProof",
              "type": "bytes32"
            },
            {
              "internalType": "address",
              "name": "caller",
              "type": "address"
            },
            {
              "internalType": "string",
              "name": "epoch",
              "type": "string"
            }
          ],
          "name": "verifyZkpProof",
          "outputs": [
            {
              "internalType": "bool",
              "name": "",
              "type": "bool"
            }
          ],
          "stateMutability": "view",
          "type": "function"
        }
      ],
      "evm": {
        "bytecode": {
          "linkReferences": {},
          "object": "608060405234801561001057600080fd5b50336000806101000a81548173ffffffffffffffffffffffffffffffffffffffff021916908373ffffffffffffffffffffffffffffffffffffffff160217905550610c50806100606000396000f3fe608060405234801561001057600080fd5b50600436106100625760003560e01c8063302f817b14610067578063779552451461009a578063a155fc27146100b8578063a3efce13146100e8578063a4d8bde914610118578063f25316bf14610134575b600080fd5b610081600480360381019061007c919061061e565b610165565b60405161009194939291906106b4565b60405180910390f35b6100a26101b8565b6040516100af919061073a565b60405180910390f35b6100d260048036038101906100cd9190610781565b6101dc565b6040516100df91906107dd565b60405180910390f35b61010260048036038101906100fd9190610824565b610221565b60405161010f91906107dd565b60405180910390f35b610132600480360381019061012d91906108ef565b6102ef565b005b61014e6004803603810190610149919061061e565b610406565b60405161015c929190610972565b60405180910390f35b6001818051602081018201805184825260208301602085012081835280955050505050506000915090508060000154908060010154908060020160009054906101000a900460ff16908060030154905084565b60008054906101000a900473ffffffffffffffffffffffffffffffffffffffff1681565b6002828051602081018201805184825260208301602085012081835280955050505050506020528060005260406000206000915091509054906101000a900460ff1681565b60006001856040516102339190610a0c565b908152602001604051809103902060020160009054906101000a900460ff16610291576040517f08c379a000000000000000000000000000000000000000000000000000000000815260040161028890610a80565b60405180910390fd5b60006001866040516102a39190610a0c565b90815260200160405180910390206003015483856040516020016102c993929190610b09565b604051602081830303815290604052805190602001209050808514915050949350505050565b60008054906101000a900473ffffffffffffffffffffffffffffffffffffffff1673ffffffffffffffffffffffffffffffffffffffff163373ffffffffffffffffffffffffffffffffffffffff161461037d576040517f08c379a000000000000000000000000000000000000000000000000000000000815260040161037490610b8e565b60405180910390fd5b6040518060800160405280848152602001838152602001600115158152602001828152506001856040516103b19190610a0c565b9081526020016040518091039020600082015181600001556020820151816001015560408201518160020160006101000a81548160ff0219169083151502179055506060820151816003015590505050505050565b6000806001836040516104199190610a0c565b908152602001604051809103902060020160009054906101000a900460ff16610477576040517f08c379a000000000000000000000000000000000000000000000000000000000815260040161046e90610bfa565b60405180910390fd5b6001836040516104879190610a0c565b9081526020016040518091039020600001546001846040516104a99190610a0c565b90815260200160405180910390206001015491509150915091565b6000604051905090565b600080fd5b600080fd5b600080fd5b600080fd5b6000601f19601f8301169050919050565b7f4e487b7100000000000000000000000000000000000000000000000000000000600052604160045260246000fd5b61052b826104e2565b810181811067ffffffffffffffff8211171561054a576105496104f3565b5b80604052505050565b600061055d6104c4565b90506105698282610522565b919050565b600067ffffffffffffffff821115610589576105886104f3565b5b610592826104e2565b9050602081019050919050565b82818337600083830152505050565b60006105c16105bc8461056e565b610553565b9050828152602081018484840111156105dd576105dc6104dd565b5b6105e884828561059f565b509392505050565b600082601f830112610605576106046104d8565b5b81356106158482602086016105ae565b91505092915050565b600060208284031215610634576106336104ce565b5b600082013567ffffffffffffffff811115610652576106516104d3565b5b61065e848285016105f0565b91505092915050565b6000819050919050565b61067a81610667565b82525050565b60008115159050919050565b61069581610680565b82525050565b6000819050919050565b6106ae8161069b565b82525050565b60006080820190506106c96000830187610671565b6106d66020830186610671565b6106e3604083018561068c565b6106f060608301846106a5565b95945050505050565b600073ffffffffffffffffffffffffffffffffffffffff82169050919050565b6000610724826106f9565b9050919050565b61073481610719565b82525050565b600060208201905061074f600083018461072b565b92915050565b61075e81610719565b811461076957600080fd5b50565b60008135905061077b81610755565b92915050565b60008060408385031215610798576107976104ce565b5b600083013567ffffffffffffffff8111156107b6576107b56104d3565b5b6107c2858286016105f0565b92505060206107d38582860161076c565b9150509250929050565b60006020820190506107f2600083018461068c565b92915050565b6108018161069b565b811461080c57600080fd5b50565b60008135905061081e816107f8565b92915050565b6000806000806080858703121561083e5761083d6104ce565b5b600085013567ffffffffffffffff81111561085c5761085b6104d3565b5b610868878288016105f0565b94505060206108798782880161080f565b935050604061088a8782880161076c565b925050606085013567ffffffffffffffff8111156108ab576108aa6104d3565b5b6108b7878288016105f0565b91505092959194509250565b6108cc81610667565b81146108d757600080fd5b50565b6000813590506108e9816108c3565b92915050565b60008060008060808587031215610909576109086104ce565b5b600085013567ffffffffffffffff811115610927576109266104d3565b5b610933878288016105f0565b9450506020610944878288016108da565b9350506040610955878288016108da565b92505060606109668782880161080f565b91505092959194509250565b60006040820190506109876000830185610671565b6109946020830184610671565b9392505050565b600081519050919050565b600081905092915050565b60005b838110156109cf5780820151818401526020810190506109b4565b60008484015250505050565b60006109e68261099b565b6109f081856109a6565b9350610a008185602086016109b1565b80840191505092915050565b6000610a1882846109db565b915081905092915050565b600082825260208201905092915050565b7f5061727479206e6f742072656769737465726564000000000000000000000000600082015250565b6000610a6a601483610a23565b9150610a7582610a34565b602082019050919050565b60006020820190508181036000830152610a9981610a5d565b9050919050565b6000819050919050565b610abb610ab68261069b565b610aa0565b82525050565b60008160601b9050919050565b6000610ad982610ac1565b9050919050565b6000610aeb82610ace565b9050919050565b610b03610afe82610719565b610ae0565b82525050565b6000610b158286610aaa565b602082019150610b2582856109db565b9150610b318284610af2565b601482019150819050949350505050565b7f4f6e6c792041646d696e2063616e20617574686f72697a650000000000000000600082015250565b6000610b78601883610a23565b9150610b8382610b42565b602082019050919050565b60006020820190508181036000830152610ba781610b6b565b9050919050565b7f506172747920646f6573206e6f74206578697374000000000000000000000000600082015250565b6000610be4601483610a23565b9150610bef82610bae565b602082019050919050565b60006020820190508181036000830152610c1381610bd7565b905091905056fea2646970667358221220a6efb1fe9f2b900f8868185980fdc3109f19e1c2f1a8e2e9436f01b94315315764736f6c63430008180033",
          "opcodes": "PUSH1 0x80 PUSH1 0x40 MSTORE CALLVALUE DUP1 ISZERO PUSH2 0x10 JUMPI PUSH1 0x0 DUP1 REVERT JUMPDEST POP CALLER PUSH1 0x0 DUP1 PUSH2 0x100 EXP DUP2 SLOAD DUP2 PUSH20 0xFFFFFFFFFFFFFFFFFFFFFFFFFFFFFFFFFFFFFFFF MUL NOT AND SWAP1 DUP4 PUSH20 0xFFFFFFFFFFFFFFFFFFFFFFFFFFFFFFFFFFFFFFFF AND MUL OR SWAP1 SSTORE POP PUSH2 0xC50 DUP1 PUSH2 0x60 PUSH1 0x0 CODECOPY PUSH1 0x0 RETURN INVALID PUSH1 0x80 PUSH1 0x40 MSTORE CALLVALUE DUP1 ISZERO PUSH2 0x10 JUMPI PUSH1 0x0 DUP1 REVERT JUMPDEST POP PUSH1 0x4 CALLDATASIZE LT PUSH2 0x62 JUMPI PUSH1 0x0 CALLDATALOAD PUSH1 0xE0 SHR DUP1 PUSH4 0x302F817B EQ PUSH2 0x67 JUMPI DUP1 PUSH4 0x77955245 EQ PUSH2 0x9A JUMPI DUP1 PUSH4 0xA155FC27 EQ PUSH2 0xB8 JUMPI DUP1 PUSH4 0xA3EFCE13 EQ PUSH2 0xE8 JUMPI DUP1 PUSH4 0xA4D8BDE9 EQ PUSH2 0x118 JUMPI DUP1 PUSH4 0xF25316BF EQ PUSH2 0x134 JUMPI JUMPDEST PUSH1 0x0 DUP1 REVERT JUMPDEST PUSH2 0x81 PUSH1 0x4 DUP1 CALLDATASIZE SUB DUP2 ADD SWAP1 PUSH2 0x7C SWAP2 SWAP1 PUSH2 0x61E JUMP JUMPDEST PUSH2 0x165 JUMP JUMPDEST PUSH1 0x40 MLOAD PUSH2 0x91 SWAP5 SWAP4 SWAP3 SWAP2 SWAP1 PUSH2 0x6B4 JUMP JUMPDEST PUSH1 0x40 MLOAD DUP1 SWAP2 SUB SWAP1 RETURN JUMPDEST PUSH2 0xA2 PUSH2 0x1B8 JUMP JUMPDEST PUSH1 0x40 MLOAD PUSH2 0xAF SWAP2 SWAP1 PUSH2 0x73A JUMP JUMPDEST PUSH1 0x40 MLOAD DUP1 SWAP2 SUB SWAP1 RETURN JUMPDEST PUSH2 0xD2 PUSH1 0x4 DUP1 CALLDATASIZE SUB DUP2 ADD SWAP1 PUSH2 0xCD SWAP2 SWAP1 PUSH2 0x781 JUMP JUMPDEST PUSH2 0x1DC JUMP JUMPDEST PUSH1 0x40 MLOAD PUSH2 0xDF SWAP2 SWAP1 PUSH2 0x7DD JUMP JUMPDEST PUSH1 0x40 MLOAD DUP1 SWAP2 SUB SWAP1 RETURN JUMPDEST PUSH2 0x102 PUSH1 0x4 DUP1 CALLDATASIZE SUB DUP2 ADD SWAP1 PUSH2 0xFD SWAP2 SWAP1 PUSH2 0x824 JUMP JUMPDEST PUSH2 0x221 JUMP JUMPDEST PUSH1 0x40 MLOAD PUSH2 0x10F SWAP2 SWAP1 PUSH2 0x7DD JUMP JUMPDEST PUSH1 0x40 MLOAD DUP1 SWAP2 SUB SWAP1 RETURN JUMPDEST PUSH2 0x132 PUSH1 0x4 DUP1 CALLDATASIZE SUB DUP2 ADD SWAP1 PUSH2 0x12D SWAP2 SWAP1 PUSH2 0x8EF JUMP JUMPDEST PUSH2 0x2EF JUMP JUMPDEST STOP JUMPDEST PUSH2 0x14E PUSH1 0x4 DUP1 CALLDATASIZE SUB DUP2 ADD SWAP1 PUSH2 0x149 SWAP2 SWAP1 PUSH2 0x61E JUMP JUMPDEST PUSH2 0x406 JUMP JUMPDEST PUSH1 0x40 MLOAD PUSH2 0x15C SWAP3 SWAP2 SWAP1 PUSH2 0x972 JUMP JUMPDEST PUSH1 0x40 MLOAD DUP1 SWAP2 SUB SWAP1 RETURN JUMPDEST PUSH1 0x1 DUP2 DUP1 MLOAD PUSH1 0x20 DUP2 ADD DUP3 ADD DUP1 MLOAD DUP5 DUP3 MSTORE PUSH1 0x20 DUP4 ADD PUSH1 0x20 DUP6 ADD KECCAK256 DUP2 DUP4 MSTORE DUP1 SWAP6 POP POP POP POP POP POP PUSH1 0x0 SWAP2 POP SWAP1 POP DUP1 PUSH1 0x0 ADD SLOAD SWAP1 DUP1 PUSH1 0x1 ADD SLOAD SWAP1 DUP1 PUSH1 0x2 ADD PUSH1 0x0 SWAP1 SLOAD SWAP1 PUSH2 0x100 EXP SWAP1 DIV PUSH1 0xFF AND SWAP1 DUP1 PUSH1 0x3 ADD SLOAD SWAP1 POP DUP5 JUMP JUMPDEST PUSH1 0x0 DUP1 SLOAD SWAP1 PUSH2 0x100 EXP SWAP1 DIV PUSH20 0xFFFFFFFFFFFFFFFFFFFFFFFFFFFFFFFFFFFFFFFF AND DUP2 JUMP JUMPDEST PUSH1 0x2 DUP3 DUP1 MLOAD PUSH1 0x20 DUP2 ADD DUP3 ADD DUP1 MLOAD DUP5 DUP3 MSTORE PUSH1 0x20 DUP4 ADD PUSH1 0x20 DUP6 ADD KECCAK256 DUP2 DUP4 MSTORE DUP1 SWAP6 POP POP POP POP POP POP PUSH1 0x20 MSTORE DUP1 PUSH1 0x0 MSTORE PUSH1 0x40 PUSH1 0x0 KECCAK256 PUSH1 0x0 SWAP2 POP SWAP2 POP SWAP1 SLOAD SWAP1 PUSH2 0x100 EXP SWAP1 DIV PUSH1 0xFF AND DUP2 JUMP JUMPDEST PUSH1 0x0 PUSH1 0x1 DUP6 PUSH1 0x40 MLOAD PUSH2 0x233 SWAP2 SWAP1 PUSH2 0xA0C JUMP JUMPDEST SWAP1 DUP2 MSTORE PUSH1 0x20 ADD PUSH1 0x40 MLOAD DUP1 SWAP2 SUB SWAP1 KECCAK256 PUSH1 0x2 ADD PUSH1 0x0 SWAP1 SLOAD SWAP1 PUSH2 0x100 EXP SWAP1 DIV PUSH1 0xFF AND PUSH2 0x291 JUMPI PUSH1 0x40 MLOAD PUSH32 0x8C379A000000000000000000000000000000000000000000000000000000000 DUP2 MSTORE PUSH1 0x4 ADD PUSH2 0x288 SWAP1 PUSH2 0xA80 JUMP JUMPDEST PUSH1 0x40 MLOAD DUP1 SWAP2 SUB SWAP1 REVERT JUMPDEST PUSH1 0x0 PUSH1 0x1 DUP7 PUSH1 0x40 MLOAD PUSH2 0x2A3 SWAP2 SWAP1 PUSH2 0xA0C JUMP JUMPDEST SWAP1 DUP2 MSTORE PUSH1 0x20 ADD PUSH1 0x40 MLOAD DUP1 SWAP2 SUB SWAP1 KECCAK256 PUSH1 0x3 ADD SLOAD DUP4 DUP6 PUSH1 0x40 MLOAD PUSH1 0x20 ADD PUSH2 0x2C9 SWAP4 SWAP3 SWAP2 SWAP1 PUSH2 0xB09 JUMP JUMPDEST PUSH1 0x40 MLOAD PUSH1 0x20 DUP2 DUP4 SUB SUB DUP2 MSTORE SWAP1 PUSH1 0x40 MSTORE DUP1 MLOAD SWAP1 PUSH1 0x20 ADD KECCAK256 SWAP1 POP DUP1 DUP6 EQ SWAP2 POP POP SWAP5 SWAP4 POP POP POP POP JUMP JUMPDEST PUSH1 0x0 DUP1 SLOAD SWAP1 PUSH2 0x100 EXP SWAP1 DIV PUSH20 0xFFFFFFFFFFFFFFFFFFFFFFFFFFFFFFFFFFFFFFFF AND PUSH20 0xFFFFFFFFFFFFFFFFFFFFFFFFFFFFFFFFFFFFFFFF AND CALLER PUSH20 0xFFFFFFFFFFFFFFFFFFFFFFFFFFFFFFFFFFFFFFFF AND EQ PUSH2 0x37D JUMPI PUSH1 0x40 MLOAD PUSH32 0x8C379A000000000000000000000000000000000000000000000000000000000 DUP2 MSTORE PUSH1 0x4 ADD PUSH2 0x374 SWAP1 PUSH2 0xB8E JUMP JUMPDEST PUSH1 0x40 MLOAD DUP1 SWAP2 SUB SWAP1 REVERT JUMPDEST PUSH1 0x40 MLOAD DUP1 PUSH1 0x80 ADD PUSH1 0x40 MSTORE DUP1 DUP5 DUP2 MSTORE PUSH1 0x20 ADD DUP4 DUP2 MSTORE PUSH1 0x20 ADD PUSH1 0x1 ISZERO ISZERO DUP2 MSTORE PUSH1 0x20 ADD DUP3 DUP2 MSTORE POP PUSH1 0x1 DUP6 PUSH1 0x40 MLOAD PUSH2 0x3B1 SWAP2 SWAP1 PUSH2 0xA0C JUMP JUMPDEST SWAP1 DUP2 MSTORE PUSH1 0x20 ADD PUSH1 0x40 MLOAD DUP1 SWAP2 SUB SWAP1 KECCAK256 PUSH1 0x0 DUP3 ADD MLOAD DUP2 PUSH1 0x0 ADD SSTORE PUSH1 0x20 DUP3 ADD MLOAD DUP2 PUSH1 0x1 ADD SSTORE PUSH1 0x40 DUP3 ADD MLOAD DUP2 PUSH1 0x2 ADD PUSH1 0x0 PUSH2 0x100 EXP DUP2 SLOAD DUP2 PUSH1 0xFF MUL NOT AND SWAP1 DUP4 ISZERO ISZERO MUL OR SWAP1 SSTORE POP PUSH1 0x60 DUP3 ADD MLOAD DUP2 PUSH1 0x3 ADD SSTORE SWAP1 POP POP POP POP POP POP JUMP JUMPDEST PUSH1 0x0 DUP1 PUSH1 0x1 DUP4 PUSH1 0x40 MLOAD PUSH2 0x419 SWAP2 SWAP1 PUSH2 0xA0C JUMP JUMPDEST SWAP1 DUP2 MSTORE PUSH1 0x20 ADD PUSH1 0x40 MLOAD DUP1 SWAP2 SUB SWAP1 KECCAK256 PUSH1 0x2 ADD PUSH1 0x0 SWAP1 SLOAD SWAP1 PUSH2 0x100 EXP SWAP1 DIV PUSH1 0xFF AND PUSH2 0x477 JUMPI PUSH1 0x40 MLOAD PUSH32 0x8C379A000000000000000000000000000000000000000000000000000000000 DUP2 MSTORE PUSH1 0x4 ADD PUSH2 0x46E SWAP1 PUSH2 0xBFA JUMP JUMPDEST PUSH1 0x40 MLOAD DUP1 SWAP2 SUB SWAP1 REVERT JUMPDEST PUSH1 0x1 DUP4 PUSH1 0x40 MLOAD PUSH2 0x487 SWAP2 SWAP1 PUSH2 0xA0C JUMP JUMPDEST SWAP1 DUP2 MSTORE PUSH1 0x20 ADD PUSH1 0x40 MLOAD DUP1 SWAP2 SUB SWAP1 KECCAK256 PUSH1 0x0 ADD SLOAD PUSH1 0x1 DUP5 PUSH1 0x40 MLOAD PUSH2 0x4A9 SWAP2 SWAP1 PUSH2 0xA0C JUMP JUMPDEST SWAP1 DUP2 MSTORE PUSH1 0x20 ADD PUSH1 0x40 MLOAD DUP1 SWAP2 SUB SWAP1 KECCAK256 PUSH1 0x1 ADD SLOAD SWAP2 POP SWAP2 POP SWAP2 POP SWAP2 JUMP JUMPDEST PUSH1 0x0 PUSH1 0x40 MLOAD SWAP1 POP SWAP1 JUMP JUMPDEST PUSH1 0x0 DUP1 REVERT JUMPDEST PUSH1 0x0 DUP1 REVERT JUMPDEST PUSH1 0x0 DUP1 REVERT JUMPDEST PUSH1 0x0 DUP1 REVERT JUMPDEST PUSH1 0x0 PUSH1 0x1F NOT PUSH1 0x1F DUP4 ADD AND SWAP1 POP SWAP2 SWAP1 POP JUMP JUMPDEST PUSH32 0x4E487B7100000000000000000000000000000000000000000000000000000000 PUSH1 0x0 MSTORE PUSH1 0x41 PUSH1 0x4 MSTORE PUSH1 0x24 PUSH1 0x0 REVERT JUMPDEST PUSH2 0x52B DUP3 PUSH2 0x4E2 JUMP JUMPDEST DUP2 ADD DUP2 DUP2 LT PUSH8 0xFFFFFFFFFFFFFFFF DUP3 GT OR ISZERO PUSH2 0x54A JUMPI PUSH2 0x549 PUSH2 0x4F3 JUMP JUMPDEST JUMPDEST DUP1 PUSH1 0x40 MSTORE POP POP POP JUMP JUMPDEST PUSH1 0x0 PUSH2 0x55D PUSH2 0x4C4 JUMP JUMPDEST SWAP1 POP PUSH2 0x569 DUP3 DUP3 PUSH2 0x522 JUMP JUMPDEST SWAP2 SWAP1 POP JUMP JUMPDEST PUSH1 0x0 PUSH8 0xFFFFFFFFFFFFFFFF DUP3 GT ISZERO PUSH2 0x589 JUMPI PUSH2 0x588 PUSH2 0x4F3 JUMP JUMPDEST JUMPDEST PUSH2 0x592 DUP3 PUSH2 0x4E2 JUMP JUMPDEST SWAP1 POP PUSH1 0x20 DUP2 ADD SWAP1 POP SWAP2 SWAP1 POP JUMP JUMPDEST DUP3 DUP2 DUP4 CALLDATACOPY PUSH1 0x0 DUP4 DUP4 ADD MSTORE POP POP POP JUMP JUMPDEST PUSH1 0x0 PUSH2 0x5C1 PUSH2 0x5BC DUP5 PUSH2 0x56E JUMP JUMPDEST PUSH2 0x553 JUMP JUMPDEST SWAP1 POP DUP3 DUP2 MSTORE PUSH1 0x20 DUP2 ADD DUP5 DUP5 DUP5 ADD GT ISZERO PUSH2 0x5DD JUMPI PUSH2 0x5DC PUSH2 0x4DD JUMP JUMPDEST JUMPDEST PUSH2 0x5E8 DUP5 DUP3 DUP6 PUSH2 0x59F JUMP JUMPDEST POP SWAP4 SWAP3 POP POP POP JUMP JUMPDEST PUSH1 0x0 DUP3 PUSH1 0x1F DUP4 ADD SLT PUSH2 0x605 JUMPI PUSH2 0x604 PUSH2 0x4D8 JUMP JUMPDEST JUMPDEST DUP2 CALLDATALOAD PUSH2 0x615 DUP5 DUP3 PUSH1 0x20 DUP7 ADD PUSH2 0x5AE JUMP JUMPDEST SWAP2 POP POP SWAP3 SWAP2 POP POP JUMP JUMPDEST PUSH1 0x0 PUSH1 0x20 DUP3 DUP5 SUB SLT ISZERO PUSH2 0x634 JUMPI PUSH2 0x633 PUSH2 0x4CE JUMP JUMPDEST JUMPDEST PUSH1 0x0 DUP3 ADD CALLDATALOAD PUSH8 0xFFFFFFFFFFFFFFFF DUP2 GT ISZERO PUSH2 0x652 JUMPI PUSH2 0x651 PUSH2 0x4D3 JUMP JUMPDEST JUMPDEST PUSH2 0x65E DUP5 DUP3 DUP6 ADD PUSH2 0x5F0 JUMP JUMPDEST SWAP2 POP POP SWAP3 SWAP2 POP POP JUMP JUMPDEST PUSH1 0x0 DUP2 SWAP1 POP SWAP2 SWAP1 POP JUMP JUMPDEST PUSH2 0x67A DUP2 PUSH2 0x667 JUMP JUMPDEST DUP3 MSTORE POP POP JUMP JUMPDEST PUSH1 0x0 DUP2 ISZERO ISZERO SWAP1 POP SWAP2 SWAP1 POP JUMP JUMPDEST PUSH2 0x695 DUP2 PUSH2 0x680 JUMP JUMPDEST DUP3 MSTORE POP POP JUMP JUMPDEST PUSH1 0x0 DUP2 SWAP1 POP SWAP2 SWAP1 POP JUMP JUMPDEST PUSH2 0x6AE DUP2 PUSH2 0x69B JUMP JUMPDEST DUP3 MSTORE POP POP JUMP JUMPDEST PUSH1 0x0 PUSH1 0x80 DUP3 ADD SWAP1 POP PUSH2 0x6C9 PUSH1 0x0 DUP4 ADD DUP8 PUSH2 0x671 JUMP JUMPDEST PUSH2 0x6D6 PUSH1 0x20 DUP4 ADD DUP7 PUSH2 0x671 JUMP JUMPDEST PUSH2 0x6E3 PUSH1 0x40 DUP4 ADD DUP6 PUSH2 0x68C JUMP JUMPDEST PUSH2 0x6F0 PUSH1 0x60 DUP4 ADD DUP5 PUSH2 0x6A5 JUMP JUMPDEST SWAP6 SWAP5 POP POP POP POP POP JUMP JUMPDEST PUSH1 0x0 PUSH20 0xFFFFFFFFFFFFFFFFFFFFFFFFFFFFFFFFFFFFFFFF DUP3 AND SWAP1 POP SWAP2 SWAP1 POP JUMP JUMPDEST PUSH1 0x0 PUSH2 0x724 DUP3 PUSH2 0x6F9 JUMP JUMPDEST SWAP1 POP SWAP2 SWAP1 POP JUMP JUMPDEST PUSH2 0x734 DUP2 PUSH2 0x719 JUMP JUMPDEST DUP3 MSTORE POP POP JUMP JUMPDEST PUSH1 0x0 PUSH1 0x20 DUP3 ADD SWAP1 POP PUSH2 0x74F PUSH1 0x0 DUP4 ADD DUP5 PUSH2 0x72B JUMP JUMPDEST SWAP3 SWAP2 POP POP JUMP JUMPDEST PUSH2 0x75E DUP2 PUSH2 0x719 JUMP JUMPDEST DUP2 EQ PUSH2 0x769 JUMPI PUSH1 0x0 DUP1 REVERT JUMPDEST POP JUMP JUMPDEST PUSH1 0x0 DUP2 CALLDATALOAD SWAP1 POP PUSH2 0x77B DUP2 PUSH2 0x755 JUMP JUMPDEST SWAP3 SWAP2 POP POP JUMP JUMPDEST PUSH1 0x0 DUP1 PUSH1 0x40 DUP4 DUP6 SUB SLT ISZERO PUSH2 0x798 JUMPI PUSH2 0x797 PUSH2 0x4CE JUMP JUMPDEST JUMPDEST PUSH1 0x0 DUP4 ADD CALLDATALOAD PUSH8 0xFFFFFFFFFFFFFFFF DUP2 GT ISZERO PUSH2 0x7B6 JUMPI PUSH2 0x7B5 PUSH2 0x4D3 JUMP JUMPDEST JUMPDEST PUSH2 0x7C2 DUP6 DUP3 DUP7 ADD PUSH2 0x5F0 JUMP JUMPDEST SWAP3 POP POP PUSH1 0x20 PUSH2 0x7D3 DUP6 DUP3 DUP7 ADD PUSH2 0x76C JUMP JUMPDEST SWAP2 POP POP SWAP3 POP SWAP3 SWAP1 POP JUMP JUMPDEST PUSH1 0x0 PUSH1 0x20 DUP3 ADD SWAP1 POP PUSH2 0x7F2 PUSH1 0x0 DUP4 ADD DUP5 PUSH2 0x68C JUMP JUMPDEST SWAP3 SWAP2 POP POP JUMP JUMPDEST PUSH2 0x801 DUP2 PUSH2 0x69B JUMP JUMPDEST DUP2 EQ PUSH2 0x80C JUMPI PUSH1 0x0 DUP1 REVERT JUMPDEST POP JUMP JUMPDEST PUSH1 0x0 DUP2 CALLDATALOAD SWAP1 POP PUSH2 0x81E DUP2 PUSH2 0x7F8 JUMP JUMPDEST SWAP3 SWAP2 POP POP JUMP JUMPDEST PUSH1 0x0 DUP1 PUSH1 0x0 DUP1 PUSH1 0x80 DUP6 DUP8 SUB SLT ISZERO PUSH2 0x83E JUMPI PUSH2 0x83D PUSH2 0x4CE JUMP JUMPDEST JUMPDEST PUSH1 0x0 DUP6 ADD CALLDATALOAD PUSH8 0xFFFFFFFFFFFFFFFF DUP2 GT ISZERO PUSH2 0x85C JUMPI PUSH2 0x85B PUSH2 0x4D3 JUMP JUMPDEST JUMPDEST PUSH2 0x868 DUP8 DUP3 DUP9 ADD PUSH2 0x5F0 JUMP JUMPDEST SWAP5 POP POP PUSH1 0x20 PUSH2 0x879 DUP8 DUP3 DUP9 ADD PUSH2 0x80F JUMP JUMPDEST SWAP4 POP POP PUSH1 0x40 PUSH2 0x88A DUP8 DUP3 DUP9 ADD PUSH2 0x76C JUMP JUMPDEST SWAP3 POP POP PUSH1 0x60 DUP6 ADD CALLDATALOAD PUSH8 0xFFFFFFFFFFFFFFFF DUP2 GT ISZERO PUSH2 0x8AB JUMPI PUSH2 0x8AA PUSH2 0x4D3 JUMP JUMPDEST JUMPDEST PUSH2 0x8B7 DUP8 DUP3 DUP9 ADD PUSH2 0x5F0 JUMP JUMPDEST SWAP2 POP POP SWAP3 SWAP6 SWAP2 SWAP5 POP SWAP3 POP JUMP JUMPDEST PUSH2 0x8CC DUP2 PUSH2 0x667 JUMP JUMPDEST DUP2 EQ PUSH2 0x8D7 JUMPI PUSH1 0x0 DUP1 REVERT JUMPDEST POP JUMP JUMPDEST PUSH1 0x0 DUP2 CALLDATALOAD SWAP1 POP PUSH2 0x8E9 DUP2 PUSH2 0x8C3 JUMP JUMPDEST SWAP3 SWAP2 POP POP JUMP JUMPDEST PUSH1 0x0 DUP1 PUSH1 0x0 DUP1 PUSH1 0x80 DUP6 DUP8 SUB SLT ISZERO PUSH2 0x909 JUMPI PUSH2 0x908 PUSH2 0x4CE JUMP JUMPDEST JUMPDEST PUSH1 0x0 DUP6 ADD CALLDATALOAD PUSH8 0xFFFFFFFFFFFFFFFF DUP2 GT ISZERO PUSH2 0x927 JUMPI PUSH2 0x926 PUSH2 0x4D3 JUMP JUMPDEST JUMPDEST PUSH2 0x933 DUP8 DUP3 DUP9 ADD PUSH2 0x5F0 JUMP JUMPDEST SWAP5 POP POP PUSH1 0x20 PUSH2 0x944 DUP8 DUP3 DUP9 ADD PUSH2 0x8DA JUMP JUMPDEST SWAP4 POP POP PUSH1 0x40 PUSH2 0x955 DUP8 DUP3 DUP9 ADD PUSH2 0x8DA JUMP JUMPDEST SWAP3 POP POP PUSH1 0x60 PUSH2 0x966 DUP8 DUP3 DUP9 ADD PUSH2 0x80F JUMP JUMPDEST SWAP2 POP POP SWAP3 SWAP6 SWAP2 SWAP5 POP SWAP3 POP JUMP JUMPDEST PUSH1 0x0 PUSH1 0x40 DUP3 ADD SWAP1 POP PUSH2 0x987 PUSH1 0x0 DUP4 ADD DUP6 PUSH2 0x671 JUMP JUMPDEST PUSH2 0x994 PUSH1 0x20 DUP4 ADD DUP5 PUSH2 0x671 JUMP JUMPDEST SWAP4 SWAP3 POP POP POP JUMP JUMPDEST PUSH1 0x0 DUP2 MLOAD SWAP1 POP SWAP2 SWAP1 POP JUMP JUMPDEST PUSH1 0x0 DUP2 SWAP1 POP SWAP3 SWAP2 POP POP JUMP JUMPDEST PUSH1 0x0 JUMPDEST DUP4 DUP2 LT ISZERO PUSH2 0x9CF JUMPI DUP1 DUP3 ADD MLOAD DUP2 DUP5 ADD MSTORE PUSH1 0x20 DUP2 ADD SWAP1 POP PUSH2 0x9B4 JUMP JUMPDEST PUSH1 0x0 DUP5 DUP5 ADD MSTORE POP POP POP POP JUMP JUMPDEST PUSH1 0x0 PUSH2 0x9E6 DUP3 PUSH2 0x99B JUMP JUMPDEST PUSH2 0x9F0 DUP2 DUP6 PUSH2 0x9A6 JUMP JUMPDEST SWAP4 POP PUSH2 0xA00 DUP2 DUP6 PUSH1 0x20 DUP7 ADD PUSH2 0x9B1 JUMP JUMPDEST DUP1 DUP5 ADD SWAP2 POP POP SWAP3 SWAP2 POP POP JUMP JUMPDEST PUSH1 0x0 PUSH2 0xA18 DUP3 DUP5 PUSH2 0x9DB JUMP JUMPDEST SWAP2 POP DUP2 SWAP1 POP SWAP3 SWAP2 POP POP JUMP JUMPDEST PUSH1 0x0 DUP3 DUP3 MSTORE PUSH1 0x20 DUP3 ADD SWAP1 POP SWAP3 SWAP2 POP POP JUMP JUMPDEST PUSH32 0x5061727479206E6F742072656769737465726564000000000000000000000000 PUSH1 0x0 DUP3 ADD MSTORE POP JUMP JUMPDEST PUSH1 0x0 PUSH2 0xA6A PUSH1 0x14 DUP4 PUSH2 0xA23 JUMP JUMPDEST SWAP2 POP PUSH2 0xA75 DUP3 PUSH2 0xA34 JUMP JUMPDEST PUSH1 0x20 DUP3 ADD SWAP1 POP SWAP2 SWAP1 POP JUMP JUMPDEST PUSH1 0x0 PUSH1 0x20 DUP3 ADD SWAP1 POP DUP2 DUP2 SUB PUSH1 0x0 DUP4 ADD MSTORE PUSH2 0xA99 DUP2 PUSH2 0xA5D JUMP JUMPDEST SWAP1 POP SWAP2 SWAP1 POP JUMP JUMPDEST PUSH1 0x0 DUP2 SWAP1 POP SWAP2 SWAP1 POP JUMP JUMPDEST PUSH2 0xABB PUSH2 0xAB6 DUP3 PUSH2 0x69B JUMP JUMPDEST PUSH2 0xAA0 JUMP JUMPDEST DUP3 MSTORE POP POP JUMP JUMPDEST PUSH1 0x0 DUP2 PUSH1 0x60 SHL SWAP1 POP SWAP2 SWAP1 POP JUMP JUMPDEST PUSH1 0x0 PUSH2 0xAD9 DUP3 PUSH2 0xAC1 JUMP JUMPDEST SWAP1 POP SWAP2 SWAP1 POP JUMP JUMPDEST PUSH1 0x0 PUSH2 0xAEB DUP3 PUSH2 0xACE JUMP JUMPDEST SWAP1 POP SWAP2 SWAP1 POP JUMP JUMPDEST PUSH2 0xB03 PUSH2 0xAFE DUP3 PUSH2 0x719 JUMP JUMPDEST PUSH2 0xAE0 JUMP JUMPDEST DUP3 MSTORE POP POP JUMP JUMPDEST PUSH1 0x0 PUSH2 0xB15 DUP3 DUP7 PUSH2 0xAAA JUMP JUMPDEST PUSH1 0x20 DUP3 ADD SWAP2 POP PUSH2 0xB25 DUP3 DUP6 PUSH2 0x9DB JUMP JUMPDEST SWAP2 POP PUSH2 0xB31 DUP3 DUP5 PUSH2 0xAF2 JUMP JUMPDEST PUSH1 0x14 DUP3 ADD SWAP2 POP DUP2 SWAP1 POP SWAP5 SWAP4 POP POP POP POP JUMP JUMPDEST PUSH32 0x4F6E6C792041646D696E2063616E20617574686F72697A650000000000000000 PUSH1 0x0 DUP3 ADD MSTORE POP JUMP JUMPDEST PUSH1 0x0 PUSH2 0xB78 PUSH1 0x18 DUP4 PUSH2 0xA23 JUMP JUMPDEST SWAP2 POP PUSH2 0xB83 DUP3 PUSH2 0xB42 JUMP JUMPDEST PUSH1 0x20 DUP3 ADD SWAP1 POP SWAP2 SWAP1 POP JUMP JUMPDEST PUSH1 0x0 PUSH1 0x20 DUP3 ADD SWAP1 POP DUP2 DUP2 SUB PUSH1 0x0 DUP4 ADD MSTORE PUSH2 0xBA7 DUP2 PUSH2 0xB6B JUMP JUMPDEST SWAP1 POP SWAP2 SWAP1 POP JUMP JUMPDEST PUSH32 0x506172747920646F6573206E6F74206578697374000000000000000000000000 PUSH1 0x0 DUP3 ADD MSTORE POP JUMP JUMPDEST PUSH1 0x0 PUSH2 0xBE4 PUSH1 0x14 DUP4 PUSH2 0xA23 JUMP JUMPDEST SWAP2 POP PUSH2 0xBEF DUP3 PUSH2 0xBAE JUMP JUMPDEST PUSH1 0x20 DUP3 ADD SWAP1 POP SWAP2 SWAP1 POP JUMP JUMPDEST PUSH1 0x0 PUSH1 0x20 DUP3 ADD SWAP1 POP DUP2 DUP2 SUB PUSH1 0x0 DUP4 ADD MSTORE PUSH2 0xC13 DUP2 PUSH2 0xBD7 JUMP JUMPDEST SWAP1 POP SWAP2 SWAP1 POP JUMP INVALID LOG2 PUSH5 0x6970667358 0x22 SLT KECCAK256 0xA6 0xEF 0xB1 INVALID SWAP16 0x2B SWAP1 0xF DUP9 PUSH9 0x185980FDC3109F19E1 0xC2 CALL 0xA8 0xE2 0xE9 NUMBER PUSH16 0x1B94315315764736F6C634300081800 CALLER "
        },
        "methodIdentifiers": {
          "authorizeParty(string,uint256,uint256,bytes32)": "a4d8bde9",
          "contractAdmin()": "77955245",
          "getAuditConfig(string)": "f25316bf",
          "isAuthorizedPeer(string,address)": "a155fc27",
          "partyConfigs(string)": "302f817b",
          "verifyZkpProof(string,bytes32,address,string)": "a3efce13"
        }
      }
    }
  }
}