{
  "contracts/AuditEvidenceRegistry.sol": {
    "AuditEvidenceRegistry": {
      "abi": [
        {
          "inputs": [
            {
              "internalType": "address",
              "name": "_accessManager",
              "type": "address"
            }
          ],
          "stateMutability": "nonpayable",
          "type": "constructor"
        },
        {
          "anonymous": false,
          "inputs": [
            {
              "indexed": true,
              "internalType": "bytes32",
              "name": "h_chal",
              "type": "bytes32"
            },
            {
              "indexed": false,
              "internalType": "bool",
              "name": "success",
              "type": "bool"
            },
            {
              "indexed": false,
              "internalType": "uint256",
              "name": "timestamp",
              "type": "uint256"
            }
          ],
          "name": "AuditFinalized",
          "type": "event"
        },
        {
          "inputs": [],
          "name": "accessManager",
          "outputs": [
            {
              "internalType": "contract AuditAccessManager",
              "name": "",
              "type": "address"
            }
          ],
          "stateMutability": "view",
          "type": "function"
        },
        {
          "inputs": [
            {
              "internalType": "bytes32",
              "name": "",
              "type": "bytes32"
            }
          ],
          "name": "audits",
          "outputs": [
            {
              "internalType": "string",
              "name": "partyId",
              "type": "string"
            },
            {
              "internalType": "bytes32",
              "name": "smtRoot",
              "type": "bytes32"
            },
            {
              "internalType": "uint256",
              "name": "voteCount",
              "type": "uint256"
            },
            {
              "internalType": "bool",
              "name": "finalized",
              "type": "bool"
            },
            {
              "internalType": "bool",
              "name": "isSuccess",
              "type": "bool"
            }
          ],
          "stateMutability": "view",
          "type": "function"
        },
        {
          "inputs": [
            {
              "internalType": "bytes32",
              "name": "",
              "type": "bytes32"
            },
            {
              "internalType": "address",
              "name": "",
              "type": "address"
            }
          ],
          "name": "hasVoted",
          "outputs": [
            {
              "internalType": "bool",
              "name": "",
              "type": "bool"
            }
          ],
          "stateMutability": "view",
          "type": "function"
        },
        {
          "inputs": [
            {
              "internalType": "bytes32",
              "name": "h_chal",
              "type": "bytes32"
            },
            {
              "internalType": "string",
              "name": "_partyId",
              "type": "string"
            },
            {
              "internalType": "bytes32",
              "name": "_expectedRoot",
              "type": "bytes32"
            }
          ],
          "name": "initializeAudit",
          "outputs": [],
          "stateMutability": "nonpayable",
          "type": "function"
        },
        {
          "inputs": [
            {
              "internalType": "string",
              "name": "partyId",
              "type": "string"
            },
            {
              "internalType": "bytes32",
              "name": "h_chal",
              "type": "bytes32"
            },
            {
              "internalType": "bytes32",
              "name": "_calculatedRoot",
              "type": "bytes32"
            },
            {
              "internalType": "bool",
              "name": "localVerdict",
              "type": "bool"
            },
            {
              "internalType": "bytes32",
              "name": "zkpProof",
              "type": "bytes32"
            },
            {
              "internalType": "string",
              "name": "epoch",
              "type": "string"
            }
          ],
          "name": "submitVote",
          "outputs": [],
          "stateMutability": "nonpayable",
          "type": "function"
        }
      ],
      "evm": {
        "bytecode": {
          "linkReferences": {},
          "object": "60806040523480156200001157600080fd5b5060405162001720380380620017208339818101604052810190620000379190620000e8565b806000806101000a81548173ffffffffffffffffffffffffffffffffffffffff021916908373ffffffffffffffffffffffffffffffffffffffff160217905550506200011a565b600080fd5b600073ffffffffffffffffffffffffffffffffffffffff82169050919050565b6000620000b08262000083565b9050919050565b620000c281620000a3565b8114620000ce57600080fd5b50565b600081519050620000e281620000b7565b92915050565b6000602082840312156200010157620001006200007e565b5b60006200011184828501620000d1565b91505092915050565b6115f6806200012a6000396000f3fe608060405234801561001057600080fd5b50600436106100575760003560e01c80636fc5fb141461005c5780638a0cbdf514610078578063aadc3b7214610094578063eae27f31146100c4578063fdcb6068146100f8575b600080fd5b61007660048036038101906100719190610990565b610116565b005b610092600480360381019061008d9190610a55565b6105b3565b005b6100ae60048036038101906100a99190610b22565b61069d565b6040516100bb9190610b71565b60405180910390f35b6100de60048036038101906100d99190610b8c565b6106cc565b6040516100ef959493929190610c60565b60405180910390f35b6101006107a4565b60405161010d9190610d19565b60405180910390f35b60008060009054906101000a900473ffffffffffffffffffffffffffffffffffffffff1673ffffffffffffffffffffffffffffffffffffffff1663a3efce13888533866040518563ffffffff1660e01b81526004016101789493929190610d43565b602060405180830381865afa158015610195573d6000803e3d6000fd5b505050506040513d601f19601f820116820180604052508101906101b99190610dab565b9050806101fb576040517f08c379a00000000000000000000000000000000000000000000000000000000081526004016101f290610e4a565b60405180910390fd5b6000600160008881526020019081526020016000209050600081600001805461022390610e99565b905003610265576040517f08c379a000000000000000000000000000000000000000000000000000000000815260040161025c90610f16565b60405180910390fd5b87805190602001208160000160405161027e9190610fd9565b6040518091039020146102c6576040517f08c379a00000000000000000000000000000000000000000000000000000000081526004016102bd9061103c565b60405180910390fd5b8060030160009054906101000a900460ff1615610318576040517f08c379a000000000000000000000000000000000000000000000000000000000815260040161030f906110a8565b60405180910390fd5b6002600088815260200190815260200160002060003373ffffffffffffffffffffffffffffffffffffffff1673ffffffffffffffffffffffffffffffffffffffff16815260200190815260200160002060009054906101000a900460ff16156103b6576040517f08c379a00000000000000000000000000000000000000000000000000000000081526004016103ad90611114565b60405180910390fd5b841561041f5780600101548614610402576040517f08c379a00000000000000000000000000000000000000000000000000000000081526004016103f9906111a6565b60405180910390fd5b600181600201600082825461041791906111f5565b925050819055505b60016002600089815260200190815260200160002060003373ffffffffffffffffffffffffffffffffffffffff1673ffffffffffffffffffffffffffffffffffffffff16815260200190815260200160002060006101000a81548160ff02191690831515021790555060008060009054906101000a900473ffffffffffffffffffffffffffffffffffffffff1673ffffffffffffffffffffffffffffffffffffffff1663f25316bf8a6040518263ffffffff1660e01b81526004016104e49190611229565b6040805180830381865afa158015610500573d6000803e3d6000fd5b505050506040513d601f19601f820116820180604052508101906105249190611277565b509050808260020154106105a85760018260030160006101000a81548160ff02191690831515021790555060018260030160016101000a81548160ff021916908315150217905550877ffe78b8703566674bd368644adf481da68d7770bef0f1df81840d5e4a7d6f79c260014260405161059f9291906112b7565b60405180910390a25b505050505050505050565b6000801b60016000858152602001908152602001600020600101541461060e576040517f08c379a00000000000000000000000000000000000000000000000000000000081526004016106059061132c565b60405180910390fd5b8160016000858152602001908152602001600020600001908161063191906114ee565b5080600160008581526020019081526020016000206001018190555060006001600085815260200190815260200160002060030160006101000a81548160ff02191690831515021790555060006001600085815260200190815260200160002060020181905550505050565b60026020528160005260406000206020528060005260406000206000915091509054906101000a900460ff1681565b60016020528060005260406000206000915090508060000180546106ef90610e99565b80601f016020809104026020016040519081016040528092919081815260200182805461071b90610e99565b80156107685780601f1061073d57610100808354040283529160200191610768565b820191906000526020600020905b81548152906001019060200180831161074b57829003601f168201915b5050505050908060010154908060020154908060030160009054906101000a900460ff16908060030160019054906101000a900460ff16905085565b60008054906101000a900473ffffffffffffffffffffffffffffffffffffffff1681565b6000604051905090565b600080fd5b600080fd5b600080fd5b600080fd5b6000601f19601f8301169050919050565b7f4e487b7100000000000000000000000000000000000000000000000000000000600052604160045260246000fd5b61082f826107e6565b810181811067ffffffffffffffff8211171561084e5761084d6107f7565b5b80604052505050565b60006108616107c8565b905061086d8282610826565b919050565b600067ffffffffffffffff82111561088d5761088c6107f7565b5b610896826107e6565b9050602081019050919050565b82818337600083830152505050565b60006108c56108c084610872565b610857565b9050828152602081018484840111156108e1576108e06107e1565b5b6108ec8482856108a3565b509392505050565b600082601f830112610909576109086107dc565b5b81356109198482602086016108b2565b91505092915050565b6000819050919050565b61093581610922565b811461094057600080fd5b50565b6000813590506109528161092c565b92915050565b60008115159050919050565b61096d81610958565b811461097857600080fd5b50565b60008135905061098a81610964565b92915050565b60008060008060008060c087890312156109ad576109ac6107d2565b5b600087013567ffffffffffffffff8111156109cb576109ca6107d7565b5b6109d789828a016108f4565b96505060206109e889828a01610943565b95505060406109f989828a01610943565b9450506060610a0a89828a0161097b565b9350506080610a1b89828a01610943565b92505060a087013567ffffffffffffffff811115610a3c57610a3b6107d7565b5b610a4889828a016108f4565b9150509295509295509295565b600080600060608486031215610a6e57610a6d6107d2565b5b6000610a7c86828701610943565b935050602084013567ffffffffffffffff811115610a9d57610a9c6107d7565b5b610aa9868287016108f4565b9250506040610aba86828701610943565b9150509250925092565b600073ffffffffffffffffffffffffffffffffffffffff82169050919050565b6000610aef82610ac4565b9050919050565b610aff81610ae4565b8114610b0a57600080fd5b50565b600081359050610b1c81610af6565b92915050565b60008060408385031215610b3957610b386107d2565b5b6000610b4785828601610943565b9250506020610b5885828601610b0d565b9150509250929050565b610b6b81610958565b82525050565b6000602082019050610b866000830184610b62565b92915050565b600060208284031215610ba257610ba16107d2565b5b6000610bb084828501610943565b91505092915050565b600081519050919050565b600082825260208201905092915050565b60005b83811015610bf3578082015181840152602081019050610bd8565b60008484015250505050565b6000610c0a82610bb9565b610c148185610bc4565b9350610c24818560208601610bd5565b610c2d816107e6565b840191505092915050565b610c4181610922565b82525050565b6000819050919050565b610c5a81610c47565b82525050565b600060a0820190508181036000830152610c7a8188610bff565b9050610c896020830187610c38565b610c966040830186610c51565b610ca36060830185610b62565b610cb06080830184610b62565b9695505050505050565b6000819050919050565b6000610cdf610cda610cd584610ac4565b610cba565b610ac4565b9050919050565b6000610cf182610cc4565b9050919050565b6000610d0382610ce6565b9050919050565b610d1381610cf8565b82525050565b6000602082019050610d2e6000830184610d0a565b92915050565b610d3d81610ae4565b82525050565b60006080820190508181036000830152610d5d8187610bff565b9050610d6c6020830186610c38565b610d796040830185610d34565b8181036060830152610d8b8184610bff565b905095945050505050565b600081519050610da581610964565b92915050565b600060208284031215610dc157610dc06107d2565b5b6000610dcf84828501610d96565b91505092915050565b7f5a4b502052454a45435445443a20496e76616c6964204964656e74697479205060008201527f726f6f6600000000000000000000000000000000000000000000000000000000602082015250565b6000610e34602483610bc4565b9150610e3f82610dd8565b604082019050919050565b60006020820190508181036000830152610e6381610e27565b9050919050565b7f4e487b7100000000000000000000000000000000000000000000000000000000600052602260045260246000fd5b60006002820490506001821680610eb157607f821691505b602082108103610ec457610ec3610e6a565b5b50919050565b7f4175646974206e6f742079657420616e63686f72656420627920636c6f756400600082015250565b6000610f00601f83610bc4565b9150610f0b82610eca565b602082019050919050565b60006020820190508181036000830152610f2f81610ef3565b9050919050565b600081905092915050565b60008190508160005260206000209050919050565b60008154610f6381610e99565b610f6d8186610f36565b94506001821660008114610f885760018114610f9d57610fd0565b60ff1983168652811515820286019350610fd0565b610fa685610f41565b60005b83811015610fc857815481890152600182019150602081019050610fa9565b838801955050505b50505092915050565b6000610fe58284610f56565b915081905092915050565b7f5061727479206d69736d61746368000000000000000000000000000000000000600082015250565b6000611026600e83610bc4565b915061103182610ff0565b602082019050919050565b6000602082019050818103600083015261105581611019565b9050919050565b7f417564697420616c72656164792066696e697368656400000000000000000000600082015250565b6000611092601683610bc4565b915061109d8261105c565b602082019050919050565b600060208201905081810360008301526110c181611085565b9050919050565b7f5065657220616c726561647920766f7465640000000000000000000000000000600082015250565b60006110fe601283610bc4565b9150611109826110c8565b602082019050919050565b6000602082019050818103600083015261112d816110f1565b9050919050565b7f494e5445475249545920435249544943414c3a20526f6f74206d69736d61746360008201527f6820646574656374656421000000000000000000000000000000000000000000602082015250565b6000611190602b83610bc4565b915061119b82611134565b604082019050919050565b600060208201905081810360008301526111bf81611183565b9050919050565b7f4e487b7100000000000000000000000000000000000000000000000000000000600052601160045260246000fd5b600061120082610c47565b915061120b83610c47565b9250828201905080821115611223576112226111c6565b5b92915050565b600060208201905081810360008301526112438184610bff565b905092915050565b61125481610c47565b811461125f57600080fd5b50565b6000815190506112718161124b565b92915050565b6000806040838503121561128e5761128d6107d2565b5b600061129c85828601611262565b92505060206112ad85828601611262565b9150509250929050565b60006040820190506112cc6000830185610b62565b6112d96020830184610c51565b9392505050565b7f417564697420616c726561647920616e63686f72656400000000000000000000600082015250565b6000611316601683610bc4565b9150611321826112e0565b602082019050919050565b6000602082019050818103600083015261134581611309565b9050919050565b60008190508160005260206000209050919050565b60006020601f8301049050919050565b600082821b905092915050565b6000600883026113ae7fffffffffffffffffffffffffffffffffffffffffffffffffffffffffffffffff82611371565b6113b88683611371565b95508019841693508086168417925050509392505050565b60006113eb6113e66113e184610c47565b610cba565b610c47565b9050919050565b6000819050919050565b611405836113d0565b611419611411826113f2565b84845461137e565b825550505050565b600090565b61142e611421565b6114398184846113fc565b505050565b5b8181101561145d57611452600082611426565b60018101905061143f565b5050565b601f8211156114a2576114738161134c565b61147c84611361565b8101602085101561148b578190505b61149f61149785611361565b83018261143e565b50505b505050565b600082821c905092915050565b60006114c5600019846008026114a7565b1980831691505092915050565b60006114de83836114b4565b9150826002028217905092915050565b6114f782610bb9565b67ffffffffffffffff8111156115105761150f6107f7565b5b61151a8254610e99565b611525828285611461565b600060209050601f8311600181146115585760008415611546578287015190505b61155085826114d2565b8655506115b8565b601f1984166115668661134c565b60005b8281101561158e57848901518255600182019150602085019450602081019050611569565b868310156115ab57848901516115a7601f8916826114b4565b8355505b6001600288020188555050505b50505050505056fea2646970667358221220d78ebc995744a875aa9174e0614d8bd6057a961ff504a4013e2985e1dbb771ce64736f6c63430008180033",
          "opcodes": "PUSH1 0x80 PUSH1 0x40 MSTORE CALLVALUE DUP1 ISZERO PUSH3 0x11 JUMPI PUSH1 0x0 DUP1 REVERT JUMPDEST POP PUSH1 0x40 MLOAD PUSH3 0x1720 CODESIZE SUB DUP1 PUSH3 0x1720 DUP4 CODECOPY DUP2 DUP2 ADD PUSH1 0x40 MSTORE DUP2 ADD SWAP1 PUSH3 0x37 SWAP2 SWAP1 PUSH3 0xE8 JUMP JUMPDEST DUP1 PUSH1 0x0 DUP1 PUSH2 0x100 EXP DUP2 SLOAD DUP2 PUSH20 0xFFFFFFFFFFFFFFFFFFFFFFFFFFFFFFFFFFFFFFFF MUL NOT AND SWAP1 DUP4 PUSH20 0xFFFFFFFFFFFFFFFFFFFFFFFFFFFFFFFFFFFFFFFF AND MUL OR SWAP1 SSTORE POP POP PUSH3 0x11A JUMP JUMPDEST PUSH1 0x0 DUP1 REVERT JUMPDEST PUSH1 0x0 PUSH20 0xFFFFFFFFFFFFFFFFFFFFFFFFFFFFFFFFFFFFFFFF DUP3 AND SWAP1 POP SWAP2 SWAP1 POP JUMP JUMPDEST PUSH1 0x0 PUSH3 0xB0 DUP3 PUSH3 0x83 JUMP JUMPDEST SWAP1 POP SWAP2 SWAP1 POP JUMP JUMPDEST PUSH3 0xC2 DUP2 PUSH3 0xA3 JUMP JUMPDEST DUP2 EQ PUSH3 0xCE JUMPI PUSH1 0x0 DUP1 REVERT JUMPDEST POP JUMP JUMPDEST PUSH1 0x0 DUP2 MLOAD SWAP1 POP PUSH3 0xE2 DUP2 PUSH3 0xB7 JUMP JUMPDEST SWAP3 SWAP2 POP POP JUMP JUMPDEST PUSH1 0x0 PUSH1 0x20 DUP3 DUP5 SUB SLT ISZERO PUSH3 0x101 JUMPI PUSH3 0x100 PUSH3 0x7E JUMP JUMPDEST JUMPDEST PUSH1 0x0 PUSH3 0x111 DUP5 DUP3 DUP6 ADD PUSH3 0xD1 JUMP JUMPDEST SWAP2 POP POP SWAP3 SWAP2 POP POP JUMP JUMPDEST PUSH2 0x15F6 DUP1 PUSH3 0x12A PUSH1 0x0 CODECOPY PUSH1 0x0 RETURN INVALID PUSH1 0x80 PUSH1 0x40 MSTORE CALLVALUE DUP1 ISZERO PUSH2 0x10 JUMPI PUSH1 0x0 DUP1 REVERT JUMPDEST POP PUSH1 0x4 CALLDATASIZE LT PUSH2 0x57 JUMPI PUSH1 0x0 CALLDATALOAD PUSH1 0xE0 SHR DUP1 PUSH4 0x6FC5FB14 EQ PUSH2 0x5C JUMPI DUP1 PUSH4 0x8A0CBDF5 EQ PUSH2 0x78 JUMPI DUP1 PUSH4 0xAADC3B72 EQ PUSH2 0x94 JUMPI DUP1 PUSH4 0xEAE27F31 EQ PUSH2 0xC4 JUMPI DUP1 PUSH4 0xFDCB6068 EQ PUSH2 0xF8 JUMPI JUMPDEST PUSH1 0x0 DUP1 REVERT JUMPDEST PUSH2 0x76 PUSH1 0x4 DUP1 CALLDATASIZE SUB DUP2 ADD SWAP1 PUSH2 0x71 SWAP2 SWAP1 PUSH2 0x990 JUMP JUMPDEST PUSH2 0x116 JUMP JUMPDEST STOP JUMPDEST PUSH2 0x92 PUSH1 0x4 DUP1 CALLDATASIZE SUB DUP2 ADD SWAP1 PUSH2 0x8D SWAP2 SWAP1 PUSH2 0xA55 JUMP JUMPDEST PUSH2 0x5B3 JUMP JUMPDEST STOP JUMPDEST PUSH2 0xAE PUSH1 0x4 DUP1 CALLDATASIZE SUB DUP2 ADD SWAP1 PUSH2 0xA9 SWAP2 SWAP1 PUSH2 0xB22 JUMP JUMPDEST PUSH2 0x69D JUMP JUMPDEST PUSH1 0x40 MLOAD PUSH2 0xBB SWAP2 SWAP1 PUSH2 0xB71 JUMP JUMPDEST PUSH1 0x40 MLOAD DUP1 SWAP2 SUB SWAP1 RETURN JUMPDEST PUSH2 0xDE PUSH1 0x4 DUP1 CALLDATASIZE SUB DUP2 ADD SWAP1 PUSH2 0xD9 SWAP2 SWAP1 PUSH2 0xB8C JUMP JUMPDEST PUSH2 0x6CC JUMP JUMPDEST PUSH1 0x40 MLOAD PUSH2 0xEF SWAP6 SWAP5 SWAP4 SWAP3 SWAP2 SWAP1 PUSH2 0xC60 JUMP JUMPDEST PUSH1 0x40 MLOAD DUP1 SWAP2 SUB SWAP1 RETURN JUMPDEST PUSH2 0x100 PUSH2 0x7A4 JUMP JUMPDEST PUSH1 0x40 MLOAD PUSH2 0x10D SWAP2 SWAP1 PUSH2 0xD19 JUMP JUMPDEST PUSH1 0x40 MLOAD DUP1 SWAP2 SUB SWAP1 RETURN JUMPDEST PUSH1 0x0 DUP1 PUSH1 0x0 SWAP1 SLOAD SWAP1 PUSH2 0x100 EXP SWAP1 DIV PUSH20 0xFFFFFFFFFFFFFFFFFFFFFFFFFFFFFFFFFFFFFFFF AND PUSH20 0xFFFFFFFFFFFFFFFFFFFFFFFFFFFFFFFFFFFFFFFF AND PUSH4 0xA3EFCE13 DUP9 DUP6 CALLER DUP7 PUSH1 0x40 MLOAD DUP6 PUSH4 0xFFFFFFFF AND PUSH1 0xE0 SHL DUP2 MSTORE PUSH1 0x4 ADD PUSH2 0x178 SWAP5 SWAP4 SWAP3 SWAP2 SWAP1 PUSH2 0xD43 JUMP JUMPDEST PUSH1 0x20 PUSH1 0x40 MLOAD DUP1 DUP4 SUB DUP2 DUP7 GAS STATICCALL ISZERO DUP1 ISZERO PUSH2 0x195 JUMPI RETURNDATASIZE PUSH1 0x0 DUP1 RETURNDATACOPY RETURNDATASIZE PUSH1 0x0 REVERT JUMPDEST POP POP POP POP PUSH1 0x40 MLOAD RETURNDATASIZE PUSH1 0x1F NOT PUSH1 0x1F DUP3 ADD AND DUP3 ADD DUP1 PUSH1 0x40 MSTORE POP DUP2 ADD SWAP1 PUSH2 0x1B9 SWAP2 SWAP1 PUSH2 0xDAB JUMP JUMPDEST SWAP1 POP DUP1 PUSH2 0x1FB JUMPI PUSH1 0x40 MLOAD PUSH32 0x8C379A000000000000000000000000000000000000000000000000000000000 DUP2 MSTORE PUSH1 0x4 ADD PUSH2 0x1F2 SWAP1 PUSH2 0xE4A JUMP JUMPDEST PUSH1 0x40 MLOAD DUP1 SWAP2 SUB SWAP1 REVERT JUMPDEST PUSH1 0x0 PUSH1 0x1 PUSH1 0x0 DUP9 DUP2 MSTORE PUSH1 0x20 ADD SWAP1 DUP2 MSTORE PUSH1 0x20 ADD PUSH1 0x0 KECCAK256 SWAP1 POP PUSH1 0x0 DUP2 PUSH1 0x0 ADD DUP1 SLOAD PUSH2 0x223 SWAP1 PUSH2 0xE99 JUMP JUMPDEST SWAP1 POP SUB PUSH2 0x265 JUMPI PUSH1 0x40 MLOAD PUSH32 0x8C379A000000000000000000000000000000000000000000000000000000000 DUP2 MSTORE PUSH1 0x4 ADD PUSH2 0x25C SWAP1 PUSH2 0xF16 JUMP JUMPDEST PUSH1 0x40 MLOAD DUP1 SWAP2 SUB SWAP1 REVERT JUMPDEST DUP8 DUP1 MLOAD SWAP1 PUSH1 0x20 ADD KECCAK256 DUP2 PUSH1 0x0 ADD PUSH1 0x40 MLOAD PUSH2 0x27E SWAP2 SWAP1 PUSH2 0xFD9 JUMP JUMPDEST PUSH1 0x40 MLOAD DUP1 SWAP2 SUB SWAP1 KECCAK256 EQ PUSH2 0x2C6 JUMPI PUSH1 0x40 MLOAD PUSH32 0x8C379A000000000000000000000000000000000000000000000000000000000 DUP2 MSTORE PUSH1 0x4 ADD PUSH2 0x2BD SWAP1 PUSH2 0x103C JUMP JUMPDEST PUSH1 0x40 MLOAD DUP1 SWAP2 SUB SWAP1 REVERT JUMPDEST DUP1 PUSH1 0x3 ADD PUSH1 0x0 SWAP1 SLOAD SWAP1 PUSH2 0x100 EXP SWAP1 DIV PUSH1 0xFF AND ISZERO PUSH2 0x318 JUMPI PUSH1 0x40 MLOAD PUSH32 0x8C379A000000000000000000000000000000000000000000000000000000000 DUP2 MSTORE PUSH1 0x4 ADD PUSH2 0x30F SWAP1 PUSH2 0x10A8 JUMP JUMPDEST PUSH1 0x40 MLOAD DUP1 SWAP2 SUB SWAP1 REVERT JUMPDEST PUSH1 0x2 PUSH1 0x0 DUP9 DUP2 MSTORE PUSH1 0x20 ADD SWAP1 DUP2 MSTORE PUSH1 0x20 ADD PUSH1 0x0 KECCAK256 PUSH1 0x0 CALLER PUSH20 0xFFFFFFFFFFFFFFFFFFFFFFFFFFFFFFFFFFFFFFFF AND PUSH20 0xFFFFFFFFFFFFFFFFFFFFFFFFFFFFFFFFFFFFFFFF AND DUP2 MSTORE PUSH1 0x20 ADD SWAP1 DUP2 MSTORE PUSH1 0x20 ADD PUSH1 0x0 KECCAK256 PUSH1 0x0 SWAP1 SLOAD SWAP1 PUSH2 0x100 EXP SWAP1 DIV PUSH1 0xFF AND ISZERO PUSH2 0x3B6 JUMPI PUSH1 0x40 MLOAD PUSH32 0x8C379A000000000000000000000000000000000000000000000000000000000 DUP2 MSTORE PUSH1 0x4 ADD PUSH2 0x3AD SWAP1 PUSH2 0x1114 JUMP JUMPDEST PUSH1 0x40 MLOAD DUP1 SWAP2 SUB SWAP1 REVERT JUMPDEST DUP5 ISZERO PUSH2 0x41F JUMPI DUP1 PUSH1 0x1 ADD SLOAD DUP7 EQ PUSH2 0x402 JUMPI PUSH1 0x40 MLOAD PUSH32 0x8C379A000000000000000000000000000000000000000000000000000000000 DUP2 MSTORE PUSH1 0x4 ADD PUSH2 0x3F9 SWAP1 PUSH2 0x11A6 JUMP JUMPDEST PUSH1 0x40 MLOAD DUP1 SWAP2 SUB SWAP1 REVERT JUMPDEST PUSH1 0x1 DUP2 PUSH1 0x2 ADD PUSH1 0x0 DUP3 DUP3 SLOAD PUSH2 0x417 SWAP2 SWAP1 PUSH2 0x11F5 JUMP JUMPDEST SWAP3 POP POP DUP2 SWAP1 SSTORE POP JUMPDEST PUSH1 0x1 PUSH1 0x2 PUSH1 0x0 DUP10 DUP2 MSTORE PUSH1 0x20 ADD SWAP1 DUP2 MSTORE PUSH1 0x20 ADD PUSH1 0x0 KECCAK256 PUSH1 0x0 CALLER PUSH20 0xFFFFFFFFFFFFFFFFFFFFFFFFFFFFFFFFFFFFFFFF AND PUSH20 0xFFFFFFFFFFFFFFFFFFFFFFFFFFFFFFFFFFFFFFFF AND DUP2 MSTORE PUSH1 0x20 ADD SWAP1 DUP2 MSTORE PUSH1 0x20 ADD PUSH1 0x0 KECCAK256 PUSH1 0x0 PUSH2 0x100 EXP DUP2 SLOAD DUP2 PUSH1 0xFF MUL NOT AND SWAP1 DUP4 ISZERO ISZERO MUL OR SWAP1 SSTORE POP PUSH1 0x0 DUP1 PUSH1 0x0 SWAP1 SLOAD SWAP1 PUSH2 0x100 EXP SWAP1 DIV PUSH20 0xFFFFFFFFFFFFFFFFFFFFFFFFFFFFFFFFFFFFFFFF AND PUSH20 0xFFFFFFFFFFFFFFFFFFFFFFFFFFFFFFFFFFFFFFFF AND PUSH4 0xF25316BF DUP11 PUSH1 0x40 MLOAD DUP3 PUSH4 0xFFFFFFFF AND PUSH1 0xE0 SHL DUP2 MSTORE PUSH1 0x4 ADD PUSH2 0x4E4 SWAP2 SWAP1 PUSH2 0x1229 JUMP JUMPDEST PUSH1 0x40 DUP1 MLOAD DUP1 DUP4 SUB DUP2 DUP7 GAS STATICCALL ISZERO DUP1 ISZERO PUSH2 0x500 JUMPI RETURNDATASIZE PUSH1 0x0 DUP1 RETURNDATACOPY RETURNDATASIZE PUSH1 0x0 REVERT JUMPDEST POP POP POP POP PUSH1 0x40 MLOAD RETURNDATASIZE PUSH1 0x1F NOT PUSH1 0x1F DUP3 ADD AND DUP3 ADD DUP1 PUSH1 0x40 MSTORE POP DUP2 ADD SWAP1 PUSH2 0x524 SWAP2 SWAP1 PUSH2 0x1277 JUMP JUMPDEST POP SWAP1 POP DUP1 DUP3 PUSH1 0x2 ADD SLOAD LT PUSH2 0x5A8 JUMPI PUSH1 0x1 DUP3 PUSH1 0x3 ADD PUSH1 0x0 PUSH2 0x100 EXP DUP2 SLOAD DUP2 PUSH1 0xFF MUL NOT AND SWAP1 DUP4 ISZERO ISZERO MUL OR SWAP1 SSTORE POP PUSH1 0x1 DUP3 PUSH1 0x3 ADD PUSH1 0x1 PUSH2 0x100 EXP DUP2 SLOAD DUP2 PUSH1 0xFF MUL NOT AND SWAP1 DUP4 ISZERO ISZERO MUL OR SWAP1 SSTORE POP DUP8 PUSH32 0xFE78B8703566674BD368644ADF481DA68D7770BEF0F1DF81840D5E4A7D6F79C2 PUSH1 0x1 TIMESTAMP PUSH1 0x40 MLOAD PUSH2 0x59F SWAP3 SWAP2 SWAP1 PUSH2 0x12B7 JUMP JUMPDEST PUSH1 0x40 MLOAD DUP1 SWAP2 SUB SWAP1 LOG2 JUMPDEST POP POP POP POP POP POP POP POP POP JUMP JUMPDEST PUSH1 0x0 DUP1 SHL PUSH1 0x1 PUSH1 0x0 DUP6 DUP2 MSTORE PUSH1 0x20 ADD SWAP1 DUP2 MSTORE PUSH1 0x20 ADD PUSH1 0x0 KECCAK256 PUSH1 0x1 ADD SLOAD EQ PUSH2 0x60E JUMPI PUSH1 0x40 MLOAD PUSH32 0x8C379A000000000000000000000000000000000000000000000000000000000 DUP2 MSTORE PUSH1 0x4 ADD PUSH2 0x605 SWAP1 PUSH2 0x132C JUMP JUMPDEST PUSH1 0x40 MLOAD DUP1 SWAP2 SUB SWAP1 REVERT JUMPDEST DUP2 PUSH1 0x1 PUSH1 0x0 DUP6 DUP2 MSTORE PUSH1 0x20 ADD SWAP1 DUP2 MSTORE PUSH1 0x20 ADD PUSH1 0x0 KECCAK256 PUSH1 0x0 ADD SWAP1 DUP2 PUSH2 0x631 SWAP2 SWAP1 PUSH2 0x14EE JUMP JUMPDEST POP DUP1 PUSH1 0x1 PUSH1 0x0 DUP6 DUP2 MSTORE PUSH1 0x20 ADD SWAP1 DUP2 MSTORE PUSH1 0x20 ADD PUSH1 0x0 KECCAK256 PUSH1 0x1 ADD DUP2 SWAP1 SSTORE POP PUSH1 0x0 PUSH1 0x1 PUSH1 0x0 DUP6 DUP2 MSTORE PUSH1 0x20 ADD SWAP1 DUP2 MSTORE PUSH1 0x20 ADD PUSH1 0x0 KECCAK256 PUSH1 0x3 ADD PUSH1 0x0 PUSH2 0x100 EXP DUP2 SLOAD DUP2 PUSH1 0xFF MUL NOT AND SWAP1 DUP4 ISZERO ISZERO MUL OR SWAP1 SSTORE POP PUSH1 0x0 PUSH1 0x1 PUSH1 0x0 DUP6 DUP2 MSTORE PUSH1 0x20 ADD SWAP1 DUP2 MSTORE PUSH1 0x20 ADD PUSH1 0x0 KECCAK256 PUSH1 0x2 ADD DUP2 SWAP1 SSTORE POP POP POP POP JUMP JUMPDEST PUSH1 0x2 PUSH1 0x20 MSTORE DUP2 PUSH1 0x0 MSTORE PUSH1 0x40 PUSH1 0x0 KECCAK256 PUSH1 0x20 MSTORE DUP1 PUSH1 0x0 MSTORE PUSH1 0x40 PUSH1 0x0 KECCAK256 PUSH1 0x0 SWAP2 POP SWAP2 POP SWAP1 SLOAD SWAP1 PUSH2 0x100 EXP SWAP1 DIV PUSH1 0xFF AND DUP2 JUMP JUMPDEST PUSH1 0x1 PUSH1 0x20 MSTORE DUP1 PUSH1 0x0 MSTORE PUSH1 0x40 PUSH1 0x0 KECCAK256 PUSH1 0x0 SWAP2 POP SWAP1 POP DUP1 PUSH1 0x0 ADD DUP1 SLOAD PUSH2 0x6EF SWAP1 PUSH2 0xE99 JUMP JUMPDEST DUP1 PUSH1 0x1F ADD PUSH1 0x20 DUP1 SWAP2 DIV MUL PUSH1 0x20 ADD PUSH1 0x40 MLOAD SWAP1 DUP2 ADD PUSH1 0x40 MSTORE DUP1 SWAP3 SWAP2 SWAP1 DUP2 DUP2 MSTORE PUSH1 0x20 ADD DUP3 DUP1 SLOAD PUSH2 0x71B SWAP1 PUSH2 0xE99 JUMP JUMPDEST DUP1 ISZERO PUSH2 0x768 JUMPI DUP1 PUSH1 0x1F LT PUSH2 0x73D JUMPI PUSH2 0x100 DUP1 DUP4 SLOAD DIV MUL DUP4 MSTORE SWAP2 PUSH1 0x20 ADD SWAP2 PUSH2 0x768 JUMP JUMPDEST DUP3 ADD SWAP2 SWAP1 PUSH1 0x0 MSTORE PUSH1 0x20 PUSH1 0x0 KECCAK256 SWAP1 JUMPDEST DUP2 SLOAD DUP2 MSTORE SWAP1 PUSH1 0x1 ADD SWAP1 PUSH1 0x20 ADD DUP1 DUP4 GT PUSH2 0x74B JUMPI DUP3 SWAP1 SUB PUSH1 0x1F AND DUP3 ADD SWAP2 JUMPDEST POP POP POP POP POP SWAP1 DUP1 PUSH1 0x1 ADD SLOAD SWAP1 DUP1 PUSH1 0x2 ADD SLOAD SWAP1 DUP1 PUSH1 0x3 ADD PUSH1 0x0 SWAP1 SLOAD SWAP1 PUSH2 0x100 EXP SWAP1 DIV PUSH1 0xFF AND SWAP1 DUP1 PUSH1 0x3 ADD PUSH1 0x1 SWAP1 SLOAD SWAP1 PUSH2 0x100 EXP SWAP1 DIV PUSH1 0xFF AND SWAP1 POP DUP6 JUMP JUMPDEST PUSH1 0x0 DUP1 SLOAD SWAP1 PUSH2 0x100 EXP SWAP1 DIV PUSH20 0xFFFFFFFFFFFFFFFFFFFFFFFFFFFFFFFFFFFFFFFF AND DUP2 JUMP JUMPDEST PUSH1 0x0 PUSH1 0x40 MLOAD SWAP1 POP SWAP1 JUMP JUMPDEST PUSH1 0x0 DUP1 REVERT JUMPDEST PUSH1 0x0 DUP1 REVERT JUMPDEST PUSH1 0x0 DUP1 REVERT JUMPDEST PUSH1 0x0 DUP1 REVERT JUMPDEST PUSH1 0x0 PUSH1 0x1F NOT PUSH1 0x1F DUP4 ADD AND SWAP1 POP SWAP2 SWAP1 POP JUMP JUMPDEST PUSH32 0x4E487B7100000000000000000000000000000000000000000000000000000000 PUSH1 0x0 MSTORE PUSH1 0x41 PUSH1 0x4 MSTORE PUSH1 0x24 PUSH1 0x0 REVERT JUMPDEST PUSH2 0x82F DUP3 PUSH2 0x7E6 JUMP JUMPDEST DUP2 ADD DUP2 DUP2 LT PUSH8 0xFFFFFFFFFFFFFFFF DUP3 GT OR ISZERO PUSH2 0x84E JUMPI PUSH2 0x84D PUSH2 0x7F7 JUMP JUMPDEST JUMPDEST DUP1 PUSH1 0x40 MSTORE POP POP POP JUMP JUMPDEST PUSH1 0x0 PUSH2 0x861 PUSH2 0x7C8 JUMP JUMPDEST SWAP1 POP PUSH2 0x86D DUP3 DUP3 PUSH2 0x826 JUMP JUMPDEST SWAP2 SWAP1 POP JUMP JUMPDEST PUSH1 0x0 PUSH8 0xFFFFFFFFFFFFFFFF DUP3 GT ISZERO PUSH2 0x88D JUMPI PUSH2 0x88C PUSH2 0x7F7 JUMP JUMPDEST JUMPDEST PUSH2 0x896 DUP3 PUSH2 0x7E6 JUMP JUMPDEST SWAP1 POP PUSH1 0x20 DUP2 ADD SWAP1 POP SWAP2 SWAP1 POP JUMP JUMPDEST DUP3 DUP2 DUP4 CALLDATACOPY PUSH1 0x0 DUP4 DUP4 ADD MSTORE POP POP POP JUMP JUMPDEST PUSH1 0x0 PUSH2 0x8C5 PUSH2 0x8C0 DUP5 PUSH2 0x872 JUMP JUMPDEST PUSH2 0x857 JUMP JUMPDEST SWAP1 POP DUP3 DUP2 MSTORE PUSH1 0x20 DUP2 ADD DUP5 DUP5 DUP5 ADD GT ISZERO PUSH2 0x8E1 JUMPI PUSH2 0x8E0 PUSH2 0x7E1 JUMP JUMPDEST JUMPDEST PUSH2 0x8EC DUP5 DUP3 DUP6 PUSH2 0x8A3 JUMP JUMPDEST POP SWAP4 SWAP3 POP POP POP JUMP JUMPDEST PUSH1 0x0 DUP3 PUSH1 0x1F DUP4 ADD SLT PUSH2 0x909 JUMPI PUSH2 0x908 PUSH2 0x7DC JUMP JUMPDEST JUMPDEST DUP2 CALLDATALOAD PUSH2 0x919 DUP5 DUP3 PUSH1 0x20 DUP7 ADD PUSH2 0x8B2 JUMP JUMPDEST SWAP2 POP POP SWAP3 SWAP2 POP POP JUMP JUMPDEST PUSH1 0x0 DUP2 SWAP1 POP SWAP2 SWAP1 POP JUMP JUMPDEST PUSH2 0x935 DUP2 PUSH2 0x922 JUMP JUMPDEST DUP2 EQ PUSH2 0x940 JUMPI PUSH1 0x0 DUP1 REVERT JUMPDEST POP JUMP JUMPDEST PUSH1 0x0 DUP2 CALLDATALOAD SWAP1 POP PUSH2 0x952 DUP2 PUSH2 0x92C JUMP JUMPDEST SWAP3 SWAP2 POP POP JUMP JUMPDEST PUSH1 0x0 DUP2 ISZERO ISZERO SWAP1 POP SWAP2 SWAP1 POP JUMP JUMPDEST PUSH2 0x96D DUP2 PUSH2 0x958 JUMP JUMPDEST DUP2 EQ PUSH2 0x978 JUMPI PUSH1 0x0 DUP1 REVERT JUMPDEST POP JUMP JUMPDEST PUSH1 0x0 DUP2 CALLDATALOAD SWAP1 POP PUSH2 0x98A DUP2 PUSH2 0x964 JUMP JUMPDEST SWAP3 SWAP2 POP POP JUMP JUMPDEST PUSH1 0x0 DUP1 PUSH1 0x0 DUP1 PUSH1 0x0 DUP1 PUSH1 0xC0 DUP8 DUP10 SUB SLT ISZERO PUSH2 0x9AD JUMPI PUSH2 0x9AC PUSH2 0x7D2 JUMP JUMPDEST JUMPDEST PUSH1 0x0 DUP8 ADD CALLDATALOAD PUSH8 0xFFFFFFFFFFFFFFFF DUP2 GT ISZERO PUSH2 0x9CB JUMPI PUSH2 0x9CA PUSH2 0x7D7 JUMP JUMPDEST JUMPDEST PUSH2 0x9D7 DUP10 DUP3 DUP11 ADD PUSH2 0x8F4 JUMP JUMPDEST SWAP7 POP POP PUSH1 0x20 PUSH2 0x9E8 DUP10 DUP3 DUP11 ADD PUSH2 0x943 JUMP JUMPDEST SWAP6 POP POP PUSH1 0x40 PUSH2 0x9F9 DUP10 DUP3 DUP11 ADD PUSH2 0x943 JUMP JUMPDEST SWAP5 POP POP PUSH1 0x60 PUSH2 0xA0A DUP10 DUP3 DUP11 ADD PUSH2 0x97B JUMP JUMPDEST SWAP4 POP POP PUSH1 0x80 PUSH2 0xA1B DUP10 DUP3 DUP11 ADD PUSH2 0x943 JUMP JUMPDEST SWAP3 POP POP PUSH1 0xA0 DUP8 ADD CALLDATALOAD PUSH8 0xFFFFFFFFFFFFFFFF DUP2 GT ISZERO PUSH2 0xA3C JUMPI PUSH2 0xA3B PUSH2 0x7D7 JUMP JUMPDEST JUMPDEST PUSH2 0xA48 DUP10 DUP3 DUP11 ADD PUSH2 0x8F4 JUMP JUMPDEST SWAP2 POP POP SWAP3 SWAP6 POP SWAP3 SWAP6 POP SWAP3 SWAP6 JUMP JUMPDEST PUSH1 0x0 DUP1 PUSH1 0x0 PUSH1 0x60 DUP5 DUP7 SUB SLT ISZERO PUSH2 0xA6E JUMPI PUSH2 0xA6D PUSH2 0x7D2 JUMP JUMPDEST JUMPDEST PUSH1 0x0 PUSH2 0xA7C DUP7 DUP3 DUP8 ADD PUSH2 0x943 JUMP JUMPDEST SWAP4 POP POP PUSH1 0x20 DUP5 ADD CALLDATALOAD PUSH8 0xFFFFFFFFFFFFFFFF DUP2 GT ISZERO PUSH2 0xA9D JUMPI PUSH2 0xA9C PUSH2 0x7D7 JUMP JUMPDEST JUMPDEST PUSH2 0xAA9 DUP7 DUP3 DUP8 ADD PUSH2 0x8F4 JUMP JUMPDEST SWAP3 POP POP PUSH1 0x40 PUSH2 0xABA DUP7 DUP3 DUP8 ADD PUSH2 0x943 JUMP JUMPDEST SWAP2 POP POP SWAP3 POP SWAP3 POP SWAP3 JUMP JUMPDEST PUSH1 0x0 PUSH20 0xFFFFFFFFFFFFFFFFFFFFFFFFFFFFFFFFFFFFFFFF DUP3 AND SWAP1 POP SWAP2 SWAP1 POP JUMP JUMPDEST PUSH1 0x0 PUSH2 0xAEF DUP3 PUSH2 0xAC4 JUMP JUMPDEST SWAP1 POP SWAP2 SWAP1 POP JUMP JUMPDEST PUSH2 0xAFF DUP2 PUSH2 0xAE4 JUMP JUMPDEST DUP2 EQ PUSH2 0xB0A JUMPI PUSH1 0x0 DUP1 REVERT JUMPDEST POP JUMP JUMPDEST PUSH1 0x0 DUP2 CALLDATALOAD SWAP1 POP PUSH2 0xB1C DUP2 PUSH2 0xAF6 JUMP JUMPDEST SWAP3 SWAP2 POP POP JUMP JUMPDEST PUSH1 0x0 DUP1 PUSH1 0x40 DUP4 DUP6 SUB SLT ISZERO PUSH2 0xB39 JUMPI PUSH2 0xB38 PUSH2 0x7D2 JUMP JUMPDEST JUMPDEST PUSH1 0x0 PUSH2 0xB47 DUP6 DUP3 DUP7 ADD PUSH2 0x943 JUMP JUMPDEST SWAP3 POP POP PUSH1 0x20 PUSH2 0xB58 DUP6 DUP3 DUP7 ADD PUSH2 0xB0D JUMP JUMPDEST SWAP2 POP POP SWAP3 POP SWAP3 SWAP1 POP JUMP JUMPDEST PUSH2 0xB6B DUP2 PUSH2 0x958 JUMP JUMPDEST DUP3 MSTORE POP POP JUMP JUMPDEST PUSH1 0x0 PUSH1 0x20 DUP3 ADD SWAP1 POP PUSH2 0xB86 PUSH1 0x0 DUP4 ADD DUP5 PUSH2 0xB62 JUMP JUMPDEST SWAP3 SWAP2 POP POP JUMP JUMPDEST PUSH1 0x0 PUSH1 0x20 DUP3 DUP5 SUB SLT ISZERO PUSH2 0xBA2 JUMPI PUSH2 0xBA1 PUSH2 0x7D2 JUMP JUMPDEST JUMPDEST PUSH1 0x0 PUSH2 0xBB0 DUP5 DUP3 DUP6 ADD PUSH2 0x943 JUMP JUMPDEST SWAP2 POP POP SWAP3 SWAP2 POP POP JUMP JUMPDEST PUSH1 0x0 DUP2 MLOAD SWAP1 POP SWAP2 SWAP1 POP JUMP JUMPDEST PUSH1 0x0 DUP3 DUP3 MSTORE PUSH1 0x20 DUP3 ADD SWAP1 POP SWAP3 SWAP2 POP POP JUMP JUMPDEST PUSH1 0x0 JUMPDEST DUP4 DUP2 LT ISZERO PUSH2 0xBF3 JUMPI DUP1 DUP3 ADD MLOAD DUP2 DUP5 ADD MSTORE PUSH1 0x20 DUP2 ADD SWAP1 POP PUSH2 0xBD8 JUMP JUMPDEST PUSH1 0x0 DUP5 DUP5 ADD MSTORE POP POP POP POP JUMP JUMPDEST PUSH1 0x0 PUSH2 0xC0A DUP3 PUSH2 0xBB9 JUMP JUMPDEST PUSH2 0xC14 DUP2 DUP6 PUSH2 0xBC4 JUMP JUMPDEST SWAP4 POP PUSH2 0xC24 DUP2 DUP6 PUSH1 0x20 DUP7 ADD PUSH2 0xBD5 JUMP JUMPDEST PUSH2 0xC2D DUP2 PUSH2 0x7E6 JUMP JUMPDEST DUP5 ADD SWAP2 POP POP SWAP3 SWAP2 POP POP JUMP JUMPDEST PUSH2 0xC41 DUP2 PUSH2 0x922 JUMP JUMPDEST DUP3 MSTORE POP POP JUMP JUMPDEST PUSH1 0x0 DUP2 SWAP1 POP SWAP2 SWAP1 POP JUMP JUMPDEST PUSH2 0xC5A DUP2 PUSH2 0xC47 JUMP JUMPDEST DUP3 MSTORE POP POP JUMP JUMPDEST PUSH1 0x0 PUSH1 0xA0 DUP3 ADD SWAP1 POP DUP2 DUP2 SUB PUSH1 0x0 DUP4 ADD MSTORE PUSH2 0xC7A DUP2 DUP9 PUSH2 0xBFF JUMP JUMPDEST SWAP1 POP PUSH2 0xC89 PUSH1 0x20 DUP4 ADD DUP8 PUSH2 0xC38 JUMP JUMPDEST PUSH2 0xC96 PUSH1 0x40 DUP4 ADD DUP7 PUSH2 0xC51 JUMP JUMPDEST PUSH2 0xCA3 PUSH1 0x60 DUP4 ADD DUP6 PUSH2 0xB62 JUMP JUMPDEST PUSH2 0xCB0 PUSH1 0x80 DUP4 ADD DUP5 PUSH2 0xB62 JUMP JUMPDEST SWAP7 SWAP6 POP POP POP POP POP POP JUMP JUMPDEST PUSH1 0x0 DUP2 SWAP1 POP SWAP2 SWAP1 POP JUMP JUMPDEST PUSH1 0x0 PUSH2 0xCDF PUSH2 0xCDA PUSH2 0xCD5 DUP5 PUSH2 0xAC4 JUMP JUMPDEST PUSH2 0xCBA JUMP JUMPDEST PUSH2 0xAC4 JUMP JUMPDEST SWAP1 POP SWAP2 SWAP1 POP JUMP JUMPDEST PUSH1 0x0 PUSH2 0xCF1 DUP3 PUSH2 0xCC4 JUMP JUMPDEST SWAP1 POP SWAP2 SWAP1 POP JUMP JUMPDEST PUSH1 0x0 PUSH2 0xD03 DUP3 PUSH2 0xCE6 JUMP JUMPDEST SWAP1 POP SWAP2 SWAP1 POP JUMP JUMPDEST PUSH2 0xD13 DUP2 PUSH2 0xCF8 JUMP JUMPDEST DUP3 MSTORE POP POP JUMP JUMPDEST PUSH1 0x0 PUSH1 0x20 DUP3 ADD SWAP1 POP PUSH2 0xD2E PUSH1 0x0 DUP4 ADD DUP5 PUSH2 0xD0A JUMP JUMPDEST SWAP3 SWAP2 POP POP JUMP JUMPDEST PUSH2 0xD3D DUP2 PUSH2 0xAE4 JUMP JUMPDEST DUP3 MSTORE POP POP JUMP JUMPDEST PUSH1 0x0 PUSH1 0x80 DUP3 ADD SWAP1 POP DUP2 DUP2 SUB PUSH1 0x0 DUP4 ADD MSTORE PUSH2 0xD5D DUP2 DUP8 PUSH2 0xBFF JUMP JUMPDEST SWAP1 POP PUSH2 0xD6C PUSH1 0x20 DUP4 ADD DUP7 PUSH2 0xC38 JUMP JUMPDEST PUSH2 0xD79 PUSH1 0x40 DUP4 ADD DUP6 PUSH2 0xD34 JUMP JUMPDEST DUP2 DUP2 SUB PUSH1 0x60 DUP4 ADD MSTORE PUSH2 0xD8B DUP2 DUP5 PUSH2 0xBFF JUMP JUMPDEST SWAP1 POP SWAP6 SWAP5 POP POP POP POP POP JUMP JUMPDEST PUSH1 0x0 DUP2 MLOAD SWAP1 POP PUSH2 0xDA5 DUP2 PUSH2 0x964 JUMP JUMPDEST SWAP3 SWAP2 POP POP JUMP JUMPDEST PUSH1 0x0 PUSH1 0x20 DUP3 DUP5 SUB SLT ISZERO PUSH2 0xDC1 JUMPI PUSH2 0xDC0 PUSH2 0x7D2 JUMP JUMPDEST JUMPDEST PUSH1 0x0 PUSH2 0xDCF DUP5 DUP3 DUP6 ADD PUSH2 0xD96 JUMP JUMPDEST SWAP2 POP POP SWAP3 SWAP2 POP POP JUMP JUMPDEST PUSH32 0x5A4B502052454A45435445443A20496E76616C6964204964656E746974792050 PUSH1 0x0 DUP3 ADD MSTORE PUSH32 0x726F6F6600000000000000000000000000000000000000000000000000000000 PUSH1 0x20 DUP3 ADD MSTORE POP JUMP JUMPDEST PUSH1 0x0 PUSH2 0xE34 PUSH1 0x24 DUP4 PUSH2 0xBC4 JUMP JUMPDEST SWAP2 POP PUSH2 0xE3F DUP3 PUSH2 0xDD8 JUMP JUMPDEST PUSH1 0x40 DUP3 ADD SWAP1 POP SWAP2 SWAP1 POP JUMP JUMPDEST PUSH1 0x0 PUSH1 0x20 DUP3 ADD SWAP1 POP DUP2 DUP2 SUB PUSH1 0x0 DUP4 ADD MSTORE PUSH2 0xE63 DUP2 PUSH2 0xE27 JUMP JUMPDEST SWAP1 POP SWAP2 SWAP1 POP JUMP JUMPDEST PUSH32 0x4E487B7100000000000000000000000000000000000000000000000000000000 PUSH1 0x0 MSTORE PUSH1 0x22 PUSH1 0x4 MSTORE PUSH1 0x24 PUSH1 0x0 REVERT JUMPDEST PUSH1 0x0 PUSH1 0x2 DUP3 DIV SWAP1 POP PUSH1 0x1 DUP3 AND DUP1 PUSH2 0xEB1 JUMPI PUSH1 0x7F DUP3 AND SWAP2 POP JUMPDEST PUSH1 0x20 DUP3 LT DUP2 SUB PUSH2 0xEC4 JUMPI PUSH2 0xEC3 PUSH2 0xE6A JUMP JUMPDEST JUMPDEST POP SWAP2 SWAP1 POP JUMP JUMPDEST PUSH32 0x4175646974206E6F742079657420616E63686F72656420627920636C6F756400 PUSH1 0x0 DUP3 ADD MSTORE POP JUMP JUMPDEST PUSH1 0x0 PUSH2 0xF00 PUSH1 0x1F DUP4 PUSH2 0xBC4 JUMP JUMPDEST SWAP2 POP PUSH2 0xF0B DUP3 PUSH2 0xECA JUMP JUMPDEST PUSH1 0x20 DUP3 ADD SWAP1 POP SWAP2 SWAP1 POP JUMP JUMPDEST PUSH1 0x0 PUSH1 0x20 DUP3 ADD SWAP1 POP DUP2 DUP2 SUB PUSH1 0x0 DUP4 ADD MSTORE PUSH2 0xF2F DUP2 PUSH2 0xEF3 JUMP JUMPDEST SWAP1 POP SWAP2 SWAP1 POP JUMP JUMPDEST PUSH1 0x0 DUP2 SWAP1 POP SWAP3 SWAP2 POP POP JUMP JUMPDEST PUSH1 0x0 DUP2 SWAP1 POP DUP2 PUSH1 0x0 MSTORE PUSH1 0x20 PUSH1 0x0 KECCAK256 SWAP1 POP SWAP2 SWAP1 POP JUMP JUMPDEST PUSH1 0x0 DUP2 SLOAD PUSH2 0xF63 DUP2 PUSH2 0xE99 JUMP JUMPDEST PUSH2 0xF6D DUP2 DUP7 PUSH2 0xF36 JUMP JUMPDEST SWAP5 POP PUSH1 0x1 DUP3 AND PUSH1 0x0 DUP2 EQ PUSH2 0xF88 JUMPI PUSH1 0x1 DUP2 EQ PUSH2 0xF9D JUMPI PUSH2 0xFD0 JUMP JUMPDEST PUSH1 0xFF NOT DUP4 AND DUP7 MSTORE DUP2 ISZERO ISZERO DUP3 MUL DUP7 ADD SWAP4 POP PUSH2 0xFD0 JUMP JUMPDEST PUSH2 0xFA6 DUP6 PUSH2 0xF41 JUMP JUMPDEST PUSH1 0x0 JUMPDEST DUP4 DUP2 LT ISZERO PUSH2 0xFC8 JUMPI DUP2 SLOAD DUP2 DUP10 ADD MSTORE PUSH1 0x1 DUP3 ADD SWAP2 POP PUSH1 0x20 DUP2 ADD SWAP1 POP PUSH2 0xFA9 JUMP JUMPDEST DUP4 DUP9 ADD SWAP6 POP POP POP JUMPDEST POP POP POP SWAP3 SWAP2 POP POP JUMP JUMPDEST PUSH1 0x0 PUSH2 0xFE5 DUP3 DUP5 PUSH2 0xF56 JUMP JUMPDEST SWAP2 POP DUP2 SWAP1 POP SWAP3 SWAP2 POP POP JUMP JUMPDEST PUSH32 0x5061727479206D69736D61746368000000000000000000000000000000000000 PUSH1 0x0 DUP3 ADD MSTORE POP JUMP JUMPDEST PUSH1 0x0 PUSH2 0x1026 PUSH1 0xE DUP4 PUSH2 0xBC4 JUMP JUMPDEST SWAP2 POP PUSH2 0x1031 DUP3 PUSH2 0xFF0 JUMP JUMPDEST PUSH1 0x20 DUP3 ADD SWAP1 POP SWAP2 SWAP1 POP JUMP JUMPDEST PUSH1 0x0 PUSH1 0x20 DUP3 ADD SWAP1 POP DUP2 DUP2 SUB PUSH1 0x0 DUP4 ADD MSTORE PUSH2 0x1055 DUP2 PUSH2 0x1019 JUMP JUMPDEST SWAP1 POP SWAP2 SWAP1 POP JUMP JUMPDEST PUSH32 0x417564697420616C72656164792066696E697368656400000000000000000000 PUSH1 0x0 DUP3 ADD MSTORE POP JUMP JUMPDEST PUSH1 0x0 PUSH2 0x1092 PUSH1 0x16 DUP4 PUSH2 0xBC4 JUMP JUMPDEST SWAP2 POP PUSH2 0x109D DUP3 PUSH2 0x105C JUMP JUMPDEST PUSH1 0x20 DUP3 ADD SWAP1 POP SWAP2 SWAP1 POP JUMP JUMPDEST PUSH1 0x0 PUSH1 0x20 DUP3 ADD SWAP1 POP DUP2 DUP2 SUB PUSH1 0x0 DUP4 ADD MSTORE PUSH2 0x10C1 DUP2 PUSH2 0x1085 JUMP JUMPDEST SWAP1 POP SWAP2 SWAP1 POP JUMP JUMPDEST PUSH32 0x5065657220616C726561647920766F7465640000000000000000000000000000 PUSH1 0x0 DUP3 ADD MSTORE POP JUMP JUMPDEST PUSH1 0x0 PUSH2 0x10FE PUSH1 0x12 DUP4 PUSH2 0xBC4 JUMP JUMPDEST SWAP2 POP PUSH2 0x1109 DUP3 PUSH2 0x10C8 JUMP JUMPDEST PUSH1 0x20 DUP3 ADD SWAP1 POP SWAP2 SWAP1 POP JUMP JUMPDEST PUSH1 0x0 PUSH1 0x20 DUP3 ADD SWAP1 POP DUP2 DUP2 SUB PUSH1 0x0 DUP4 ADD MSTORE PUSH2 0x112D DUP2 PUSH2 0x10F1 JUMP JUMPDEST SWAP1 POP SWAP2 SWAP1 POP JUMP JUMPDEST PUSH32 0x494E5445475249545920435249544943414C3A20526F6F74206D69736D617463 PUSH1 0x0 DUP3 ADD MSTORE PUSH32 0x6820646574656374656421000000000000000000000000000000000000000000 PUSH1 0x20 DUP3 ADD MSTORE POP JUMP JUMPDEST PUSH1 0x0 PUSH2 0x1190 PUSH1 0x2B DUP4 PUSH2 0xBC4 JUMP JUMPDEST SWAP2 POP PUSH2 0x119B DUP3 PUSH2 0x1134 JUMP JUMPDEST PUSH1 0x40 DUP3 ADD SWAP1 POP SWAP2 SWAP1 POP JUMP JUMPDEST PUSH1 0x0 PUSH1 0x20 DUP3 ADD SWAP1 POP DUP2 DUP2 SUB PUSH1 0x0 DUP4 ADD MSTORE PUSH2 0x11BF DUP2 PUSH2 0x1183 JUMP JUMPDEST SWAP1 POP SWAP2 SWAP1 POP JUMP JUMPDEST PUSH32 0x4E487B7100000000000000000000000000000000000000000000000000000000 PUSH1 0x0 MSTORE PUSH1 0x11 PUSH1 0x4 MSTORE PUSH1 0x24 PUSH1 0x0 REVERT JUMPDEST PUSH1 0x0 PUSH2 0x1200 DUP3 PUSH2 0xC47 JUMP JUMPDEST SWAP2 POP PUSH2 0x120B DUP4 PUSH2 0xC47 JUMP JUMPDEST SWAP3 POP DUP3 DUP3 ADD SWAP1 POP DUP1 DUP3 GT ISZERO PUSH2 0x1223 JUMPI PUSH2 0x1222 PUSH2 0x11C6 JUMP JUMPDEST JUMPDEST SWAP3 SWAP2 POP POP JUMP JUMPDEST PUSH1 0x0 PUSH1 0x20 DUP3 ADD SWAP1 POP DUP2 DUP2 SUB PUSH1 0x0 DUP4 ADD MSTORE PUSH2 0x1243 DUP2 DUP5 PUSH2 0xBFF JUMP JUMPDEST SWAP1 POP SWAP3 SWAP2 POP POP JUMP JUMPDEST PUSH2 0x1254 DUP2 PUSH2 0xC47 JUMP JUMPDEST DUP2 EQ PUSH2 0x125F JUMPI PUSH1 0x0 DUP1 REVERT JUMPDEST POP JUMP JUMPDEST PUSH1 0x0 DUP2 MLOAD SWAP1 POP PUSH2 0x1271 DUP2 PUSH2 0x124B JUMP JUMPDEST SWAP3 SWAP2 POP POP JUMP JUMPDEST PUSH1 0x0 DUP1 PUSH1 0x40 DUP4 DUP6 SUB SLT ISZERO PUSH2 0x128E JUMPI PUSH2 0x128D PUSH2 0x7D2 JUMP JUMPDEST JUMPDEST PUSH1 0x0 PUSH2 0x129C DUP6 DUP3 DUP7 ADD PUSH2 0x1262 JUMP JUMPDEST SWAP3 POP POP PUSH1 0x20 PUSH2 0x12AD DUP6 DUP3 DUP7 ADD PUSH2 0x1262 JUMP JUMPDEST SWAP2 POP POP SWAP3 POP SWAP3 SWAP1 POP JUMP JUMPDEST PUSH1 0x0 PUSH1 0x40 DUP3 ADD SWAP1 POP PUSH2 0x12CC PUSH1 0x0 DUP4 ADD DUP6 PUSH2 0xB62 JUMP JUMPDEST PUSH2 0x12D9 PUSH1 0x20 DUP4 ADD DUP5 PUSH2 0xC51 JUMP JUMPDEST SWAP4 SWAP3 POP POP POP JUMP JUMPDEST PUSH32 0x417564697420616C726561647920616E63686F72656400000000000000000000 PUSH1 0x0 DUP3 ADD MSTORE POP JUMP JUMPDEST PUSH1 0x0 PUSH2 0x1316 PUSH1 0x16 DUP4 PUSH2 0xBC4 JUMP JUMPDEST SWAP2 POP PUSH2 0x1321 DUP3 PUSH2 0x12E0 JUMP JUMPDEST PUSH1 0x20 DUP3 ADD SWAP1 POP SWAP2 SWAP1 POP JUMP JUMPDEST PUSH1 0x0 PUSH1 0x20 DUP3 ADD SWAP1 POP DUP2 DUP2 SUB PUSH1 0x0 DUP4 ADD MSTORE PUSH2 0x1345 DUP2 PUSH2 0x1309 JUMP JUMPDEST SWAP1 POP SWAP2 SWAP1 POP JUMP JUMPDEST PUSH1 0x0 DUP2 SWAP1 POP DUP2 PUSH1 0x0 MSTORE PUSH1 0x20 PUSH1 0x0 KECCAK256 SWAP1 POP SWAP2 SWAP1 POP JUMP JUMPDEST PUSH1 0x0 PUSH1 0x20 PUSH1 0x1F DUP4 ADD DIV SWAP1 POP SWAP2 SWAP1 POP JUMP JUMPDEST PUSH1 0x0 DUP3 DUP3 SHL SWAP1 POP SWAP3 SWAP2 POP POP JUMP JUMPDEST PUSH1 0x0 PUSH1 0x8 DUP4 MUL PUSH2 0x13AE PUSH32 0xFFFFFFFFFFFFFFFFFFFFFFFFFFFFFFFFFFFFFFFFFFFFFFFFFFFFFFFFFFFFFFFF DUP3 PUSH2 0x1371 JUMP JUMPDEST PUSH2 0x13B8 DUP7 DUP4 PUSH2 0x1371 JUMP JUMPDEST SWAP6 POP DUP1 NOT DUP5 AND SWAP4 POP DUP1 DUP7 AND DUP5 OR SWAP3 POP POP POP SWAP4 SWAP3 POP POP POP JUMP JUMPDEST PUSH1 0x0 PUSH2 0x13EB PUSH2 0x13E6 PUSH2 0x13E1 DUP5 PUSH2 0xC47 JUMP JUMPDEST PUSH2 0xCBA JUMP JUMPDEST PUSH2 0xC47 JUMP JUMPDEST SWAP1 POP SWAP2 SWAP1 POP JUMP JUMPDEST PUSH1 0x0 DUP2 SWAP1 POP SWAP2 SWAP1 POP JUMP JUMPDEST PUSH2 0x1405 DUP4 PUSH2 0x13D0 JUMP JUMPDEST PUSH2 0x1419 PUSH2 0x1411 DUP3 PUSH2 0x13F2 JUMP JUMPDEST DUP5 DUP5 SLOAD PUSH2 0x137E JUMP JUMPDEST DUP3 SSTORE POP POP POP POP JUMP JUMPDEST PUSH1 0x0 SWAP1 JUMP JUMPDEST PUSH2 0x142E PUSH2 0x1421 JUMP JUMPDEST PUSH2 0x1439 DUP2 DUP5 DUP5 PUSH2 0x13FC JUMP JUMPDEST POP POP POP JUMP JUMPDEST JUMPDEST DUP2 DUP2 LT ISZERO PUSH2 0x145D JUMPI PUSH2 0x1452 PUSH1 0x0 DUP3 PUSH2 0x1426 JUMP JUMPDEST PUSH1 0x1 DUP2 ADD SWAP1 POP PUSH2 0x143F JUMP JUMPDEST POP POP JUMP JUMPDEST PUSH1 0x1F DUP3 GT ISZERO PUSH2 0x14A2 JUMPI PUSH2 0x1473 DUP2 PUSH2 0x134C JUMP JUMPDEST PUSH2 0x147C DUP5 PUSH2 0x1361 JUMP JUMPDEST DUP2 ADD PUSH1 0x20 DUP6 LT ISZERO PUSH2 0x148B JUMPI DUP2 SWAP1 POP JUMPDEST PUSH2 0x149F PUSH2 0x1497 DUP6 PUSH2 0x1361 JUMP JUMPDEST DUP4 ADD DUP3 PUSH2 0x143E JUMP JUMPDEST POP POP JUMPDEST POP POP POP JUMP JUMPDEST PUSH1 0x0 DUP3 DUP3 SHR SWAP1 POP SWAP3 SWAP2 POP POP JUMP JUMPDEST PUSH1 0x0 PUSH2 0x14C5 PUSH1 0x0 NOT DUP5 PUSH1 0x8 MUL PUSH2 0x14A7 JUMP JUMPDEST NOT DUP1 DUP4 AND SWAP2 POP POP SWAP3 SWAP2 POP POP JUMP JUMPDEST PUSH1 0x0 PUSH2 0x14DE DUP4 DUP4 PUSH2 0x14B4 JUMP JUMPDEST SWAP2 POP DUP3 PUSH1 0x2 MUL DUP3 OR SWAP1 POP SWAP3 SWAP2 POP POP JUMP JUMPDEST PUSH2 0x14F7 DUP3 PUSH2 0xBB9 JUMP JUMPDEST PUSH8 0xFFFFFFFFFFFFFFFF DUP2 GT ISZERO PUSH2 0x1510 JUMPI PUSH2 0x150F PUSH2 0x7F7 JUMP JUMPDEST JUMPDEST PUSH2 0x151A DUP3 SLOAD PUSH2 0xE99 JUMP JUMPDEST PUSH2 0x1525 DUP3 DUP3 DUP6 PUSH2 0x1461 JUMP JUMPDEST PUSH1 0x0 PUSH1 0x20 SWAP1 POP PUSH1 0x1F DUP4 GT PUSH1 0x1 DUP2 EQ PUSH2 0x1558 JUMPI PUSH1 0x0 DUP5 ISZERO PUSH2 0x1546 JUMPI DUP3 DUP8 ADD MLOAD SWAP1 POP JUMPDEST PUSH2 0x1550 DUP6 DUP3 PUSH2 0x14D2 JUMP JUMPDEST DUP7 SSTORE POP PUSH2 0x15B8 JUMP JUMPDEST PUSH1 0x1F NOT DUP5 AND PUSH2 0x1566 DUP7 PUSH2 0x134C JUMP JUMPDEST PUSH1 0x0 JUMPDEST DUP3 DUP2 LT ISZERO PUSH2 0x158E JUMPI DUP5 DUP10 ADD MLOAD DUP3 SSTORE PUSH1 0x1 DUP3 ADD SWAP2 POP PUSH1 0x20 DUP6 ADD SWAP5 POP PUSH1 0x20 DUP2 ADD SWAP1 POP PUSH2 0x1569 JUMP JUMPDEST DUP7 DUP4 LT ISZERO PUSH2 0x15AB JUMPI DUP5 DUP10 ADD MLOAD PUSH2 0x15A7 PUSH1 0x1F DUP10 AND DUP3 PUSH2 0x14B4 JUMP JUMPDEST DUP4 SSTORE POP JUMPDEST PUSH1 0x1 PUSH1 0x2 DUP9 MUL ADD DUP9 SSTORE POP POP POP JUMPDEST POP POP POP POP POP POP JUMP INVALID LOG2 PUSH5 0x6970667358 0x22 SLT KECCAK256 0xD7 DUP15 0xBC SWAP10 JUMPI PREVRANDAO 0xA8 PUSH22 0xAA9174E0614D8BD6057A961FF504A4013E2985E1DBB7 PUSH18 0xCE64736F6C63430008180033000000000000 "
        },
        "methodIdentifiers": {
          "accessManager()": "fdcb6068",
          "audits(bytes32)": "eae27f31",
          "hasVoted(bytes32,address)": "aadc3b72",
          "initializeAudit(bytes32,string,bytes32)": "8a0cbdf5",
          "submitVote(string,bytes32,bytes32,bool,bytes32,string)": "6fc5fb14"
        }
      }
    }
  }
}