{
  "_format": "hh-sol-artifact-1",
  "contractName": "AuditEvidenceRegistry",
  "sourceName": "contracts/AuditEvidenceRegistry.sol",
  "abi": [
    {
      "inputs": [
        {
          "internalType": "address",
          "name": "_accessManagerAddress",
          "type": "address"
        }
      ],
      "stateMutability": "nonpayable",
      "type": "constructor"
    },
    {
      "anonymous": false,
      "inputs": [
        {
          "indexed": true,
          "internalType": "bytes32",
          "name": "challengeDigest",
          "type": "bytes32"
        },
        {
          "indexed": false,
          "internalType": "bool",
          "name": "result",
          "type": "bool"
        },
        {
          "indexed": false,
          "internalType": "uint256",
          "name": "timestamp",
          "type": "uint256"
        }
      ],
      "name": "AuditFinalized",
      "type": "event"
    },
    {
      "inputs": [],
      "name": "accessManager",
      "outputs": [
        {
          "internalType": "contract AuditAccessManager",
          "name": "",
          "type": "address"
        }
      ],
      "stateMutability": "view",
      "type": "function"
    },
    {
      "inputs": [
        {
          "internalType": "bytes32",
          "name": "",
          "type": "bytes32"
        }
      ],
      "name": "audits",
      "outputs": [
        {
          "internalType": "bytes32",
          "name": "smtRoot",
          "type": "bytes32"
        },
        {
          "internalType": "uint256",
          "name": "voteCount",
          "type": "uint256"
        },
        {
          "internalType": "bool",
          "name": "finalized",
          "type": "bool"
        },
        {
          "internalType": "bool",
          "name": "isSuccess",
          "type": "bool"
        }
      ],
      "stateMutability": "view",
      "type": "function"
    },
    {
      "inputs": [
        {
          "internalType": "bytes32",
          "name": "",
          "type": "bytes32"
        },
        {
          "internalType": "address",
          "name": "",
          "type": "address"
        }
      ],
      "name": "hasVoted",
      "outputs": [
        {
          "internalType": "bool",
          "name": "",
          "type": "bool"
        }
      ],
      "stateMutability": "view",
      "type": "function"
    },
    {
      "inputs": [
        {
          "internalType": "bytes32",
          "name": "h_chal",
          "type": "bytes32"
        },
        {
          "internalType": "bytes32",
          "name": "_smtRoot",
          "type": "bytes32"
        },
        {
          "internalType": "bool",
          "name": "localVerdict",
          "type": "bool"
        }
      ],
      "name": "submitVote",
      "outputs": [],
      "stateMutability": "nonpayable",
      "type": "function"
    }
  ],
  "bytecode": "0x608060405234801561001057600080fd5b50604051610bc4380380610bc4833981810160405281019061003291906100db565b806000806101000a81548173ffffffffffffffffffffffffffffffffffffffff021916908373ffffffffffffffffffffffffffffffffffffffff16021790555050610108565b600080fd5b600073ffffffffffffffffffffffffffffffffffffffff82169050919050565b60006100a88261007d565b9050919050565b6100b88161009d565b81146100c357600080fd5b50565b6000815190506100d5816100af565b92915050565b6000602082840312156100f1576100f0610078565b5b60006100ff848285016100c6565b91505092915050565b610aad806101176000396000f3fe608060405234801561001057600080fd5b506004361061004c5760003560e01c8063aadc3b7214610051578063b65f923f14610081578063eae27f311461009d578063fdcb6068146100d0575b600080fd5b61006b600480360381019061006691906105b5565b6100ee565b6040516100789190610610565b60405180910390f35b61009b60048036038101906100969190610657565b61011d565b005b6100b760048036038101906100b291906106aa565b6104ae565b6040516100c794939291906106ff565b60405180910390f35b6100d86104f8565b6040516100e591906107a3565b60405180910390f35b60026020528160005260406000206020528060005260406000206000915091509054906101000a900460ff1681565b60008054906101000a900473ffffffffffffffffffffffffffffffffffffffff1673ffffffffffffffffffffffffffffffffffffffff166302800cf1336040518263ffffffff1660e01b815260040161017691906107cd565b602060405180830381865afa158015610193573d6000803e3d6000fd5b505050506040513d601f19601f820116820180604052508101906101b791906107fd565b6101f6576040517f08c379a00000000000000000000000000000000000000000000000000000000081526004016101ed90610887565b60405180910390fd5b60008060009054906101000a900473ffffffffffffffffffffffffffffffffffffffff1673ffffffffffffffffffffffffffffffffffffffff1663286721aa6040518163ffffffff1660e01b81526004016040805180830381865afa158015610263573d6000803e3d6000fd5b505050506040513d601f19601f8201168201806040525081019061028791906108d3565b50905060006001600086815260200190815260200160002090508060020160009054906101000a900460ff16156102f3576040517f08c379a00000000000000000000000000000000000000000000000000000000081526004016102ea9061095f565b60405180910390fd5b6002600086815260200190815260200160002060003373ffffffffffffffffffffffffffffffffffffffff1673ffffffffffffffffffffffffffffffffffffffff16815260200190815260200160002060009054906101000a900460ff1615610391576040517f08c379a0000000000000000000000000000000000000000000000000000000008152600401610388906109cb565b60405180910390fd5b82156103bd5760018160010160008282546103ac9190610a1a565b925050819055508381600001819055505b60016002600087815260200190815260200160002060003373ffffffffffffffffffffffffffffffffffffffff1673ffffffffffffffffffffffffffffffffffffffff16815260200190815260200160002060006101000a81548160ff021916908315150217905550818160010154106104a75760018160020160006101000a81548160ff02191690831515021790555060018160020160016101000a81548160ff021916908315150217905550847ffe78b8703566674bd368644adf481da68d7770bef0f1df81840d5e4a7d6f79c260014260405161049e929190610a4e565b60405180910390a25b5050505050565b60016020528060005260406000206000915090508060000154908060010154908060020160009054906101000a900460ff16908060020160019054906101000a900460ff16905084565b60008054906101000a900473ffffffffffffffffffffffffffffffffffffffff1681565b600080fd5b6000819050919050565b61053481610521565b811461053f57600080fd5b50565b6000813590506105518161052b565b92915050565b600073ffffffffffffffffffffffffffffffffffffffff82169050919050565b600061058282610557565b9050919050565b61059281610577565b811461059d57600080fd5b50565b6000813590506105af81610589565b92915050565b600080604083850312156105cc576105cb61051c565b5b60006105da85828601610542565b92505060206105eb858286016105a0565b9150509250929050565b60008115159050919050565b61060a816105f5565b82525050565b60006020820190506106256000830184610601565b92915050565b610634816105f5565b811461063f57600080fd5b50565b6000813590506106518161062b565b92915050565b6000806000606084860312156106705761066f61051c565b5b600061067e86828701610542565b935050602061068f86828701610542565b92505060406106a086828701610642565b9150509250925092565b6000602082840312156106c0576106bf61051c565b5b60006106ce84828501610542565b91505092915050565b6106e081610521565b82525050565b6000819050919050565b6106f9816106e6565b82525050565b600060808201905061071460008301876106d7565b61072160208301866106f0565b61072e6040830185610601565b61073b6060830184610601565b95945050505050565b6000819050919050565b600061076961076461075f84610557565b610744565b610557565b9050919050565b600061077b8261074e565b9050919050565b600061078d82610770565b9050919050565b61079d81610782565b82525050565b60006020820190506107b86000830184610794565b92915050565b6107c781610577565b82525050565b60006020820190506107e260008301846107be565b92915050565b6000815190506107f78161062b565b92915050565b6000602082840312156108135761081261051c565b5b6000610821848285016107e8565b91505092915050565b600082825260208201905092915050565b7f556e617574686f72697a65640000000000000000000000000000000000000000600082015250565b6000610871600c8361082a565b915061087c8261083b565b602082019050919050565b600060208201905081810360008301526108a081610864565b9050919050565b6108b0816106e6565b81146108bb57600080fd5b50565b6000815190506108cd816108a7565b92915050565b600080604083850312156108ea576108e961051c565b5b60006108f8858286016108be565b9250506020610909858286016108be565b9150509250929050565b7f417564697420616c72656164792066696e697368656400000000000000000000600082015250565b600061094960168361082a565b915061095482610913565b602082019050919050565b600060208201905081810360008301526109788161093c565b9050919050565b7f5065657220616c726561647920766f7465640000000000000000000000000000600082015250565b60006109b560128361082a565b91506109c08261097f565b602082019050919050565b600060208201905081810360008301526109e4816109a8565b9050919050565b7f4e487b7100000000000000000000000000000000000000000000000000000000600052601160045260246000fd5b6000610a25826106e6565b9150610a30836106e6565b9250828201905080821115610a4857610a476109eb565b5b92915050565b6000604082019050610a636000830185610601565b610a7060208301846106f0565b939250505056fea2646970667358221220400a6229729b92b0f5ce8ff1a6775b5498d2542615503808263d9bf088c80d3c64736f6c63430008180033",
  "linkReferences": {},
  "deployedLinkReferences": {}
}