{
  "_format": "hh-sol-artifact-1",
  "contractName": "AuditAccessManager",
  "sourceName": "contracts/AuditAccessManager.sol",
  "abi": [
    {
      "inputs": [
        {
          "internalType": "uint256",
          "name": "_threshold",
          "type": "uint256"
        }
      ],
      "stateMutability": "nonpayable",
      "type": "constructor"
    },
    {
      "inputs": [
        {
          "internalType": "address",
          "name": "peer",
          "type": "address"
        }
      ],
      "name": "authorizePeer",
      "outputs": [],
      "stateMutability": "nonpayable",
      "type": "function"
    },
    {
      "inputs": [],
      "name": "dataOwner",
      "outputs": [
        {
          "internalType": "address",
          "name": "",
          "type": "address"
        }
      ],
      "stateMutability": "view",
      "type": "function"
    },
    {
      "inputs": [],
      "name": "getAuditConfig",
      "outputs": [
        {
          "internalType": "uint256",
          "name": "",
          "type": "uint256"
        },
        {
          "internalType": "uint256",
          "name": "",
          "type": "uint256"
        }
      ],
      "stateMutability": "view",
      "type": "function"
    },
    {
      "inputs": [
        {
          "internalType": "address",
          "name": "",
          "type": "address"
        }
      ],
      "name": "isAuthorizedPeer",
      "outputs": [
        {
          "internalType": "bool",
          "name": "",
          "type": "bool"
        }
      ],
      "stateMutability": "view",
      "type": "function"
    },
    {
      "inputs": [],
      "name": "threshold",
      "outputs": [
        {
          "internalType": "uint256",
          "name": "",
          "type": "uint256"
        }
      ],
      "stateMutability": "view",
      "type": "function"
    },
    {
      "inputs": [],
      "name": "totalPeers",
      "outputs": [
        {
          "internalType": "uint256",
          "name": "",
          "type": "uint256"
        }
      ],
      "stateMutability": "view",
      "type": "function"
    }
  ],
  "bytecode": "0x608060405234801561001057600080fd5b5060405161064d38038061064d833981810160405281019061003291906100ba565b336000806101000a81548173ffffffffffffffffffffffffffffffffffffffff021916908373ffffffffffffffffffffffffffffffffffffffff16021790555080600181905550506100e7565b600080fd5b6000819050919050565b61009781610084565b81146100a257600080fd5b50565b6000815190506100b48161008e565b92915050565b6000602082840312156100d0576100cf61007f565b5b60006100de848285016100a5565b91505092915050565b610557806100f66000396000f3fe608060405234801561001057600080fd5b50600436106100625760003560e01c806302800cf1146100675780632795129114610097578063286721aa146100b557806342cde4e8146100d4578063de007f29146100f2578063e5a99abb1461010e575b600080fd5b610081600480360381019061007c9190610343565b61012c565b60405161008e919061038b565b60405180910390f35b61009f61014c565b6040516100ac91906103b5565b60405180910390f35b6100bd610170565b6040516100cb9291906103e9565b60405180910390f35b6100dc610181565b6040516100e99190610412565b60405180910390f35b61010c60048036038101906101079190610343565b610187565b005b6101166102da565b6040516101239190610412565b60405180910390f35b60036020528060005260406000206000915054906101000a900460ff1681565b60008054906101000a900473ffffffffffffffffffffffffffffffffffffffff1681565b600080600154600254915091509091565b60015481565b60008054906101000a900473ffffffffffffffffffffffffffffffffffffffff1673ffffffffffffffffffffffffffffffffffffffff163373ffffffffffffffffffffffffffffffffffffffff1614610215576040517f08c379a000000000000000000000000000000000000000000000000000000000815260040161020c9061048a565b60405180910390fd5b600360008273ffffffffffffffffffffffffffffffffffffffff1673ffffffffffffffffffffffffffffffffffffffff16815260200190815260200160002060009054906101000a900460ff166102d7576001600360008373ffffffffffffffffffffffffffffffffffffffff1673ffffffffffffffffffffffffffffffffffffffff16815260200190815260200160002060006101000a81548160ff021916908315150217905550600260008154809291906102d1906104d9565b91905055505b50565b60025481565b600080fd5b600073ffffffffffffffffffffffffffffffffffffffff82169050919050565b6000610310826102e5565b9050919050565b61032081610305565b811461032b57600080fd5b50565b60008135905061033d81610317565b92915050565b600060208284031215610359576103586102e0565b5b60006103678482850161032e565b91505092915050565b60008115159050919050565b61038581610370565b82525050565b60006020820190506103a0600083018461037c565b92915050565b6103af81610305565b82525050565b60006020820190506103ca60008301846103a6565b92915050565b6000819050919050565b6103e3816103d0565b82525050565b60006040820190506103fe60008301856103da565b61040b60208301846103da565b9392505050565b600060208201905061042760008301846103da565b92915050565b600082825260208201905092915050565b7f4f6e6c792044617461204f776e65722063616e20617574686f72697a65000000600082015250565b6000610474601d8361042d565b915061047f8261043e565b602082019050919050565b600060208201905081810360008301526104a381610467565b9050919050565b7f4e487b7100000000000000000000000000000000000000000000000000000000600052601160045260246000fd5b60006104e4826103d0565b91507fffffffffffffffffffffffffffffffffffffffffffffffffffffffffffffffff8203610516576105156104aa565b5b60018201905091905056fea264697066735822122034690b128ec852e7b88a5f5c028027027e89c37c2da13db6b8e89abc2cf45f5c64736f6c63430008180033",
  "linkReferences": {},
  "deployedLinkReferences": {}
}