{
  "_format": "hh-sol-artifact-1",
  "contractName": "AuditEvidenceRegistry",
  "sourceName": "contracts/AuditEvidenceRegistry.sol",
  "abi": [
    {
      "anonymous": false,
      "inputs": [
        {
          "indexed": true,
          "internalType": "bytes32",
          "name": "challengeDigest",
          "type": "bytes32"
        },
        {
          "indexed": false,
          "internalType": "bool",
          "name": "result",
          "type": "bool"
        },
        {
          "indexed": false,
          "internalType": "uint256",
          "name": "timestamp",
          "type": "uint256"
        }
      ],
      "name": "AuditFinalized",
      "type": "event"
    },
    {
      "inputs": [
        {
          "internalType": "bytes32",
          "name": "",
          "type": "bytes32"
        }
      ],
      "name": "audits",
      "outputs": [
        {
          "internalType": "bytes32",
          "name": "smtRoot",
          "type": "bytes32"
        },
        {
          "internalType": "uint256",
          "name": "voteCount",
          "type": "uint256"
        },
        {
          "internalType": "uint256",
          "name": "requiredThreshold",
          "type": "uint256"
        },
        {
          "internalType": "bool",
          "name": "finalized",
          "type": "bool"
        },
        {
          "internalType": "bool",
          "name": "isSuccess",
          "type": "bool"
        },
        {
          "internalType": "uint256",
          "name": "timestamp",
          "type": "uint256"
        }
      ],
      "stateMutability": "view",
      "type": "function"
    },
    {
      "inputs": [
        {
          "internalType": "bytes32",
          "name": "",
          "type": "bytes32"
        },
        {
          "internalType": "address",
          "name": "",
          "type": "address"
        }
      ],
      "name": "hasVoted",
      "outputs": [
        {
          "internalType": "bool",
          "name": "",
          "type": "bool"
        }
      ],
      "stateMutability": "view",
      "type": "function"
    },
    {
      "inputs": [
        {
          "internalType": "bytes32",
          "name": "h_chal",
          "type": "bytes32"
        },
        {
          "internalType": "bytes32",
          "name": "_smtRoot",
          "type": "bytes32"
        },
        {
          "internalType": "bool",
          "name": "localVerdict",
          "type": "bool"
        },
        {
          "internalType": "uint256",
          "name": "targetT",
          "type": "uint256"
        }
      ],
      "name": "submitVote",
      "outputs": [],
      "stateMutability": "nonpayable",
      "type": "function"
    }
  ],
  "bytecode": "0x608060405234801561001057600080fd5b506107c0806100206000396000f3fe608060405234801561001057600080fd5b50600436106100415760003560e01c8063aadc3b7214610046578063dbbd2efb14610076578063eae27f3114610092575b600080fd5b610060600480360381019061005b919061042a565b6100c7565b60405161006d9190610485565b60405180910390f35b610090600480360381019061008b9190610502565b6100f6565b005b6100ac60048036038101906100a79190610569565b61033b565b6040516100be969594939291906105b4565b60405180910390f35b60016020528160005260406000206020528060005260406000206000915091509054906101000a900460ff1681565b600080600086815260200190815260200160002090506000816002015403610122578181600201819055505b8060030160009054906101000a900460ff1615610174576040517f08c379a000000000000000000000000000000000000000000000000000000000815260040161016b90610672565b60405180910390fd5b6001600086815260200190815260200160002060003373ffffffffffffffffffffffffffffffffffffffff1673ffffffffffffffffffffffffffffffffffffffff16815260200190815260200160002060009054906101000a900460ff1615610212576040517f08c379a0000000000000000000000000000000000000000000000000000000008152600401610209906106de565b60405180910390fd5b821561023e57600181600101600082825461022d919061072d565b925050819055508381600001819055505b600180600087815260200190815260200160002060003373ffffffffffffffffffffffffffffffffffffffff1673ffffffffffffffffffffffffffffffffffffffff16815260200190815260200160002060006101000a81548160ff02191690831515021790555080600201548160010154106103345760018160030160006101000a81548160ff02191690831515021790555060018160030160016101000a81548160ff021916908315150217905550428160040181905550847ffe78b8703566674bd368644adf481da68d7770bef0f1df81840d5e4a7d6f79c260014260405161032b929190610761565b60405180910390a25b5050505050565b60006020528060005260406000206000915090508060000154908060010154908060020154908060030160009054906101000a900460ff16908060030160019054906101000a900460ff16908060040154905086565b600080fd5b6000819050919050565b6103a981610396565b81146103b457600080fd5b50565b6000813590506103c6816103a0565b92915050565b600073ffffffffffffffffffffffffffffffffffffffff82169050919050565b60006103f7826103cc565b9050919050565b610407816103ec565b811461041257600080fd5b50565b600081359050610424816103fe565b92915050565b6000806040838503121561044157610440610391565b5b600061044f858286016103b7565b925050602061046085828601610415565b9150509250929050565b60008115159050919050565b61047f8161046a565b82525050565b600060208201905061049a6000830184610476565b92915050565b6104a98161046a565b81146104b457600080fd5b50565b6000813590506104c6816104a0565b92915050565b6000819050919050565b6104df816104cc565b81146104ea57600080fd5b50565b6000813590506104fc816104d6565b92915050565b6000806000806080858703121561051c5761051b610391565b5b600061052a878288016103b7565b945050602061053b878288016103b7565b935050604061054c878288016104b7565b925050606061055d878288016104ed565b91505092959194509250565b60006020828403121561057f5761057e610391565b5b600061058d848285016103b7565b91505092915050565b61059f81610396565b82525050565b6105ae816104cc565b82525050565b600060c0820190506105c96000830189610596565b6105d660208301886105a5565b6105e360408301876105a5565b6105f06060830186610476565b6105fd6080830185610476565b61060a60a08301846105a5565b979650505050505050565b600082825260208201905092915050565b7f417564697420616c72656164792066696e697368656400000000000000000000600082015250565b600061065c601683610615565b915061066782610626565b602082019050919050565b6000602082019050818103600083015261068b8161064f565b9050919050565b7f5065657220616c726561647920766f7465640000000000000000000000000000600082015250565b60006106c8601283610615565b91506106d382610692565b602082019050919050565b600060208201905081810360008301526106f7816106bb565b9050919050565b7f4e487b7100000000000000000000000000000000000000000000000000000000600052601160045260246000fd5b6000610738826104cc565b9150610743836104cc565b925082820190508082111561075b5761075a6106fe565b5b92915050565b60006040820190506107766000830185610476565b61078360208301846105a5565b939250505056fea26469706673582212204bfc276e486cb7bae9410c36277cfbdf8e44a3d713fb4f687f003b1334974ef164736f6c63430008180033",
  "linkReferences": {},
  "deployedLinkReferences": {}
}