{
  "_format": "hh-sol-artifact-1",
  "contractName": "AuditAccessManager",
  "sourceName": "contracts/AuditAccessManager.sol",
  "abi": [
    {
      "inputs": [],
      "stateMutability": "nonpayable",
      "type": "constructor"
    },
    {
      "inputs": [
        {
          "internalType": "string",
          "name": "partyId",
          "type": "string"
        },
        {
          "internalType": "uint256",
          "name": "_threshold",
          "type": "uint256"
        },
        {
          "internalType": "uint256",
          "name": "_totalPeers",
          "type": "uint256"
        },
        {
          "internalType": "bytes32",
          "name": "_vKey",
          "type": "bytes32"
        }
      ],
      "name": "authorizeParty",
      "outputs": [],
      "stateMutability": "nonpayable",
      "type": "function"
    },
    {
      "inputs": [],
      "name": "contractAdmin",
      "outputs": [
        {
          "internalType": "address",
          "name": "",
          "type": "address"
        }
      ],
      "stateMutability": "view",
      "type": "function"
    },
    {
      "inputs": [
        {
          "internalType": "string",
          "name": "partyId",
          "type": "string"
        }
      ],
      "name": "getAuditConfig",
      "outputs": [
        {
          "internalType": "uint256",
          "name": "",
          "type": "uint256"
        },
        {
          "internalType": "uint256",
          "name": "",
          "type": "uint256"
        }
      ],
      "stateMutability": "view",
      "type": "function"
    },
    {
      "inputs": [
        {
          "internalType": "string",
          "name": "",
          "type": "string"
        },
        {
          "internalType": "address",
          "name": "",
          "type": "address"
        }
      ],
      "name": "isAuthorizedPeer",
      "outputs": [
        {
          "internalType": "bool",
          "name": "",
          "type": "bool"
        }
      ],
      "stateMutability": "view",
      "type": "function"
    },
    {
      "inputs": [
        {
          "internalType": "string",
          "name": "",
          "type": "string"
        }
      ],
      "name": "partyConfigs",
      "outputs": [
        {
          "internalType": "uint256",
          "name": "threshold",
          "type": "uint256"
        },
        {
          "internalType": "uint256",
          "name": "totalPeers",
          "type": "uint256"
        },
        {
          "internalType": "bool",
          "name": "isActive",
          "type": "bool"
        },
        {
          "internalType": "bytes32",
          "name": "verifyingKey",
          "type": "bytes32"
        }
      ],
      "stateMutability": "view",
      "type": "function"
    },
    {
      "inputs": [
        {
          "internalType": "string",
          "name": "partyId",
          "type": "string"
        },
        {
          "internalType": "bytes32",
          "name": "zkpProof",
          "type": "bytes32"
        },
        {
          "internalType": "address",
          "name": "caller",
          "type": "address"
        },
        {
          "internalType": "string",
          "name": "epoch",
          "type": "string"
        }
      ],
      "name": "verifyZkpProof",
      "outputs": [
        {
          "internalType": "bool",
          "name": "",
          "type": "bool"
        }
      ],
      "stateMutability": "view",
      "type": "function"
    }
  ],
  "bytecode": "0x608060405234801561001057600080fd5b50336000806101000a81548173ffffffffffffffffffffffffffffffffffffffff021916908373ffffffffffffffffffffffffffffffffffffffff160217905550610c50806100606000396000f3fe608060405234801561001057600080fd5b50600436106100625760003560e01c8063302f817b14610067578063779552451461009a578063a155fc27146100b8578063a3efce13146100e8578063a4d8bde914610118578063f25316bf14610134575b600080fd5b610081600480360381019061007c919061061e565b610165565b60405161009194939291906106b4565b60405180910390f35b6100a26101b8565b6040516100af919061073a565b60405180910390f35b6100d260048036038101906100cd9190610781565b6101dc565b6040516100df91906107dd565b60405180910390f35b61010260048036038101906100fd9190610824565b610221565b60405161010f91906107dd565b60405180910390f35b610132600480360381019061012d91906108ef565b6102ef565b005b61014e6004803603810190610149919061061e565b610406565b60405161015c929190610972565b60405180910390f35b6001818051602081018201805184825260208301602085012081835280955050505050506000915090508060000154908060010154908060020160009054906101000a900460ff16908060030154905084565b60008054906101000a900473ffffffffffffffffffffffffffffffffffffffff1681565b6002828051602081018201805184825260208301602085012081835280955050505050506020528060005260406000206000915091509054906101000a900460ff1681565b60006001856040516102339190610a0c565b908152602001604051809103902060020160009054906101000a900460ff16610291576040517f08c379a000000000000000000000000000000000000000000000000000000000815260040161028890610a80565b60405180910390fd5b60006001866040516102a39190610a0c565b90815260200160405180910390206003015483856040516020016102c993929190610b09565b604051602081830303815290604052805190602001209050808514915050949350505050565b60008054906101000a900473ffffffffffffffffffffffffffffffffffffffff1673ffffffffffffffffffffffffffffffffffffffff163373ffffffffffffffffffffffffffffffffffffffff161461037d576040517f08c379a000000000000000000000000000000000000000000000000000000000815260040161037490610b8e565b60405180910390fd5b6040518060800160405280848152602001838152602001600115158152602001828152506001856040516103b19190610a0c565b9081526020016040518091039020600082015181600001556020820151816001015560408201518160020160006101000a81548160ff0219169083151502179055506060820151816003015590505050505050565b6000806001836040516104199190610a0c565b908152602001604051809103902060020160009054906101000a900460ff16610477576040517f08c379a000000000000000000000000000000000000000000000000000000000815260040161046e90610bfa565b60405180910390fd5b6001836040516104879190610a0c565b9081526020016040518091039020600001546001846040516104a99190610a0c565b90815260200160405180910390206001015491509150915091565b6000604051905090565b600080fd5b600080fd5b600080fd5b600080fd5b6000601f19601f8301169050919050565b7f4e487b7100000000000000000000000000000000000000000000000000000000600052604160045260246000fd5b61052b826104e2565b810181811067ffffffffffffffff8211171561054a576105496104f3565b5b80604052505050565b600061055d6104c4565b90506105698282610522565b919050565b600067ffffffffffffffff821115610589576105886104f3565b5b610592826104e2565b9050602081019050919050565b82818337600083830152505050565b60006105c16105bc8461056e565b610553565b9050828152602081018484840111156105dd576105dc6104dd565b5b6105e884828561059f565b509392505050565b600082601f830112610605576106046104d8565b5b81356106158482602086016105ae565b91505092915050565b600060208284031215610634576106336104ce565b5b600082013567ffffffffffffffff811115610652576106516104d3565b5b61065e848285016105f0565b91505092915050565b6000819050919050565b61067a81610667565b82525050565b60008115159050919050565b61069581610680565b82525050565b6000819050919050565b6106ae8161069b565b82525050565b60006080820190506106c96000830187610671565b6106d66020830186610671565b6106e3604083018561068c565b6106f060608301846106a5565b95945050505050565b600073ffffffffffffffffffffffffffffffffffffffff82169050919050565b6000610724826106f9565b9050919050565b61073481610719565b82525050565b600060208201905061074f600083018461072b565b92915050565b61075e81610719565b811461076957600080fd5b50565b60008135905061077b81610755565b92915050565b60008060408385031215610798576107976104ce565b5b600083013567ffffffffffffffff8111156107b6576107b56104d3565b5b6107c2858286016105f0565b92505060206107d38582860161076c565b9150509250929050565b60006020820190506107f2600083018461068c565b92915050565b6108018161069b565b811461080c57600080fd5b50565b60008135905061081e816107f8565b92915050565b6000806000806080858703121561083e5761083d6104ce565b5b600085013567ffffffffffffffff81111561085c5761085b6104d3565b5b610868878288016105f0565b94505060206108798782880161080f565b935050604061088a8782880161076c565b925050606085013567ffffffffffffffff8111156108ab576108aa6104d3565b5b6108b7878288016105f0565b91505092959194509250565b6108cc81610667565b81146108d757600080fd5b50565b6000813590506108e9816108c3565b92915050565b60008060008060808587031215610909576109086104ce565b5b600085013567ffffffffffffffff811115610927576109266104d3565b5b610933878288016105f0565b9450506020610944878288016108da565b9350506040610955878288016108da565b92505060606109668782880161080f565b91505092959194509250565b60006040820190506109876000830185610671565b6109946020830184610671565b9392505050565b600081519050919050565b600081905092915050565b60005b838110156109cf5780820151818401526020810190506109b4565b60008484015250505050565b60006109e68261099b565b6109f081856109a6565b9350610a008185602086016109b1565b80840191505092915050565b6000610a1882846109db565b915081905092915050565b600082825260208201905092915050565b7f5061727479206e6f742072656769737465726564000000000000000000000000600082015250565b6000610a6a601483610a23565b9150610a7582610a34565b602082019050919050565b60006020820190508181036000830152610a9981610a5d565b9050919050565b6000819050919050565b610abb610ab68261069b565b610aa0565b82525050565b60008160601b9050919050565b6000610ad982610ac1565b9050919050565b6000610aeb82610ace565b9050919050565b610b03610afe82610719565b610ae0565b82525050565b6000610b158286610aaa565b602082019150610b2582856109db565b9150610b318284610af2565b601482019150819050949350505050565b7f4f6e6c792041646d696e2063616e20617574686f72697a650000000000000000600082015250565b6000610b78601883610a23565b9150610b8382610b42565b602082019050919050565b60006020820190508181036000830152610ba781610b6b565b9050919050565b7f506172747920646f6573206e6f74206578697374000000000000000000000000600082015250565b6000610be4601483610a23565b9150610bef82610bae565b602082019050919050565b60006020820190508181036000830152610c1381610bd7565b905091905056fea2646970667358221220a6efb1fe9f2b900f8868185980fdc3109f19e1c2f1a8e2e9436f01b94315315764736f6c63430008180033",
  "linkReferences": {},
  "deployedLinkReferences": {}
}