{
  "_format": "hh-sol-artifact-1",
  "contractName": "AuditEvidenceRegistry",
  "sourceName": "contracts/AuditEvidenceRegistry.sol",
  "abi": [
    {
      "inputs": [
        {
          "internalType": "address",
          "name": "_accessManager",
          "type": "address"
        }
      ],
      "stateMutability": "nonpayable",
      "type": "constructor"
    },
    {
      "anonymous": false,
      "inputs": [
        {
          "indexed": true,
          "internalType": "bytes32",
          "name": "h_chal",
          "type": "bytes32"
        },
        {
          "indexed": false,
          "internalType": "bool",
          "name": "success",
          "type": "bool"
        },
        {
          "indexed": false,
          "internalType": "uint256",
          "name": "timestamp",
          "type": "uint256"
        }
      ],
      "name": "AuditFinalized",
      "type": "event"
    },
    {
      "inputs": [],
      "name": "accessManager",
      "outputs": [
        {
          "internalType": "contract AuditAccessManager",
          "name": "",
          "type": "address"
        }
      ],
      "stateMutability": "view",
      "type": "function"
    },
    {
      "inputs": [
        {
          "internalType": "bytes32",
          "name": "",
          "type": "bytes32"
        }
      ],
      "name": "audits",
      "outputs": [
        {
          "internalType": "string",
          "name": "partyId",
          "type": "string"
        },
        {
          "internalType": "bytes32",
          "name": "smtRoot",
          "type": "bytes32"
        },
        {
          "internalType": "uint256",
          "name": "voteCount",
          "type": "uint256"
        },
        {
          "internalType": "bool",
          "name": "finalized",
          "type": "bool"
        },
        {
          "internalType": "bool",
          "name": "isSuccess",
          "type": "bool"
        }
      ],
      "stateMutability": "view",
      "type": "function"
    },
    {
      "inputs": [
        {
          "internalType": "bytes32",
          "name": "",
          "type": "bytes32"
        },
        {
          "internalType": "address",
          "name": "",
          "type": "address"
        }
      ],
      "name": "hasVoted",
      "outputs": [
        {
          "internalType": "bool",
          "name": "",
          "type": "bool"
        }
      ],
      "stateMutability": "view",
      "type": "function"
    },
    {
      "inputs": [
        {
          "internalType": "bytes32",
          "name": "h_chal",
          "type": "bytes32"
        },
        {
          "internalType": "string",
          "name": "_partyId",
          "type": "string"
        },
        {
          "internalType": "bytes32",
          "name": "_expectedRoot",
          "type": "bytes32"
        }
      ],
      "name": "initializeAudit",
      "outputs": [],
      "stateMutability": "nonpayable",
      "type": "function"
    },
    {
      "inputs": [
        {
          "internalType": "string",
          "name": "partyId",
          "type": "string"
        },
        {
          "internalType": "bytes32",
          "name": "h_chal",
          "type": "bytes32"
        },
        {
          "internalType": "bytes32",
          "name": "_calculatedRoot",
          "type": "bytes32"
        },
        {
          "internalType": "bool",
          "name": "localVerdict",
          "type": "bool"
        },
        {
          "internalType": "bytes32",
          "name": "zkpProof",
          "type": "bytes32"
        },
        {
          "internalType": "string",
          "name": "epoch",
          "type": "string"
        }
      ],
      "name": "submitVote",
      "outputs": [],
      "stateMutability": "nonpayable",
      "type": "function"
    },
    {
      "inputs": [
        {
          "internalType": "bytes32",
          "name": "h_chal",
          "type": "bytes32"
        }
      ],
      "name": "verifyConsensus",
      "outputs": [
        {
          "internalType": "bool",
          "name": "",
          "type": "bool"
        }
      ],
      "stateMutability": "view",
      "type": "function"
    }
  ],
  "bytecode": "0x60806040523480156200001157600080fd5b50604051620017a7380380620017a78339818101604052810190620000379190620000e8565b806000806101000a81548173ffffffffffffffffffffffffffffffffffffffff021916908373ffffffffffffffffffffffffffffffffffffffff160217905550506200011a565b600080fd5b600073ffffffffffffffffffffffffffffffffffffffff82169050919050565b6000620000b08262000083565b9050919050565b620000c281620000a3565b8114620000ce57600080fd5b50565b600081519050620000e281620000b7565b92915050565b6000602082840312156200010157620001006200007e565b5b60006200011184828501620000d1565b91505092915050565b61167d806200012a6000396000f3fe608060405234801561001057600080fd5b50600436106100625760003560e01c80636fc5fb14146100675780638a0cbdf514610083578063aadc3b721461009f578063ba286338146100cf578063eae27f31146100ff578063fdcb606814610133575b600080fd5b610081600480360381019061007c9190610a17565b610151565b005b61009d60048036038101906100989190610adc565b6105ee565b005b6100b960048036038101906100b49190610ba9565b6106d8565b6040516100c69190610bf8565b60405180910390f35b6100e960048036038101906100e49190610c13565b610707565b6040516100f69190610bf8565b60405180910390f35b61011960048036038101906101149190610c13565b610753565b60405161012a959493929190610ce7565b60405180910390f35b61013b61082b565b6040516101489190610da0565b60405180910390f35b60008060009054906101000a900473ffffffffffffffffffffffffffffffffffffffff1673ffffffffffffffffffffffffffffffffffffffff1663a3efce13888533866040518563ffffffff1660e01b81526004016101b39493929190610dca565b602060405180830381865afa1580156101d0573d6000803e3d6000fd5b505050506040513d601f19601f820116820180604052508101906101f49190610e32565b905080610236576040517f08c379a000000000000000000000000000000000000000000000000000000000815260040161022d90610ed1565b60405180910390fd5b6000600160008881526020019081526020016000209050600081600001805461025e90610f20565b9050036102a0576040517f08c379a000000000000000000000000000000000000000000000000000000000815260040161029790610f9d565b60405180910390fd5b8780519060200120816000016040516102b99190611060565b604051809103902014610301576040517f08c379a00000000000000000000000000000000000000000000000000000000081526004016102f8906110c3565b60405180910390fd5b8060030160009054906101000a900460ff1615610353576040517f08c379a000000000000000000000000000000000000000000000000000000000815260040161034a9061112f565b60405180910390fd5b6002600088815260200190815260200160002060003373ffffffffffffffffffffffffffffffffffffffff1673ffffffffffffffffffffffffffffffffffffffff16815260200190815260200160002060009054906101000a900460ff16156103f1576040517f08c379a00000000000000000000000000000000000000000000000000000000081526004016103e89061119b565b60405180910390fd5b841561045a578060010154861461043d576040517f08c379a00000000000000000000000000000000000000000000000000000000081526004016104349061122d565b60405180910390fd5b6001816002016000828254610452919061127c565b925050819055505b60016002600089815260200190815260200160002060003373ffffffffffffffffffffffffffffffffffffffff1673ffffffffffffffffffffffffffffffffffffffff16815260200190815260200160002060006101000a81548160ff02191690831515021790555060008060009054906101000a900473ffffffffffffffffffffffffffffffffffffffff1673ffffffffffffffffffffffffffffffffffffffff1663f25316bf8a6040518263ffffffff1660e01b815260040161051f91906112b0565b6040805180830381865afa15801561053b573d6000803e3d6000fd5b505050506040513d601f19601f8201168201806040525081019061055f91906112fe565b509050808260020154106105e35760018260030160006101000a81548160ff02191690831515021790555060018260030160016101000a81548160ff021916908315150217905550877ffe78b8703566674bd368644adf481da68d7770bef0f1df81840d5e4a7d6f79c26001426040516105da92919061133e565b60405180910390a25b505050505050505050565b6000801b600160008581526020019081526020016000206001015414610649576040517f08c379a0000000000000000000000000000000000000000000000000000000008152600401610640906113b3565b60405180910390fd5b8160016000858152602001908152602001600020600001908161066c9190611575565b5080600160008581526020019081526020016000206001018190555060006001600085815260200190815260200160002060030160006101000a81548160ff02191690831515021790555060006001600085815260200190815260200160002060020181905550505050565b60026020528160005260406000206020528060005260406000206000915091509054906101000a900460ff1681565b6000806001600084815260200190815260200160002090508060030160009054906101000a900460ff16801561074b57508060030160019054906101000a900460ff165b915050919050565b600160205280600052604060002060009150905080600001805461077690610f20565b80601f01602080910402602001604051908101604052809291908181526020018280546107a290610f20565b80156107ef5780601f106107c4576101008083540402835291602001916107ef565b820191906000526020600020905b8154815290600101906020018083116107d257829003601f168201915b5050505050908060010154908060020154908060030160009054906101000a900460ff16908060030160019054906101000a900460ff16905085565b60008054906101000a900473ffffffffffffffffffffffffffffffffffffffff1681565b6000604051905090565b600080fd5b600080fd5b600080fd5b600080fd5b6000601f19601f8301169050919050565b7f4e487b7100000000000000000000000000000000000000000000000000000000600052604160045260246000fd5b6108b68261086d565b810181811067ffffffffffffffff821117156108d5576108d461087e565b5b80604052505050565b60006108e861084f565b90506108f482826108ad565b919050565b600067ffffffffffffffff8211156109145761091361087e565b5b61091d8261086d565b9050602081019050919050565b82818337600083830152505050565b600061094c610947846108f9565b6108de565b90508281526020810184848401111561096857610967610868565b5b61097384828561092a565b509392505050565b600082601f8301126109905761098f610863565b5b81356109a0848260208601610939565b91505092915050565b6000819050919050565b6109bc816109a9565b81146109c757600080fd5b50565b6000813590506109d9816109b3565b92915050565b60008115159050919050565b6109f4816109df565b81146109ff57600080fd5b50565b600081359050610a11816109eb565b92915050565b60008060008060008060c08789031215610a3457610a33610859565b5b600087013567ffffffffffffffff811115610a5257610a5161085e565b5b610a5e89828a0161097b565b9650506020610a6f89828a016109ca565b9550506040610a8089828a016109ca565b9450506060610a9189828a01610a02565b9350506080610aa289828a016109ca565b92505060a087013567ffffffffffffffff811115610ac357610ac261085e565b5b610acf89828a0161097b565b9150509295509295509295565b600080600060608486031215610af557610af4610859565b5b6000610b03868287016109ca565b935050602084013567ffffffffffffffff811115610b2457610b2361085e565b5b610b308682870161097b565b9250506040610b41868287016109ca565b9150509250925092565b600073ffffffffffffffffffffffffffffffffffffffff82169050919050565b6000610b7682610b4b565b9050919050565b610b8681610b6b565b8114610b9157600080fd5b50565b600081359050610ba381610b7d565b92915050565b60008060408385031215610bc057610bbf610859565b5b6000610bce858286016109ca565b9250506020610bdf85828601610b94565b9150509250929050565b610bf2816109df565b82525050565b6000602082019050610c0d6000830184610be9565b92915050565b600060208284031215610c2957610c28610859565b5b6000610c37848285016109ca565b91505092915050565b600081519050919050565b600082825260208201905092915050565b60005b83811015610c7a578082015181840152602081019050610c5f565b60008484015250505050565b6000610c9182610c40565b610c9b8185610c4b565b9350610cab818560208601610c5c565b610cb48161086d565b840191505092915050565b610cc8816109a9565b82525050565b6000819050919050565b610ce181610cce565b82525050565b600060a0820190508181036000830152610d018188610c86565b9050610d106020830187610cbf565b610d1d6040830186610cd8565b610d2a6060830185610be9565b610d376080830184610be9565b9695505050505050565b6000819050919050565b6000610d66610d61610d5c84610b4b565b610d41565b610b4b565b9050919050565b6000610d7882610d4b565b9050919050565b6000610d8a82610d6d565b9050919050565b610d9a81610d7f565b82525050565b6000602082019050610db56000830184610d91565b92915050565b610dc481610b6b565b82525050565b60006080820190508181036000830152610de48187610c86565b9050610df36020830186610cbf565b610e006040830185610dbb565b8181036060830152610e128184610c86565b905095945050505050565b600081519050610e2c816109eb565b92915050565b600060208284031215610e4857610e47610859565b5b6000610e5684828501610e1d565b91505092915050565b7f5a4b502052454a45435445443a20496e76616c6964204964656e74697479205060008201527f726f6f6600000000000000000000000000000000000000000000000000000000602082015250565b6000610ebb602483610c4b565b9150610ec682610e5f565b604082019050919050565b60006020820190508181036000830152610eea81610eae565b9050919050565b7f4e487b7100000000000000000000000000000000000000000000000000000000600052602260045260246000fd5b60006002820490506001821680610f3857607f821691505b602082108103610f4b57610f4a610ef1565b5b50919050565b7f4175646974206e6f742079657420616e63686f72656420627920636c6f756400600082015250565b6000610f87601f83610c4b565b9150610f9282610f51565b602082019050919050565b60006020820190508181036000830152610fb681610f7a565b9050919050565b600081905092915050565b60008190508160005260206000209050919050565b60008154610fea81610f20565b610ff48186610fbd565b9450600182166000811461100f576001811461102457611057565b60ff1983168652811515820286019350611057565b61102d85610fc8565b60005b8381101561104f57815481890152600182019150602081019050611030565b838801955050505b50505092915050565b600061106c8284610fdd565b915081905092915050565b7f5061727479206d69736d61746368000000000000000000000000000000000000600082015250565b60006110ad600e83610c4b565b91506110b882611077565b602082019050919050565b600060208201905081810360008301526110dc816110a0565b9050919050565b7f417564697420616c72656164792066696e697368656400000000000000000000600082015250565b6000611119601683610c4b565b9150611124826110e3565b602082019050919050565b600060208201905081810360008301526111488161110c565b9050919050565b7f5065657220616c726561647920766f7465640000000000000000000000000000600082015250565b6000611185601283610c4b565b91506111908261114f565b602082019050919050565b600060208201905081810360008301526111b481611178565b9050919050565b7f494e5445475249545920435249544943414c3a20526f6f74206d69736d61746360008201527f6820646574656374656421000000000000000000000000000000000000000000602082015250565b6000611217602b83610c4b565b9150611222826111bb565b604082019050919050565b600060208201905081810360008301526112468161120a565b9050919050565b7f4e487b7100000000000000000000000000000000000000000000000000000000600052601160045260246000fd5b600061128782610cce565b915061129283610cce565b92508282019050808211156112aa576112a961124d565b5b92915050565b600060208201905081810360008301526112ca8184610c86565b905092915050565b6112db81610cce565b81146112e657600080fd5b50565b6000815190506112f8816112d2565b92915050565b6000806040838503121561131557611314610859565b5b6000611323858286016112e9565b9250506020611334858286016112e9565b9150509250929050565b60006040820190506113536000830185610be9565b6113606020830184610cd8565b9392505050565b7f417564697420616c726561647920616e63686f72656400000000000000000000600082015250565b600061139d601683610c4b565b91506113a882611367565b602082019050919050565b600060208201905081810360008301526113cc81611390565b9050919050565b60008190508160005260206000209050919050565b60006020601f8301049050919050565b600082821b905092915050565b6000600883026114357fffffffffffffffffffffffffffffffffffffffffffffffffffffffffffffffff826113f8565b61143f86836113f8565b95508019841693508086168417925050509392505050565b600061147261146d61146884610cce565b610d41565b610cce565b9050919050565b6000819050919050565b61148c83611457565b6114a061149882611479565b848454611405565b825550505050565b600090565b6114b56114a8565b6114c0818484611483565b505050565b5b818110156114e4576114d96000826114ad565b6001810190506114c6565b5050565b601f821115611529576114fa816113d3565b611503846113e8565b81016020851015611512578190505b61152661151e856113e8565b8301826114c5565b50505b505050565b600082821c905092915050565b600061154c6000198460080261152e565b1980831691505092915050565b6000611565838361153b565b9150826002028217905092915050565b61157e82610c40565b67ffffffffffffffff8111156115975761159661087e565b5b6115a18254610f20565b6115ac8282856114e8565b600060209050601f8311600181146115df57600084156115cd578287015190505b6115d78582611559565b86555061163f565b601f1984166115ed866113d3565b60005b82811015611615578489015182556001820191506020850194506020810190506115f0565b86831015611632578489015161162e601f89168261153b565b8355505b6001600288020188555050505b50505050505056fea2646970667358221220c6eeb03f76dfd0016c00bc3a5108cfed0d22c6699cc2529e4e436472480bd49064736f6c63430008180033",
  "linkReferences": {},
  "deployedLinkReferences": {}
}