{
  "_format": "hh3-artifact-1",
  "contractName": "AuditEvidenceRegistry",
  "sourceName": "contracts/AuditEvidenceRegistry.sol",
  "abi": [
    {
      "anonymous": false,
      "inputs": [
        {
          "indexed": false,
          "internalType": "bytes32",
          "name": "challengeDigest",
          "type": "bytes32"
        },
        {
          "indexed": false,
          "internalType": "bool",
          "name": "result",
          "type": "bool"
        }
      ],
      "name": "AuditFinalized",
      "type": "event"
    },
    {
      "inputs": [],
      "name": "THRESHOLD",
      "outputs": [
        {
          "internalType": "uint256",
          "name": "",
          "type": "uint256"
        }
      ],
      "stateMutability": "view",
      "type": "function"
    },
    {
      "inputs": [
        {
          "internalType": "bytes32",
          "name": "",
          "type": "bytes32"
        }
      ],
      "name": "audits",
      "outputs": [
        {
          "internalType": "bytes32",
          "name": "smtRoot",
          "type": "bytes32"
        },
        {
          "internalType": "uint256",
          "name": "voteCount",
          "type": "uint256"
        },
        {
          "internalType": "bool",
          "name": "finalized",
          "type": "bool"
        },
        {
          "internalType": "bool",
          "name": "isSuccess",
          "type": "bool"
        }
      ],
      "stateMutability": "view",
      "type": "function"
    },
    {
      "inputs": [
        {
          "internalType": "bytes32",
          "name": "",
          "type": "bytes32"
        },
        {
          "internalType": "address",
          "name": "",
          "type": "address"
        }
      ],
      "name": "hasVoted",
      "outputs": [
        {
          "internalType": "bool",
          "name": "",
          "type": "bool"
        }
      ],
      "stateMutability": "view",
      "type": "function"
    },
    {
      "inputs": [
        {
          "internalType": "bytes32",
          "name": "h_chal",
          "type": "bytes32"
        },
        {
          "internalType": "bytes32",
          "name": "_smtRoot",
          "type": "bytes32"
        },
        {
          "internalType": "bool",
          "name": "localVerdict",
          "type": "bool"
        }
      ],
      "name": "submitVote",
      "outputs": [],
      "stateMutability": "nonpayable",
      "type": "function"
    }
  ],
  "bytecode": "0x6080604052348015600e575f5ffd5b506103618061001c5f395ff3fe608060405234801561000f575f5ffd5b506004361061004a575f3560e01c8063785ffb371461004e578063aadc3b7214610069578063b65f923f146100a6578063eae27f31146100bb575b5f5ffd5b610056600281565b6040519081526020015b60405180910390f35b61009661007736600461027c565b600160209081525f928352604080842090915290825290205460ff1681565b6040519015158152602001610060565b6100b96100b43660046102b5565b61011d565b005b6100f56100c93660046102ef565b5f6020819052908152604090208054600182015460029092015490919060ff8082169161010090041684565b6040805194855260208501939093529015159183019190915215156060820152608001610060565b5f838152602081905260409020600281015460ff161561017d5760405162461bcd60e51b8152602060048201526016602482015275105d591a5d08185b1c9958591e48199a5b9a5cda195960521b60448201526064015b60405180910390fd5b5f84815260016020908152604080832033845290915290205460ff16156101db5760405162461bcd60e51b81526020600482015260126024820152711419595c88185b1c9958591e481d9bdd195960721b6044820152606401610174565b81156101fe576001816001015f8282546101f59190610306565b90915550508281555b5f848152600160208181526040808420338552909152909120805460ff1916821790558101546002116102765760028101805461ffff191661010117905560408051858152600160208201527fc61e0796aae98a64bfcbe271fded71807ab91f142d315c1a4172e5fef28c5c6a910160405180910390a15b50505050565b5f5f6040838503121561028d575f5ffd5b8235915060208301356001600160a01b03811681146102aa575f5ffd5b809150509250929050565b5f5f5f606084860312156102c7575f5ffd5b8335925060208401359150604084013580151581146102e4575f5ffd5b809150509250925092565b5f602082840312156102ff575f5ffd5b5035919050565b8082018082111561032557634e487b7160e01b5f52601160045260245ffd5b9291505056fea2646970667358221220ac0d5f14066cacd778227874a78d2dc3af3c4c8d764be1a9156c75395b28355564736f6c634300081c0033",
  "linkReferences": {},
  "deployedLinkReferences": {},
  "immutableReferences": {},
  "inputSourceName": "project/contracts/AuditEvidenceRegistry.sol",
  "buildInfoId": "solc-0_8_28-52f81230c87c7cba5912b4176f3df3fbffef2716"
}