{
  "_format": "hh-sol-artifact-1",
  "contractName": "AuditAccessManager",
  "sourceName": "contracts/AuditAccessManager.sol",
  "abi": [
    {
      "inputs": [],
      "stateMutability": "nonpayable",
      "type": "constructor"
    },
    {
      "anonymous": false,
      "inputs": [
        {
          "indexed": false,
          "internalType": "bytes32",
          "name": "challengeDigest",
          "type": "bytes32"
        },
        {
          "indexed": false,
          "internalType": "uint256",
          "name": "timestamp",
          "type": "uint256"
        }
      ],
      "name": "SessionActivated",
      "type": "event"
    },
    {
      "inputs": [
        {
          "internalType": "bytes32",
          "name": "_h_chal",
          "type": "bytes32"
        }
      ],
      "name": "activateSession",
      "outputs": [],
      "stateMutability": "nonpayable",
      "type": "function"
    },
    {
      "inputs": [
        {
          "internalType": "address",
          "name": "peer",
          "type": "address"
        }
      ],
      "name": "authorizePeer",
      "outputs": [],
      "stateMutability": "nonpayable",
      "type": "function"
    },
    {
      "inputs": [],
      "name": "currentChallengeDigest",
      "outputs": [
        {
          "internalType": "bytes32",
          "name": "",
          "type": "bytes32"
        }
      ],
      "stateMutability": "view",
      "type": "function"
    },
    {
      "inputs": [],
      "name": "dataOwner",
      "outputs": [
        {
          "internalType": "address",
          "name": "",
          "type": "address"
        }
      ],
      "stateMutability": "view",
      "type": "function"
    },
    {
      "inputs": [
        {
          "internalType": "address",
          "name": "",
          "type": "address"
        }
      ],
      "name": "isAuthorizedPeer",
      "outputs": [
        {
          "internalType": "bool",
          "name": "",
          "type": "bool"
        }
      ],
      "stateMutability": "view",
      "type": "function"
    },
    {
      "inputs": [],
      "name": "sessionActive",
      "outputs": [
        {
          "internalType": "bool",
          "name": "",
          "type": "bool"
        }
      ],
      "stateMutability": "view",
      "type": "function"
    }
  ],
  "bytecode": "0x608060405234801561001057600080fd5b50336000806101000a81548173ffffffffffffffffffffffffffffffffffffffff021916908373ffffffffffffffffffffffffffffffffffffffff160217905550610637806100606000396000f3fe608060405234801561001057600080fd5b50600436106100625760003560e01c806302800cf11461006757806327951291146100975780633b55e385146100b557806388ec778d146100d3578063c438658b146100f1578063de007f291461010d575b600080fd5b610081600480360381019061007c91906103bc565b610129565b60405161008e9190610404565b60405180910390f35b61009f610149565b6040516100ac919061042e565b60405180910390f35b6100bd61016d565b6040516100ca9190610404565b60405180910390f35b6100db610180565b6040516100e89190610462565b60405180910390f35b61010b600480360381019061010691906104a9565b610186565b005b610127600480360381019061012291906103bc565b610270565b005b60036020528060005260406000206000915054906101000a900460ff1681565b60008054906101000a900473ffffffffffffffffffffffffffffffffffffffff1681565b600260009054906101000a900460ff1681565b60015481565b600360003373ffffffffffffffffffffffffffffffffffffffff1673ffffffffffffffffffffffffffffffffffffffff16815260200190815260200160002060009054906101000a900460ff16610212576040517f08c379a000000000000000000000000000000000000000000000000000000000815260040161020990610533565b60405180910390fd5b806001819055506001600260006101000a81548160ff0219169083151502179055507f960408108b43370d4286f8c09d8bd489d5a7ac79886ac77c03a5fd8c34e35dce814260405161026592919061056c565b60405180910390a150565b60008054906101000a900473ffffffffffffffffffffffffffffffffffffffff1673ffffffffffffffffffffffffffffffffffffffff163373ffffffffffffffffffffffffffffffffffffffff16146102fe576040517f08c379a00000000000000000000000000000000000000000000000000000000081526004016102f5906105e1565b60405180910390fd5b6001600360008373ffffffffffffffffffffffffffffffffffffffff1673ffffffffffffffffffffffffffffffffffffffff16815260200190815260200160002060006101000a81548160ff02191690831515021790555050565b600080fd5b600073ffffffffffffffffffffffffffffffffffffffff82169050919050565b60006103898261035e565b9050919050565b6103998161037e565b81146103a457600080fd5b50565b6000813590506103b681610390565b92915050565b6000602082840312156103d2576103d1610359565b5b60006103e0848285016103a7565b91505092915050565b60008115159050919050565b6103fe816103e9565b82525050565b600060208201905061041960008301846103f5565b92915050565b6104288161037e565b82525050565b6000602082019050610443600083018461041f565b92915050565b6000819050919050565b61045c81610449565b82525050565b60006020820190506104776000830184610453565b92915050565b61048681610449565b811461049157600080fd5b50565b6000813590506104a38161047d565b92915050565b6000602082840312156104bf576104be610359565b5b60006104cd84828501610494565b91505092915050565b600082825260208201905092915050565b7f4e6f7420616e20617574686f72697a6564207065657200000000000000000000600082015250565b600061051d6016836104d6565b9150610528826104e7565b602082019050919050565b6000602082019050818103600083015261054c81610510565b9050919050565b6000819050919050565b61056681610553565b82525050565b60006040820190506105816000830185610453565b61058e602083018461055d565b9392505050565b7f4f6e6c792044617461204f776e65722063616e20617574686f72697a65000000600082015250565b60006105cb601d836104d6565b91506105d682610595565b602082019050919050565b600060208201905081810360008301526105fa816105be565b905091905056fea26469706673582212207c7c2edcefc690a6f3668701587295c3faaf49d88cdedd4c588c035ec4564bcd64736f6c63430008180033",
  "linkReferences": {},
  "deployedLinkReferences": {}
}