{
  "_format": "hh-sol-artifact-1",
  "contractName": "AuditAccessManager",
  "sourceName": "contracts/AuditAccessManager.sol",
  "abi": [
    {
      "inputs": [],
      "stateMutability": "nonpayable",
      "type": "constructor"
    },
    {
      "inputs": [
        {
          "internalType": "string",
          "name": "partyId",
          "type": "string"
        },
        {
          "internalType": "address",
          "name": "peer",
          "type": "address"
        },
        {
          "internalType": "uint256",
          "name": "_threshold",
          "type": "uint256"
        }
      ],
      "name": "authorizePeer",
      "outputs": [],
      "stateMutability": "nonpayable",
      "type": "function"
    },
    {
      "inputs": [],
      "name": "contractAdmin",
      "outputs": [
        {
          "internalType": "address",
          "name": "",
          "type": "address"
        }
      ],
      "stateMutability": "view",
      "type": "function"
    },
    {
      "inputs": [
        {
          "internalType": "string",
          "name": "partyId",
          "type": "string"
        }
      ],
      "name": "getAuditConfig",
      "outputs": [
        {
          "internalType": "uint256",
          "name": "",
          "type": "uint256"
        },
        {
          "internalType": "uint256",
          "name": "",
          "type": "uint256"
        }
      ],
      "stateMutability": "view",
      "type": "function"
    },
    {
      "inputs": [
        {
          "internalType": "string",
          "name": "",
          "type": "string"
        },
        {
          "internalType": "address",
          "name": "",
          "type": "address"
        }
      ],
      "name": "isAuthorizedPeer",
      "outputs": [
        {
          "internalType": "bool",
          "name": "",
          "type": "bool"
        }
      ],
      "stateMutability": "view",
      "type": "function"
    },
    {
      "inputs": [
        {
          "internalType": "string",
          "name": "",
          "type": "string"
        }
      ],
      "name": "partyConfigs",
      "outputs": [
        {
          "internalType": "uint256",
          "name": "threshold",
          "type": "uint256"
        },
        {
          "internalType": "uint256",
          "name": "totalPeers",
          "type": "uint256"
        },
        {
          "internalType": "bool",
          "name": "isActive",
          "type": "bool"
        }
      ],
      "stateMutability": "view",
      "type": "function"
    },
    {
      "inputs": [
        {
          "internalType": "string",
          "name": "partyId",
          "type": "string"
        },
        {
          "internalType": "address",
          "name": "peer",
          "type": "address"
        }
      ],
      "name": "verifyPeer",
      "outputs": [
        {
          "internalType": "bool",
          "name": "",
          "type": "bool"
        }
      ],
      "stateMutability": "view",
      "type": "function"
    }
  ],
  "bytecode": "0x608060405234801561001057600080fd5b50336000806101000a81548173ffffffffffffffffffffffffffffffffffffffff021916908373ffffffffffffffffffffffffffffffffffffffff160217905550610b79806100606000396000f3fe608060405234801561001057600080fd5b50600436106100625760003560e01c8063302f817b146100675780637795524514610099578063a155fc27146100b7578063bb881c01146100e7578063d0218fde14610117578063f25316bf14610133575b600080fd5b610081600480360381019061007c91906106e4565b610164565b60405161009093929190610761565b60405180910390f35b6100a16101b1565b6040516100ae91906107d9565b60405180910390f35b6100d160048036038101906100cc9190610820565b6101d5565b6040516100de919061087c565b60405180910390f35b61010160048036038101906100fc9190610820565b61021a565b60405161010e919061087c565b60405180910390f35b610131600480360381019061012c91906108c3565b61028d565b005b61014d600480360381019061014891906106e4565b6104cc565b60405161015b929190610932565b60405180910390f35b6001818051602081018201805184825260208301602085012081835280955050505050506000915090508060000154908060010154908060020160009054906101000a900460ff16905083565b60008054906101000a900473ffffffffffffffffffffffffffffffffffffffff1681565b6002828051602081018201805184825260208301602085012081835280955050505050506020528060005260406000206000915091509054906101000a900460ff1681565b600060028360405161022c91906109cc565b908152602001604051809103902060008373ffffffffffffffffffffffffffffffffffffffff1673ffffffffffffffffffffffffffffffffffffffff16815260200190815260200160002060009054906101000a900460ff16905092915050565b60008054906101000a900473ffffffffffffffffffffffffffffffffffffffff1673ffffffffffffffffffffffffffffffffffffffff163373ffffffffffffffffffffffffffffffffffffffff161461031b576040517f08c379a000000000000000000000000000000000000000000000000000000000815260040161031290610a40565b60405180910390fd5b60018360405161032b91906109cc565b908152602001604051809103902060020160009054906101000a900460ff16610388576001808460405161035f91906109cc565b908152602001604051809103902060020160006101000a81548160ff0219169083151502179055505b60028360405161039891906109cc565b908152602001604051809103902060008373ffffffffffffffffffffffffffffffffffffffff1673ffffffffffffffffffffffffffffffffffffffff16815260200190815260200160002060009054906101000a900460ff166104a157600160028460405161040791906109cc565b908152602001604051809103902060008473ffffffffffffffffffffffffffffffffffffffff1673ffffffffffffffffffffffffffffffffffffffff16815260200190815260200160002060006101000a81548160ff02191690831515021790555060018360405161047991906109cc565b9081526020016040518091039020600101600081548092919061049b90610a8f565b91905055505b806001846040516104b291906109cc565b908152602001604051809103902060000181905550505050565b6000806001836040516104df91906109cc565b908152602001604051809103902060020160009054906101000a900460ff1661053d576040517f08c379a000000000000000000000000000000000000000000000000000000000815260040161053490610b23565b60405180910390fd5b60018360405161054d91906109cc565b90815260200160405180910390206000015460018460405161056f91906109cc565b90815260200160405180910390206001015491509150915091565b6000604051905090565b600080fd5b600080fd5b600080fd5b600080fd5b6000601f19601f8301169050919050565b7f4e487b7100000000000000000000000000000000000000000000000000000000600052604160045260246000fd5b6105f1826105a8565b810181811067ffffffffffffffff821117156106105761060f6105b9565b5b80604052505050565b600061062361058a565b905061062f82826105e8565b919050565b600067ffffffffffffffff82111561064f5761064e6105b9565b5b610658826105a8565b9050602081019050919050565b82818337600083830152505050565b600061068761068284610634565b610619565b9050828152602081018484840111156106a3576106a26105a3565b5b6106ae848285610665565b509392505050565b600082601f8301126106cb576106ca61059e565b5b81356106db848260208601610674565b91505092915050565b6000602082840312156106fa576106f9610594565b5b600082013567ffffffffffffffff81111561071857610717610599565b5b610724848285016106b6565b91505092915050565b6000819050919050565b6107408161072d565b82525050565b60008115159050919050565b61075b81610746565b82525050565b60006060820190506107766000830186610737565b6107836020830185610737565b6107906040830184610752565b949350505050565b600073ffffffffffffffffffffffffffffffffffffffff82169050919050565b60006107c382610798565b9050919050565b6107d3816107b8565b82525050565b60006020820190506107ee60008301846107ca565b92915050565b6107fd816107b8565b811461080857600080fd5b50565b60008135905061081a816107f4565b92915050565b6000806040838503121561083757610836610594565b5b600083013567ffffffffffffffff81111561085557610854610599565b5b610861858286016106b6565b92505060206108728582860161080b565b9150509250929050565b60006020820190506108916000830184610752565b92915050565b6108a08161072d565b81146108ab57600080fd5b50565b6000813590506108bd81610897565b92915050565b6000806000606084860312156108dc576108db610594565b5b600084013567ffffffffffffffff8111156108fa576108f9610599565b5b610906868287016106b6565b93505060206109178682870161080b565b9250506040610928868287016108ae565b9150509250925092565b60006040820190506109476000830185610737565b6109546020830184610737565b9392505050565b600081519050919050565b600081905092915050565b60005b8381101561098f578082015181840152602081019050610974565b60008484015250505050565b60006109a68261095b565b6109b08185610966565b93506109c0818560208601610971565b80840191505092915050565b60006109d8828461099b565b915081905092915050565b600082825260208201905092915050565b7f4f6e6c792041646d696e2063616e20617574686f72697a650000000000000000600082015250565b6000610a2a6018836109e3565b9150610a35826109f4565b602082019050919050565b60006020820190508181036000830152610a5981610a1d565b9050919050565b7f4e487b7100000000000000000000000000000000000000000000000000000000600052601160045260246000fd5b6000610a9a8261072d565b91507fffffffffffffffffffffffffffffffffffffffffffffffffffffffffffffffff8203610acc57610acb610a60565b5b600182019050919050565b7f506172747920646f6573206e6f74206578697374000000000000000000000000600082015250565b6000610b0d6014836109e3565b9150610b1882610ad7565b602082019050919050565b60006020820190508181036000830152610b3c81610b00565b905091905056fea26469706673582212207ea424c1198cb83a763a4a4734a091196dac0a97f19223818b96c7f21985e20264736f6c63430008180033",
  "linkReferences": {},
  "deployedLinkReferences": {}
}